:020000040800F2
:1000000008290020C5010008D7030008CF03000815
:10001000D303000859020008E90C000800000000A2
:10002000000000000000000000000000550A000869
:100030005D02000800000000D9030008790B0008E9
:10004000DF010008DF010008DF010008DF01000810
:10005000DF010008DF010008DF010008DF01000800
:10006000DF010008DF010008DF010008DF010008F0
:10007000DF010008DF010008DF010008DF010008E0
:10008000DF010008DF010008DF010008DF010008D0
:10009000DF010008DF010008DF010008DF010008C0
:1000A000DF010008DF010008DF010008DF010008B0
:1000B000DF010008DF010008DF010008DF010008A0
:1000C000DF010008DF010008DF010008DF01000890
:1000D000DF010008DF010008DF010008DF01000880
:1000E000DF010008DF010008DF010008DF01000870
:1000F000DF010008DF010008DF010008DF01000860
:10010000DF010008DF010008DF010008DF0100084F
:10011000DF010008DF010008DF010008DF0100083F
:10012000DF010008DF010008DF010008DF0100082F
:10013000DF010008DF010008DF010008DF0100081F
:10014000DF010008DF010008DF010008DF0100080F
:10015000DF010008DF010008DF010008DF010008FF
:10016000DF010008DF010008DF010008DF010008EF
:10017000DF010008DF010008DF010008DF010008DF
:10018000DF010008DF010008DF010008DF010008CF
:10019000DF010008DF010008DF010008DF010008BF
:1001A000DF010008DF010008DF010008DFF810D0E0
:1001B00000F040F800480047E5360008AFF3008043
:1001C000082900200648804706480047FEE7FEE76A
:1001D000FEE7FEE7FEE7FEE7FEE7FEE7FEE7FEE7F7
:1001E0007D0B0008AD010008421C10F8011B00291E
:1001F000FBD1801A7047034611F8012B00F8012B40
:10020000002AF9D11846704730B50B460146002048
:100210002022012409E021FA02F59D4205D303FAC8
:1002200002F5491B04FA02F52844151EA2F1010249
:10023000F1DC30BD064C074D06E0E06840F00103FC
:1002400094E8070098471034AC42F6D3FFF7B2FFAA
:1002500018F2020838F2020800BFFEE770470000FB
:1002600000B587B00121084600F0B8F80121102040
:1002700000F0C4F807220A211D4800F085F8072283
:1002800009211B4800F080F800208DF81A00012099
:100290008DF81B0002208DF8180000020590022046
:1002A0008DF8190005A9124800F026F802208DF8F3
:1002B00018004002059005A90D4800F01DF84FF404
:1002C000E13001900020ADF80800ADF80A00ADF86B
:1002D0000C00ADF810000C20ADF80E0001A9054887
:1002E00000F094FC0121034800F076FC07B000BD4B
:1002F0000000024000100140F0B50A460021002332
:10030000002400BF3DE0012505FA01F3156805EA68
:1003100003049C4234D105684F000326BE40B54318
:10032000056015794E00B5400668354305601579BE
:10033000012D02D01579022D16D185684F000326B4
:10034000BE40B543856055794E00B540866835435B
:100350008560456801268E40B543456045689679BD
:100360008E40B6B235434560C5684F000326BE4097
:10037000B543C560D5794E00B540C6683543C56004
:10038000491C1029BFD3F0BDF0B5002300244D0750
:10039000ED0E02FA05F3CE1000F1200555F82650B7
:1003A0004E07F70E0F26BE40B543CF1000F12006D2
:1003B00046F82750CE1000F1200555F8265045EAA2
:1003C0000304CE1000F1200545F82640F0BD00BF23
:1003D000FEE700BFFEE770477047000029B1064AFC
:1003E00012680243044B1A6004E0034A1268824315
:1003F000014B1A60704700003038024029B1064AAC
:1004000012680243044B1A6004E0034A12688243F4
:10041000014B1A607047000044380240F0B50021DB
:1004200000220024022500260223324F3F6807F0F5
:100430000C0121B1042905D0082937D105E02E4F40
:10044000076036E02D4F076033E02A4F3F1F3F68BB
:10045000C7F38056274F3F1F3F6807F03F036EB139
:10046000264FB7FBF3F7DFF88CC0ACF1040CDCF8D7
:1004700000C0CCF3881C07FB0CF40CE01E4FB7FB4C
:10048000F3F7DFF870C0ACF1040CDCF800C0CCF37B
:10049000881C07FB0CF4174F3F1F3F68C7F3014749
:1004A0007F1C7D00B4FBF5F7076002E0124F076088
:1004B00000BF00BF0F4F3F6807F0F0010909104F60
:1004C0007A5C0768D74047600A4F3F6807F4E051FD
:1004D000890A0B4F7A5C4768D7408760054F3F68B1
:1004E00007F46041490B064F7A5C4768D740C76004
:1004F000F0BD0000083802400024F40040787D017F
:100500000000002021B1028842F04002028004E095
:1005100002884FF6BF731A400280704770B50546D7
:100520000C461646402011490880032000F0C4F90B
:10053000200E00F0C1F9C4F3074000F0BDF9C4F388
:10054000072000F0B9F9E0B200F0B6F904E0FF20AE
:1005500000F0B2F928706D1C301EA6F10106F6D12C
:1005600040200249891E088070BD00001A14024014
:100570002DE9F05F07460D4616464FF00008C146CC
:10058000C2460024A34605F0FF0ACAF10000C4B227
:10059000C6F3072806F0FF09BAF1000F20D1B8F121
:1005A000000F05D132462946384600F0EDF859E0F3
:1005B00009E04FF480722946384600F0E5F805F569
:1005C000807507F58077B8F10000A8F1010101F00E
:1005D000FF08EED14A462946384600F0D5F841E0FA
:1005E000B8F1000F18D1A14510DDA9EB040000F00F
:1005F000FF0B22462946384600F0C6F8254427441A
:100600005A462946384600F0BFF82BE032462946C4
:10061000384600F0B9F825E0361BC6F3072806F087
:10062000FF0922462946384600F0AEF82544274403
:1006300009E04FF480722946384600F0A5F805F528
:10064000807507F58077B8F10000A8F1010101F08D
:10065000FF08EED1B9F1000F04D04A4629463846CA
:1006600000F092F8BDE8F09F00B587B0012120208E
:10067000FFF7B4FE01210805FFF7C0FE05220721A0
:100680002F48FFF781FE052208212D48FFF77CFE49
:10069000052209212A48FFF777FE802000900220DA
:1006A0008DF805008DF8040000208DF806008DF807
:1006B000070069462248FFF71FFE4FF48070009044
:1006C00069461F48FFF718FE4FF400700090694616
:1006D0001B48FFF711FE4020009001208DF8040018
:1006E00069461748FFF708FE402015491831088071
:1006F0000020ADF808004FF48270ADF80A00002029
:10070000ADF80C000220ADF80E000120ADF810008D
:100710004002ADF812000020ADF81400ADF816004C
:100720000720ADF8180002A9064800F055F901218C
:100730000448FFF7E7FE00F007F807B000BD00002F
:10074000001402400050014010B540200D490880BF
:10075000152000F0B1F8FF2000F0AEF8044640206C
:100760000849891E088004F0010048B94020891C0E
:100770000880B72000F0A0F840200249891E0880B8
:1007800010BD00001A14024070B505460C4616460E
:1007900000F0F8F8402015490880022000F08CF89D
:1007A000200E00F089F8C4F3074000F085F8C4F388
:1007B000072000F081F8E0B200F07EF8B6F5807F07
:1007C00004D94FF480760AA000F090FA03E028786C
:1007D00000F072F86D1C301EA6F10106F7D1402022
:1007E0000249891E088000F0A3F870BD1A14024067
:1007F0003C3C2D464C4153482D4552524F522D3EC4
:100800003E205350495F464C4153485F50616765F5
:10081000577269746520746F6F206C61726765210F
:100820000A0000002DE9F0410024002500260027E1
:1008300040200E4908809F2000F03EF8FF2000F085
:100840003BF80546FF2000F037F80646FF2000F091
:1008500033F8074640200549891E0880280440EAED
:10086000062040EA07042046BDE8F0811A14024041
:1008700010B5044600F086F800F05AF840200D4903
:100880000880202000F018F8200E00F015F8C4F3BE
:10089000074000F011F8C4F3072000F00DF8E0B2B3
:1008A00000F00AF840200349891E088000F040F853
:1008B00010BD00001A14024010B504464FF48050D9
:1008C000194908600AE018490868411E164A116073
:1008D00020B9002000F09EF8C0B210BD02211348DC
:1008E00000F06CF80028EED02146104800F072F8B5
:1008F0004FF480500C4908600AE00B490868411E1B
:10090000094A116020B9012000F084F8C0B2E4E780
:100910000121064800F052F80028EED0034800F00C
:1009200056F8C0B2D9E7000018000020005001407E
:1009300010B500244020114908800520FFF7BCFFB6
:100940004FF480500E49086000BFFF20FFF7B4FF4E
:1009500004460B490868411E094A116018B9042071
:1009600000F058F810BD04F001000028EDD140203F
:100970000249891E088000BFF4E700001A140240F3
:100980001800002010B54020044908800620FFF719
:1009900093FF40200149891E088010BD1A140240AF
:1009A00010B5402004490880AB20FFF785FF4020A8
:1009B0000149891E088010BD1A1402400246002019
:1009C00013890B400BB1012000E000207047014665
:1009D000888970478181704710B50022028802F42F
:1009E00041520B884C8823438C882343CC88234373
:1009F0000C8923434C8923438C892343CC8923438B
:100A00001A430280838B4FF2FF74234083830B8A47
:100A1000038210BD10B50446214602A000F066F91D
:100A2000002010BD3C3C2D464C4153482D455252B0
:100A30004F522D3E3E2053504920B5C8B4FDB3ACB3
:100A4000CAB1216572726F72436F6465203D2025C3
:100A5000640A0000704700000CB50020019000906F
:100A60004148006840F480303F49086000BF3E487C
:100A7000006800F4003000900198401C019000983C
:100A800018B90198B0F5A04FF1D13748006800F4CB
:100A9000003010B10120009001E00020009000988B
:100AA000012860D130484030006840F080502E4925
:100AB000403108602D48006840F440402B490860F0
:100AC000294808300068284908310860084600684D
:100AD00040F4004008600846006840F4A0500860F8
:100AE0002348091F0860081F006840F08070091F34
:100AF000086000BF1C48006800F000700028F9D0B2
:100B00001A48006840F480301849086000BF174850
:100B1000406800F480300028F9D01448006840F4A0
:100B200000301249086000BF1048406800F40030EF
:100B30000028F9D040F205700E4908600A480830D4
:100B4000006820F003000849083108600846006882
:100B500040F00200086000BF03480830006800F061
:100B60000C000828F8D10CBD00380240007000408D
:100B7000195A4007003C02407047000010B5124867
:100B8000006840F001001049086000200E4908315B
:100B900008600D4800680D4908400B4908600C4882
:100BA000091D0860081F006820F48020091F0860E4
:100BB000002005490C310860FFF74EFF4FF0006040
:100BC0000449086010BD000000380240FFFFF6FE37
:100BD0001030002408ED00E021B1828942F4005277
:100BE000828104E082894DF6FF731A40828170474A
:100BF00002460020B1F5007F00D100BF13880B40F2
:100C00000BB1012000E00020704700002DE9FF47F4
:100C100005460E460024A14600BFA046B08900B19B
:100C200000BF2C8A24F44054F08804432C82AC8901
:100C300041F20C608443B0883189084371890843CC
:100C40000443AC81AC8A24F44074B0890443AC8280
:100C50006846FFF7E3FB2048854202D01F488542E3
:100C600002D1DDF80C9001E0DDF80890A88900F4CD
:100C7000004040B109EBC90000EB091031684900A0
:100C8000B0FBF1F707E009EBC90000EB0910316890
:100C90008900B0FBF1F76420B7FBF0F004012009F4
:100CA000642101FB1078A88900F4004040B1322093
:100CB00000EBC800B0FBF1F000F00700044308E0CF
:100CC000322000EB08106421B0FBF1F000F00F00BF
:100CD00004432C81BDE8FF8700100140001401404F
:100CE000C1F308028280704700BFFEE70FB4054BD6
:100CF00010B503A9044A029800F02CF810BC5DF866
:100D000014FB000031330008280000200FB4084B0A
:100D100010B504A902AA039800F01CF8044602A921
:100D2000002000F0B8F9204610BC5DF814FB00006C
:100D30009710000802E008C8121F08C1002AFAD163
:100D400070477047002001E001C1121F002AFBD14B
:100D5000704700002DE9FF4F8BB0884605460026FE
:100D600006E025280BD0DDE90D1290476D1C761C9E
:100D700028780028F5D10FB03046BDE8F08F002468
:100D8000A146A2460122AE4900E0044315F8013F06
:100D9000203B02FA03F00842F7D128782A2810D025
:100DA0006FF02F022878A0F13001092915D809EB3E
:100DB000890102EB410144F0020400EB01096D1CC2
:100DC000F0E758F8041B5FEA010903D544F4005426
:100DD000C9F1000944F002046D1C28782E2817D1AF
:100DE00015F8010F44F004042A280ED06FF02F02EA
:100DF0002878A0F1300109290AD80AEB8A0102EB10
:100E0000410100EB010A6D1CF2E758F804AB6D1CC0
:100E100028786C280FD006DC4C2817D068280DD015
:100E20006A2814D104E0742810D07A280FD10DE07C
:100E300044F400140AE044F4801401E044F4401443
:100E40006978814202D104F580146D1C6D1C2878EC
:100E5000692865D006DC00288DD0632827D0642857
:100E600006D15DE06E2808D073282AD0752877D087
:100E7000DDE90D129047761CE0E0C4F30250022831
:100E800009D003280DD0D8F8001004280DD00E602A
:100E900008F10408D2E0D8F80010F217C1E90062A6
:100EA000F6E7D8F800100E80F2E70E70F0E718F8B9
:100EB000041B8DF8001000208DF80100EB46012086
:100EC00003E058F804BB4FF0FF3061074FF0000714
:100ED00001D40AE07F1C57450DDA8742FADB1BF884
:100EE00007100029F6D106E07F1C8742FCDB1BF8C7
:100EF00007100029F8D1DDE90D23A9EB0700814691
:100F0000214600F0B1F83044C61904E0DDE90D12C5
:100F10001BF8010B90477F1EF8D22146484688E017
:100F200058F8040BC4F302514FF00A0B032900D107
:100F300000B2042900D140B2002802DA40422D213B
:100F400002E0210505D52B218DF82410012104E0B4
:100F500006E0E10710D02021F6E708AF089113E082
:100F600058F8040BC4F302514FF00A0B032900D1C7
:100F700080B2042900D1C0B20021EEE75946FFF744
:100F800043F9303107F8011D0028F7D1ADEB070018
:100F900000F1200B600702D524F4803401E04FF00B
:100FA000010ADA4502DDAAEB0B0000E000208246D0
:100FB00000EB0B0108980144A9EB01000A90E00343
:100FC00006D4DDE90D2321460A9800F04DF80644C9
:100FD0004FF0000908E009A911F80900DDE90D1238
:100FE000904709F10109761C08998945F3DBE00374
:100FF0000CD5DDE90D2321460A9800F035F80644AA
:1010000004E0DDE90D1230209047761CBAF10001B2
:10101000AAF1010AF5DC05E0DDE90D1217F8010B74
:101020009047761CBBF10001ABF1010BF4DC0A9890
:101030002146DDE90D2300F005F806446D1C97E616
:10104000092801002DE9F041044600251E461746F7
:10105000880404D405E039462020B0476D1C641E86
:10106000F9D52846BDE8F0812DE9F0410446002578
:101070001E469046C80301D5302700E0202788048B
:1010800004D505E041463846B0476D1C641EF9D5CD
:101090002846BDE8F0810A68531C0B601070704749
:1010A00070B504460D4600202071401EE0622946BE
:1010B000204602F06DFD08B1032070BD94F82E1299
:1010C00094F82F0241EA00204AF65521884201D0C7
:1010D0000220F2E794F86900010694F8680041EAFA
:1010E000004194F8670041EA002094F86610084334
:1010F00020F07F400D49884201D10020DDE794F8BF
:101100008500010694F8840041EA004194F88300C8
:1011100041EA002094F88210084320F07F40034900
:10112000884201D10020C8E70120C6E746415400AB
:10113000024600E0521C107810B110788842F9D1B4
:10114000107870470246891E5069801E884201D877
:10115000002070479378906A01FB0300F9E70000D4
:101160002DE9F04780460C46A17EE07E41EA002052
:1011700010B10020BDE8F087207800F03F00401E4D
:1011800000EB800101EBC0064FF00109002524E0CF
:101190001A48405D205C1949495D2144497840EA7C
:1011A0000127B9F1000F11D0FF2E0BD2384601F004
:1011B0006BFD82463146761C38F8110001F064FD63
:1011C000824501D00020D5E7B94605E04FF6FF7013
:1011D000874201D00020CDE76D1C0D2DD8D320789B
:1011E00000F0400038B1B9F1000F04D038F8160013
:1011F00008B10020BEE70120BCE7000094400008D1
:101200002DE9F04704468946B9F1000F06D1E76899
:1012100017B16069B84215D8012713E04946204646
:1012200002F0FEF80646022E02D20120BDE8F08749
:10123000701C08B93046F9E76069B04201D9304600
:10124000F4E74F463D4600BF6D1C6069A84204D8D4
:101250000225BD4201D90020E8E72946204602F0D8
:10126000DFF8064606B909E0701C08B1012E01D16D
:101270003046DBE7BD42E7D10020D7E700BF6FF083
:1012800070422946204602F0DDFC8046B8F1000F8E
:1012900008D1B9F1000F05D02A464946204602F090
:1012A000D1FC8046B8F1000F0BD1E5602069401CED
:1012B00078B12069401E2061607940F001006071C2
:1012C00007E0B8F1010F02D14FF0FF3000E001203C
:1012D00005462846AAE700002DE9F34F83B0814672
:1012E00004980068019002E00198401C0190019868
:1012F00000782F28F8D0019800785C28F4D0D9F82D
:101300001CA000252F4600BF38467F1C01990C5CAD
:10131000202C03DB2F2C01D05C2C00D132E0FF2DE0
:1013200003D3062005B0BDE8F08FE4B2812C13DBB7
:10133000E0B2FE2810DC38467F1C01990E5C06EBFB
:10134000042084B2402E01DB7E2E05DD802E01DBE1
:10135000FE2E01DD0620E5E70121204601F056FCC6
:1013600004460CB90620DDE7802C06DA214671A080
:10137000FFF7DEFE08B10620D4E728466D1C2AF8E8
:101380001040C1E700BF0198C11904980160202CEA
:1013900001DA042000E00020804608E0681E3AF8E8
:1013A0001040202C02D02E2C00D002E06D1E002D0B
:1013B000F4D100BF0DB90620B4E700202AF81500CB
:1013C0000B222021D9F8180002F096FA002700E03D
:1013D0007F1C3AF817002028FAD03AF817002E2878
:1013E000F6D00FB148F0030800E06D1E25B1681E6D
:1013F0003AF810002E28F8D10020064602904FF04F
:10140000080B00BF38467F1C3AF8104004B963E06F
:10141000202C03D02E2C04D1AF4202D048F0030878
:10142000F0E70298584501D2AF4214D1BBF10B0F3F
:1014300002D148F003084FE0AF4201D048F0030862
:10144000AF4200D948E02F46082002904FF00B0B26
:10145000B006060ED6E7802C09DB204601F014FC0E
:101460000021009001F0D2FB044648F00208FF2C56
:1014700011DDABF101000299884204D848F003085D
:10148000CDF808B0BEE72212D9F818300298411CF6
:1014900002911A5419E024B1214629A0FFF748FE11
:1014A00018B15F2448F003080FE0412C04DB5A2CEC
:1014B00002DC46F0020608E0612C06DB7A2C04DC34
:1014C00046F00106A4F1200084B2D9F81830029841
:1014D000411C02911C5495E700BFD9F81800007810
:1014E000E52803D10520D9F818100870BBF1080FC2
:1014F00001D1B006060E06F00C000C2803D006F051
:101500000300032801D148F0020808F0020058B98E
:1015100006F00300012801D148F0100806F00C0085
:10152000042801D148F00808D9F8180080F80B8089
:101530000020F7E6222A3A3C3E3F7C7F0000000074
:101540002B2C3B3D5B5D00002DE9F04104460E462F
:101550000021204600F065FA0546EDB9002700BFDE
:101560002169206802F014FB054605B113E06069AB
:101570000078E52802D06069007820B9781C074619
:10158000B04201D107E000270121204600F07FF89A
:101590000546002DE4D000BF042D00D107252846C4
:1015A000BDE8F0812DE9F04704460021204600F017
:1015B00038FA074617B13846BDE8F0874FF0FF0903
:1015C000CA464FF6FF70208400BF2169206802F0F0
:1015D000DFFA074607B157E065692E780EB9042790
:1015E00052E0E87A00F03F08E52E05D008F0080048
:1015F00040B1B8F10F0F05D04FF0FF094FF6FF7063
:1016000020843AE0B8F10F0F1CD1E06978B306F0FE
:10161000400030B195F80DA026F04006B146E088B4
:1016200020844E450AD1687B504507D12946E069A0
:10163000FFF796FD10B1A9F1010000E0FF2000F0D6
:10164000FF091AE0B9F1000F05D1284602F06CFC41
:10165000504500D118E0A069C07A00F0010038B907
:101660000B222846A16902F027F908B90CE004E032
:101670004FF0FF094FF6FF7020840021204600F054
:1016800006F80746002FA0D000BF384694E72DE9A2
:10169000F04104468846E088461CB0B208B1206993
:1016A00010B90420BDE8F08121684889C11700EB1A
:1016B000D1614911B6FBF1F201FB1261002971D130
:1016C0002069401C2061E06828B920680089B04288
:1016D00068D80420E6E721684889C11700EBD1618A
:1016E0004911B6FBF1F122689278521E114000298F
:1016F00058D1E168206801F093FE0546012D01D81C
:101700000220CFE7681C08B90120CBE720684069B8
:10171000A84241D8B8F1000F01D10420C2E7E16826
:101720002068FFF76DFD05460DB90720BAE7012DCA
:1017300001D10220B6E7681C08B90120B2E7206891
:1017400002F066FC08B10120ACE721684A8901F18A
:101750003000002102F0D0F829462068FFF7F2FCA3
:101760002168C86200270EE0012021680871206806
:1017700002F04EFC08B1012094E72068C06A401CCA
:101780002168C8627F1C20688078B842ECD8206845
:10179000C06AC01B2168C862E56029462068FFF75F
:1017A000D1FC2061E68021684889C11700EBD16136
:1017B0004911B6FBF1F201FB12612268303202EBF3
:1017C0004111616100206DE72DE9F05F04468A4612
:1017D0004FF0FF09CB4604274FE02169206802F053
:1017E000D7F9074607B14BE0666935780DB904278C
:1017F00046E0F07A00F03F08E52D0AD02E2D08D003
:1018000028F02000082801D1012000E000205045E8
:1018100002D04FF0FF0929E0B8F10F0F1AD105F0FF
:10182000400030B196F80DB025F04005A946E0889B
:1018300020844D450AD1707B584507D13146E06977
:1018400002F0C0F910B1A9F1010000E0FF2000F0A2
:10185000FF090BE0B9F1000F04D1304602F064FB40
:10186000584502D04FF6FF70208409E00021204641
:10187000FFF70DFF074607B102E020690028ACD151
:1018800000BF0FB1002020613846BDE8F09F2DE970
:10189000FE4F0446D4F81880D4F81C900C22414620
:1018A000684602F01CF800BF9DF80B0000F0010034
:1018B00020B3002088F80B00E06101260CE03346DD
:1018C0004A466946404601F045FD2046FFF76AFE5C
:1018D000054605B102E0761C642EF0D300BF642EED
:1018E00002D10720BDE8FE8F042D01D02846F9E77C
:1018F0009DF80B0088F80B00C4F81C909DF80B00B5
:1019000000F0020060B1002600E0761C39F81600F5
:101910000028FAD106F119000D21B0FBF1F700E023
:10192000012739462046FFF70FFE054645BB781EC6
:10193000071E25D0E088C11B204600F072F805463E
:10194000F5B9A06902F0F0FA824600BF216920686B
:1019500002F01EF9054605B111E0FAB2534661697D
:10196000E06901F05DFC012021680871002120463A
:10197000FFF78DFE054615B9781E071EE6D100BF9C
:10198000C5B92169206802F003F9054695B92022FE
:101990000021606901F0B0FF0B22D4E9050101F0DC
:1019A0009EFFA069C07A00F01800616908730120E9
:1019B00021680871284695E770B50446E688208CB2
:1019C0004FF6FF72904201D1304600E0208C014674
:1019D000204600F026F805460DBB00BF21692068AF
:1019E00002F0D6F8054605B115E020220021606915
:1019F00001F082FFE520616908700120216808710B
:101A0000E088B04200D306E000212046FFF73FFE09
:101A10000546002DE2D000BF042D00D10225284646
:101A200070BD2DE9F04104460E46E680A568012D03
:101A300003D020684069A84202D80220BDE8F081A6
:101A40002DB920680078032801D12068456A45B97E
:101A500020680089B04201D80220EFE72068476A79
:101A600024E021684889C11700EBD161491122683F
:101A7000927811FB02F812E02946206801F0D0FCB0
:101A80000546681C08B90120D8E7022D03D3206859
:101A90004069A84201D80220D0E7A6EB08064645D7
:101AA000EAD229462068FFF74DFB0746E5600FB9EB
:101AB0000220C3E721684889C11700EBD1614911B1
:101AC000B6FBF1F13944216121684889C11700EB67
:101AD000D1614911B6FBF1F201FB1261226830328B
:101AE00002EB411161610020A8E770B504460126B0
:101AF00014B1012C11D100E011E0FEF7B5FD4FF457
:101B0000FA7500BF681E80B2051EFBD1FEF748FFC4
:101B1000012000F047F8064601E0012600BF00BFA3
:101B2000304670BD10B50346042013B1012B16D109
:101B300000E016E0012904D0022906D003290BD1C8
:101B400007E04FF48054146006E04FF48054148092
:101B500002E00124146000BF00BF002001E0042067
:101B600000BF00BF10BD2DE9F04105460E461446EA
:101B70001F464FF0040815B1012D0BD100E00CE019
:101B800004F580543A0321033046FEF7C7FC4FF0BA
:101B9000000802E04FF0040800BF00BF4046BDE867
:101BA000F081000070B50446012514B1012C0BD161
:101BB00000E00BE0FEF736FE0649884202D125F030
:101BC000010500E0012501E0012500BF00BF284616
:101BD00070BD00001940EF002DE9F0470746884628
:101BE00014461D464FF0040915B90420BDE8F087DE
:101BF00017B1012F0FD100E010E004F58054260347
:101C00003046FEF735FE2A0331464046FEF7B0FC6B
:101C10004FF0000902E04FF0040900BF00BF484642
:101C2000E4E770B50546284600F03BFE044634B9AB
:101C3000284602F016FA04460CB900202860204617
:101C400070BD70B50446204602F00BFA05460DB98A
:101C500000202060284670BD2DE9F74F82B08A46EB
:101C6000002202A9049801F0EFF80190049804689A
:101C7000019800286DD1D4E90410801E814203D858
:101C80002069CAF8000064E094F800B00026BBF1B7
:101C9000010F1CD1022700BF3946204601F0C0FBCE
:101CA000804608F1010010B9012001900EE0B8F162
:101CB000010F02D10220019008E0B8F1000F00D11D
:101CC000761C781C074661698842E5D33AE067696B
:101CD000206A00904FF00009002500BFB9F1000F05
:101CE0000ED10098421C01462046009201F050FFA0
:101CF0000190019800B124E004F13005B4F80A9095
:101D0000BBF1020F09D12878697840EA012000B9B7
:101D1000761CAD1CA9F1020910E0E8780006A9784C
:101D200040EA0140697840EA01202978084320F020
:101D3000704000B9761C2D1DA9F10409781E071EFC
:101D4000CCD100BF2661607940F001006071CAF813
:101D50000060019805B0BDE8F08F2DE9F04704461A
:101D60000E46204602F07DF98246BAF1000F02D0FD
:101D70005046BDE8F087E07908B1E079F9E7E0681E
:101D8000B04204D2A07900F0020000B9E668D4F8AD
:101D900008904FF00008C4F80880002E71D0206829
:101DA00080782168498900FB01F7B9F1000F11D053
:101DB000701EB0FBF7F1A9F10100B0FBF7F0814212
:101DC00008D3A9F10100791E8843A060A068361AE3
:101DD000656912E025697DB900212068FFF710FAD6
:101DE0000546012D02D10220E071C2E7681C10B93E
:101DF0000120E071BDE725616561002D41D023E040
:101E0000A07900F0020038B129462068FFF7F8F900
:101E1000054635B93E4619E02946206801F000FB29
:101E20000546681C10B90120E071A2E7012D03D915
:101E300020684069A84202D80220E07199E76561F4
:101E4000A0683844A060F61BBE42D9D800BFA06885
:101E50003044A06020684089B6FBF0F100FB1160BF
:101E600078B129462068FFF76DF98046B8F1000F78
:101E700002D10220E0717CE720684089B6FBF0F0D7
:101E8000804421684989A068B0FBF1F201FB12008F
:101E900020B3A069404521D0A07900F0400078B17E
:101EA00021684878012304F12401A269FFF794FE18
:101EB00010B10120E0715CE7A07920F04000A07132
:101EC000216848780123424604F12401FFF74BFEC4
:101ED00010B10120E0714CE7C4F81880D4E9020188
:101EE000884205D9A068E060A07940F02000A07188
:101EF00050463EE72DE9F147ADF50D7D01F030FB91
:101F0000064601228DA984A800F09EFF0546002DFB
:101F10006FD181A88A9001A88B9084A88D9901F037
:101F2000BFF9054605B9082500BF042DF0D10021F1
:101F30008498FFF765F90746002507B90725012FA3
:101F400000D10225781C00B901251DB9849802F042
:101F50005FF80546002D5BD139468498FFF7F2F80B
:101F60008146849800F130048498428900212046FB
:101F700001F0C2FC0B222021204601F0BDFC2E20E6
:101F800020701020E072A675310AE175310C2176BF
:101F9000310E61763946204601F0BEFF20222146EF
:101FA00004F1200001F09BFC2E2084F82100DDF8D4
:101FB00018A284980078032804D18498406A504578
:101FC00000D1AA46514604F1200001F0A5FF8498F3
:101FD00090F8028018E08498C0F82C9009F101096B
:101FE000012084990871849802F012F805460DB119
:101FF0000DE02DE0849842890021204601F07CFC10
:10200000A8F1010000F0FF08B8F1000FE3D100BF14
:102010001DB984A8FFF73BFC054625B139468498D5
:1020200001F0F6FE14E0899C1020E072A675310ADA
:10203000E175310C2176310E61763946204601F08A
:102040006BFF012084990871849801F07DFF05469B
:1020500028460DF50E7DBDE8F0870000F7B582B08B
:1020600016460398019001A801F006FB0546002DD5
:1020700002DA0B2005B0F0BD0E4850F825400CB137
:1020800000202070029810B10020029908700949C0
:10209000029841F82500029808B1012E01D00020D5
:1020A000E8E7002203A902A800F0CEFE0746384662
:1020B000E0E700001C0000202DE9F743ADF50C7DA2
:1020C0000546164625B909200DF50F7DBDE8F083BC
:1020D0000020286006F01F0626F001028DA983A8C3
:1020E00000F0B2FE0746002F74D180A88990CDF889
:1020F00028D283A88D9901F0D3F80746889C0FB9A0
:1021000004B9062706F01C0000285CD04FB1042F4C
:1021100003D183A8FFF7BBFB074646F00806889C5F
:1021200009E0E07A00F0110008B1072703E006F0AB
:10213000040000B10827002F55D106F00800002840
:1021400051D001F00DFA804684F80E804FEA182134
:10215000E1734FEA184121744FEA1861617484F801
:1021600016804FEA1821E1754FEA184121764FEAAF
:10217000186161760020E072207700216177A177F5
:10218000E1772146839801F09CFA814600212046A0
:1021900001F0C2FE012083990871B9F1000F22D02D
:1021A0008398D0F82C804946839801F031FE074689
:1021B000CFB9A9F101008399C8604146839801F025
:1021C000E7FC07460FE077B9E07A00F0100010B1A5
:1021D000042708E02DE006F0020020B1E07A00F0CC
:1021E000010000B1072747B906F0080008B146F022
:1021F00020068398C06AE8612C62D7B9AE710020CE
:10220000E8712146839801F05CFA2861E07F0106BD
:10221000A07F41EA0041607F41EA0020217F08431E
:10222000E8600020A860A861839828602868C088BA
:10223000A880384648E733B5ADF5057D04461CB99E
:1022400009200DF5077D30BD002286A984A800F085
:10225000FBFD05462DBB8498206081A8A06101A8E4
:10226000E0612046869901F01BF80546B5B9606922
:1022700058B16069C07A00F0100028B16169849893
:1022800001F01FFAA06000E005253DB98498C088E0
:10229000A08000212046FFF7C4FB0546042D00D195
:1022A00005250DB1002020602846CAE70FB42DE9AE
:1022B000F04F9BB02498019000200290039026A834
:1022C0001A9000BF259810F8014B259004B90DE134
:1022D000252C04D0214601A801F078FDF2E700206A
:1022E00006468146259810F8014B2590302C05D1E3
:1022F0000126259810F8014B259006E02D2C04D1DD
:102300000226259810F8014B259009E009EB890079
:1023100004EB4000A0F13009259810F8014B2590FE
:10232000302C01DB392CF1DD6C2C01D04C2C05D18B
:1023300046F00406259810F8014B259004B9D5E025
:102340002546612D04DB7A2D02DCA5F12000C5B203
:102350004F2D49D006DC422D43D0432D38D0442D9B
:102360004CD144E0532D04D0552D41D0582D45D1AA
:1023700041E01A9850F804BB1A904FF0000801E0B1
:1023800008F101081BF808000028F9D106F0020046
:1023900048B903E0202101A801F018FD404608F1EA
:1023A00001084845F6D304E01BF8011B01A801F021
:1023B0000DFD9BF800000028F6D103E0202101A8C4
:1023C00001F004FD404608F101084845F6D379E7DD
:1023D0001A9810F8042BD1B21A9001A801F0F6FC5B
:1023E00070E7022019900EE0082019900BE000BF62
:1023F0000A20199007E01020199004E0214601A856
:1024000001F0E4FC5EE700BF06F0040028B11A9872
:1024100000681A99091D1A910CE0442D05D11A98EB
:1024200000681A99091D1A9104E01A9800681A990F
:10243000091D1A918246442D06D10AF0004018B1B8
:10244000CAF1000A46F00806002700BF1998BAFB37
:10245000F0F100FB11A0C5B21998BAFBF0FA092DF2
:1024600006DD782C01D1272000E007202844C5B2E2
:1024700005F13000C2B238467F1C14A90A54BAF1E3
:10248000000F01D0102FE1D306F0080020B12D225B
:1024900038467F1C14A90A54B84606F0010008B15A
:1024A000302000E02020054603E0294601A801F085
:1024B0008DFC06F0020020B9404608F101084845AD
:1024C000F3D300BF781E074614AA115C01A801F0DF
:1024D0007DFC002FF6D103E0294601A801F076FC2F
:1024E000404608F101084845F6D3EBE600BF00205E
:1024F0001A900298002810DB18AB04A9DDE901024C
:1025000000F07EFA48B918990298884205D10398DC
:102510001BB0BDE8F00F5DF814FB4FF0FF30F7E79C
:102520002DE9FF4F85B0044615469A46DDF818B0F0
:102530000020CAF80000204601F093FD04900498A2
:1025400018B1049809B0BDE8F08FE07908B1E079DE
:10255000F8E7A07900F0010008B90720F2E7D4E914
:102560000210401A02900298854200D9029DBAE0FA
:1025700021684989A068B0FBF1F201FB1200002834
:1025800077D121684989A068B0FBF1F0216889788A
:10259000491E084000F0FF09B9F1000F17D1A068EB
:1025A00010B92069039004E06169206800F038FFE9
:1025B00003900398022802D20220E071C2E7039838
:1025C000401C10B90120E071BCE7039860616169AB
:1025D0002068FEF7B7FD064616B90220E071B1E7A4
:1025E0004E4420684089B5FBF0F8B8F1000F2DD0BB
:1025F00009EB080021688978884203D9206880782F
:10260000A0EB090821684878434632465946FFF74F
:10261000AAFA10B10120E07194E7A07900F040001F
:1026200078B1A069801B40450BD2A169891B236842
:102630005B8901FB03B021684A8904F1240101F0A0
:102640004EF92068408900FB08F742E0A069B042DB
:1026500020D0A07900F0400080B1216848780123A3
:1026600004F12401A269FFF7B7FA18B10120E07163
:1026700068E710E0A07920F04000A0712168487858
:102680000123324604F12401FFF76DFA10B1012055
:10269000E07157E7A66121684989A068B0FBF1F2B3
:1026A00001FB1200216849890F1AAF4200D92F4659
:1026B00021684989A068B0FBF1F201FB120104F125
:1026C000240008443A4601460190584601F007F9B3
:1026D00000BFBB44A0683844A060DAF8000038446A
:1026E000CAF80000ED1B002D7FF442AF002029E75F
:1026F00070B5ADF5047D04460E46204601F0B1FCF0
:1027000005461DBB2EB900212046FFF78AF9054674
:102710001CE081A8A06101A8E06100212046FFF72C
:1027200053F80546042D02D10020206100256DB923
:102730003146204600F018FF00212046FEF7A7FF93
:102740000546042D02D100202061002528460DF504
:10275000047D70BDF3B5ADF51B7D01229BA992A848
:1027600000F072FB0446002C75D19298899080A8E5
:102770009890CDF864D292A89B9900F091FD044600
:1027800000BF002C67D1979808B9042463E097989C
:1027900000F10B01152283A801F0A1F8242292A9CF
:1027A00089A801F09CF89CA800F066FF002805DBD2
:1027B00089A89C9900F074FD044600E00B2404B93C
:1027C0000824042C47D189A8FFF761F80446002C9F
:1027D00041D18E9D13220DF20E2105F10D0001F065
:1027E0007EF89DF80C0240F02000E87201209299DA
:1027F0000871E87A00F0100018B38B999498884219
:102800001FD02946929800F05CFF074639469298FF
:10281000FEF798FC06460EB9022412E03146929863
:1028200001F0B6F90446929800F150054CB9687869
:102830002E2806D128468B9901F06EFB0120929933
:10284000087144B992A8FFF7B7F804461CB99298EA
:1028500001F07AFB044620460DF51D7DF0BD33B531
:10286000ADF50D7D0D4600228DA984A800F0ECFA8F
:10287000044694B981A88A9001A88B9084A88D9968
:1028800000F00EFD044644B9899828B12DB12946BF
:1028900084A800F069FE00E0062420460DF50F7DB7
:1028A00030BD2DE9F0410446204601F0DAFB074631
:1028B000002F4CD1A07900F02000002847D0A0794B
:1028C00000F0400078B121684878012304F1240128
:1028D000A269FFF781F910B10120BDE8F081A0796C
:1028E00020F04000A071E169206801F051F907462D
:1028F000002F2CD1256AE87A40F02000E872207B76
:102900002877A089010A6977E068010CA977E06857
:10291000010EE9772846216901F0FEFA00F020FE59
:102920000646AE75310AE975310C2976310E6976A5
:102930000020A8740021E974A07920F02000A07183
:10294000012021680871206801F0FEFA0746384628
:10295000C3E771B5ADF5157D0026012295A98CA8B8
:1029600000F072FA0446002C46D180A89290CDF86F
:102970004CD28CA8959900F093FC044600BF002C23
:102980003AD1919D0DB9062404E0E87A00F00100E7
:1029900000B10724FCB929468C9800F092FE064647
:1029A000CEB1E87A00F01000A8B124228CA983A847
:1029B00000F095FF8596022183A8FFF732F80446C0
:1029C0004CB9002183A8FEF7FFFE044604B9072492
:1029D000042C00D100247CB98CA8FEF7EDFF04463E
:1029E0002CB926B131468C9801F012FA04461CB974
:1029F0008C9801F0A9FA044620460DF5167D70BDAD
:102A00002DE9FF4F83B0044615469B46049801907C
:102A10000020CBF80000204601F023FB0290029832
:102A200018B1029807B0BDE8F08FE07908B1E079FD
:102A3000F8E7A07900F0020008B90720F2E7A068E3
:102A40002844A168884200D20025CFE02168498946
:102A5000A068B0FBF1F201FB120000287ED12168D2
:102A60004989A068B0FBF1F021688978491E0840C7
:102A700000F0FF0ABAF1000F1ED1A06838B927692B
:102A800057B900212068FEF7BBFB074604E06169E7
:102A90002068FEF7B5FB074607B9AAE0012F02D16F
:102AA0000220E071BEE7781C10B90120E071B9E79F
:102AB0006761206900B92761A07900F0400078B112
:102AC00021684878012304F12401A269FFF784F802
:102AD00010B10120E071A5E7A07920F04000A071BD
:102AE00061692068FEF72EFB064616B90220E071E8
:102AF00098E7564420684089B5FBF0F9B9F1000F1A
:102B000031D00AEB090021688978884203D920680E
:102B10008078A0EB0A09216848784B463246019933
:102B2000FFF75AF810B10120E0717BE7A069801B24
:102B3000484511D2A069831B2068B0F80AC00198EB
:102B400003FB0C012068428904F1240000F0C7FE59
:102B5000A07920F04000A071206800E017E04089D3
:102B600000FB09F835E0A069B0420FD0D4E90201BA
:102B700088420BD2216848780123324604F12401AF
:102B8000FEF7F1FF10B10120E0714BE7A66121686B
:102B90004989A068B0FBF1F201FB12002168498964
:102BA000A1EB0008A84500D9A84621684989A0687A
:102BB000B0FBF1F201FB120104F12400084442468B
:102BC0000090019900F08BFEA07940F04000A071C8
:102BD00000BF019840440190A0684044A060DBF829
:102BE00000004044CBF80000A5EB0805002D7FF461
:102BF0002DAF00BFD4E90201884201D9A068E0608E
:102C0000A07940F02000A07100200BE72DE9F041F1
:102C100002460F46802A01DA10462FE01FB1184BFA
:102C200045F2205602E0174B45F2205600251024AD
:102C300016E0A6EB050C0CEBDC7805EB68014FEA1F
:102C4000410C33F81CC0944500D10BE04FEA410C15
:102C500033F81CC0944501DA0D4600E00E46641EB0
:102C6000002CE6D100BF34B14FF0010C0CEB410C4D
:102C700033F81CC001E04FF0000C6046BDE8F08165
:102C800052950108CE40000830B5802807DA612847
:102C900023DB7A2821DCA0F12005A8B21DE00C225C
:102CA00000234FF4F77400BFE51A03EB55010B4DF9
:102CB00035F81150854200D10AE0084D35F8115021
:102CC000854201DA0B4600E00C46551E2A1EEBD168
:102CD00000BF12B1024D35F8110030BDD6E902082F
:102CE000B2ED02081CB52F492FA0FFF7B8FD3449FB
:102CF000087008460078002851D132A0FDF7F6FF91
:102D00002848016838A0FDF7F1FF2648C088C0F3C5
:102D100045102449C988C912CDE90010214800791D
:102D200000F01F031F488088C0F343121D488088AD
:102D300040F2BC7404EB602133A0FDF7D7FF1948C3
:102D4000007A00F0200008B1412000E02D20154954
:102D5000097A01F0040109B1532100E02D21CDE9E8
:102D600000101048007A00F0020008B1482000E08E
:102D70002D2003460B48007A00F0010008B15220D4
:102D800000E02D2002460748007A00F0100008B14C
:102D9000442000E02D20014625A0FDF7A7FF0848AC
:102DA00000781CBDE4220020313A546573744469F4
:102DB000722F746573746469722E747874000000E5
:102DC00010000020E2809C746573746469722E7434
:102DD0007874E2809DE69687E4BBB6E4BFA1E68105
:102DE000AFEFBC9A0A000000E3808BE69687E4BB55
:102DF000B6E5A4A7E5B08F3A20256C6428E5AD9729
:102E0000E88A82290A000000E3808BE697B6E997FA
:102E1000B4E688B33A2025752F253032752F25303A
:102E200032752C20253032753A253032750A000073
:102E3000E3808BE5B19EE680A73A202563256325D4
:102E400063256325630A0A002DE9F74F8AB0002144
:102E50000A9801600B9800F00FFC0990099800286F
:102E600003DA0B200DB0BDE8F08FE949099851F85D
:102E700020400CB90C20F5E70A980460207878B15E
:102E80006078FEF78FFE814609F0010040B90C988A
:102E900020B109F0040008B10A20E3E70020E1E7CF
:102EA00000202070099860706078FEF71EFE814651
:102EB00009F0010008B10320D4E70C9820B109F013
:102EC000040008B10A20CDE7607804F10A0202216B
:102ED000FEF728FE38B96089B0F5007F03DB608912
:102EE000B0F5805F01DD0120BCE7002739462046B0
:102EF000FEF7D6F80546012D01D09DBB32E0002635
:102F00001AE004F5F77000EB061898F8040070B1A9
:102F100098F80B00010698F80A0041EA004198F879
:102F2000090041EA002098F80810084300E000205A
:102F300002A941F82600761C042EE2D3002606B131
:102F4000761E00BF02A850F8267027B139462046E9
:102F5000FEF7A6F800E0022005461DB1701C0646EB
:102F60000428EFD3032D01D101207BE70DB10D2003
:102F700078E73B20015D94F83C0041EA002061893C
:102F8000884201D00D206DE74620015D94F847008E
:102F900041EA002ABAF1000F0ED194F85700010659
:102FA00094F8560041EA004194F8550041EA0020A7
:102FB00094F8541040EA010AC4F818A04020005DBB
:102FC000E070E078012804D0E078022801D00D20DC
:102FD00048E7E0780AFB00FA3D20005DA070A07889
:102FE00018B1A078411E084008B10D203AE74120F1
:102FF000015D94F8420041EA002020816089C117F8
:1030000000EBD1614911228992FBF1F301FB1321FD
:1030100009B10D2026E74320015D94F8440041EA00
:1030200000200890089870B994F85300010694F8AD
:10303000520041EA004194F8510041EA002094F81E
:103040005010084308903E20015D94F83F0041EA8B
:1030500000200190019808B90D2003E76089C1178D
:1030600000EBD1614911228992FBF1F2019951449F
:1030700011440791DDE90710884201D20D20F1E6E5
:10308000DDE90710401AA178B0FBF1FBBBF1000F9E
:1030900001D10D20E6E6012540F6F670834500D308
:1030A00002254FF6F670834500D303250BF102008D
:1030B0006061E76101983844206207983844A06253
:1030C000032D16D1208908B10D20CBE694F85F00BE
:1030D000010694F85E0041EA004194F85D0041EA7F
:1030E000002094F85C1008436062606980000690DC
:1030F00014E0208908B90D20B4E6206A50446062CB
:10310000022D02D16069400007E0207D00F001003F
:10311000616901EB410100EB510006906089401E9E
:10312000069908446189B0FBF1F0A169884201D990
:103130000D2097E64FF0FF302061E0608020607145
:10314000032D5AD194F8601094F8610041EA0020F0
:10315000012852D1791C204600F01AFDE8BB00205E
:10316000607194F82E1294F82F0241EA00204AF67A
:103170005521884241D13320005D01063220005D97
:1031800041EA00413120005D41EA002094F830100E
:1031900008432049884230D194F81702010694F878
:1031A000160241EA004194F8150241EA002094F821
:1031B00014120843184988421FD194F81B020106D3
:1031C00094F81A0241EA004194F8190241EA0020F9
:1031D00094F818120843206100E00EE094F81F02F2
:1031E000010694F81E0241EA004194F81D0241EAEA
:1031F000002094F81C120843E060257007480088FE
:10320000401C80B205490880E08000202AE60000CA
:103210001C00002052526141727241612400002062
:10322000F0B504461D464D730F27CF7200270F736C
:103230008F76BC4681F81BC0571E07EB870C0CEB42
:10324000C706002738463B4600BF4FF6FF77B84217
:1032500003D03746761C34F81700DFF840C01CF85E
:1032600003C001F80C000712DFF830C01CF803C0DF
:103270008C448CF8017008B94FF6FF705F1C3B4618
:103280000D2FE2D34FF6FF77B84202D034F8167014
:103290000FB942F040020A70F0BD000094400008EF
:1032A0002DE9F3410446019800782F2803D00198B6
:1032B00000785C2802D10198401C01900020A06099
:1032C00001980078202807D200212046FEF7A9FBAC
:1032D00005460020606128E000BF01A92046FDF7F7
:1032E000FBFF054605B11FE02046FEF75BF90546EA
:1032F000A069C67A3DB1042D04D100BF06F00400D8
:1033000000B9052510E006F0040000B10CE0676983
:10331000F87A00F0100008B9052505E03946206864
:1033200000F0CFF9A060D8E700BF2846BDE8FC81D7
:1033300070B504460D46E1B20548FDF7D1FC00BF6B
:1033400080210348FDF754FC0028F9D0204670BDC9
:10335000001001402DE9FF4F83B0074691461E46FD
:103360000B223846049900F0BAFA052E19D9B04656
:1033700012E039F802BB00250CE0584668F35F0004
:1033800080464FEA6B0B08F4803010B1234888EA7E
:1033900000086D1C102DF0D3B9F800000028E8D10A
:1033A0004646072500BF06F00F0000F1300ABAF1CB
:1033B000390F03DD0AF1070000F0FF0A28466D1EF1
:1033C00001A901F800A03609002EECD17E20485555
:1033D00000240BE0385D812807DB385DFE2804DC23
:1033E000681EA04200D106E0641C641CAC4202D2FC
:1033F000385D2028EED100BF00BF082D04D228463A
:103400006D1C01A9095C00E020212046641C395490
:10341000082CF2D307B0BDE8F08F000021100100A6
:103420002DE9F05F04460D46022D02D36069A842E3
:1034300002D84FF001098FE04FF0FF3920780128C2
:1034400004D002283CD003287ED157E02F4607EB5A
:1034500057076089B7FBF0F0216A00EB010A51467B
:10346000204600F095FB00B175E038467F1C61896D
:10347000B0FBF1F201FB120104F1300010F8018001
:103480006089B7FBF0F0216A00EB010A5146204643
:1034900000F07EFB00B15EE06089B7FBF0F100FB5D
:1034A000117104F13000405C48EA002805F0010089
:1034B00010B14FEA181001E0C8F30B0081464AE052
:1034C000B4F80AA00AEBDA704010B5FBF0F0216AFC
:1034D00000EB010B5946204600F05AFB00B13AE0E0
:1034E00068006189B0FBF1F201FB120104F13000C8
:1034F0000E183078717840EA01292CE0B4F80AA05F
:103500004FEAEA700AEB90708010B5FBF0F0216A88
:1035100000EB010B5946204600F03AFB00B11AE0DF
:10352000A8006189B0FBF1F201FB120104F1300047
:103530000E18F0780006B17840EA0140717840EA50
:1035400001203178084300E002E020F0704902E0F9
:103550004FF0010900BF00BF4846BDE8F09F0000E2
:1035600000487047000021462DE9F05F80460D4677
:1035700005F10907D8F81000002843D0D8F8144006
:10358000002626E03046761C14F80090B9F1200F92
:1035900000D11EE0B9F1050F01D14FF0E509092E68
:1035A00002D12E2007F8010BB9F1410F0EDBB9F162
:1035B0005A0F0BDC207B092E01D3102100E00821DB
:1035C000084018B109F1200000F0FF0907F8019B3D
:1035D00000BF0B2ED6D3E07A2872E07F0106A07FD1
:1035E00041EA0041607F41EA0020217F08432860D2
:1035F000217E607E41EA0020A880A17DE07D41EA35
:103600000020E88000203870A86998B30026AF69D0
:10361000D8F8100060B3E86950B3B8F820004FF64E
:10362000FF71884224D0D8F81CB01BE0002150461E
:10363000FFF7ECFA8246BAF1000F01D1002616E03E
:10364000BAF1FF0F04DD4FEA2A223046761C3A54C5
:10365000E869401EB04201D8002608E03046761CDA
:1036600007F800A03BF8021BB1F1000ADED100BF51
:103670000020B855BDE8F09F70B502464FF0FF300E
:103680001568E5B1116800E0491C0D78202D02D3C2
:103690000D783A2DF8D10D783A2D0FD1146814F821
:1036A000015BA5F130030A2B07D28C4205D1022B16
:1036B00003D218464D1C2946156070BD002000BF7E
:1036C000FBE710B502468C7ECB7E44EA03201378DC
:1036D000032B05D10C7D4B7D44EA032340EA0340D4
:1036E00010BD0000FCF7BCFD1BA0FDF7FFFA012296
:1036F00028A12948FEF7B2FC28490870084600783E
:10370000002809D00846017825A0FDF7EFFA31A07E
:10371000FDF7ECFA00BFFEE73CA0FDF7E7FA00F08A
:10372000F5F81E49087046A0FDF7E0FAFFF7DAFA4F
:103730001A49087051A0FDF7D9FA16A15D48FCF7A7
:103740005AFD5C4800F09AFB012212A10020FEF70E
:1037500085FC00BFFEE700002A2A2A2A2A2A2A2AF4
:1037600020E8BF99E698AFE4B880E4B8AA5350497E
:1037700020464C41534820E69687E4BBB6E7B3BBEE
:10378000E7BB9FE5AE9EE9AA8C202A2A2A2A2A2A8C
:103790002A0D0A00313A00002C0000201000002001
:1037A000EFBC81EFBC81E5A496E983A8466C617308
:1037B00068E68C82E8BDBDE69687E4BBB6E7B3BB9E
:1037C000E7BB9FE5A4B1E8B4A5E38082282564297E
:1037D0000D0A0000EFBC81EFBC81E58FAFE883BD2F
:1037E000E58E9FE59BA0EFBC9A53504920466C6143
:1037F0007368E5889DE5A78BE58C96E4B88DE6882F
:1038000090E58A9FE380820D0A000000E3808BE64A
:103810009687E4BBB6E7B3BBE7BB9FE68C82E8BD07
:10382000BDE68890E58A9FEFBC8CE58FAFE4BBA531
:10383000E8BF9BE8A18CE6B58BE8AF950D0A0000C8
:103840000A2A2A2A2A2A2A2A2A2A2A2A2A2A2A2AF8
:1038500020E69687E4BBB6E4BFA1E681AFE88EB769
:10386000E58F96E6B58BE8AF95202A2A2A2A2A2AE0
:103870002A2A2A2A2A2A2A2A0D0A00002A2A2A2A39
:103880002A2A2A2A2A2A2A2A2A2A2A2A2A20E6967A
:1038900087E4BBB6E689ABE68F8FE6B58BE8AF95DC
:1038A000202A2A2A2A2A2A2A2A2A2A2A2A2A2A2A82
:1038B0002A0D0A0080200020F0B503461C460D4664
:1038C000002000BF161EA2F1010207D014F8017BF0
:1038D00015F801CBA7EB0C06301EF3D0F0BD70B588
:1038E00003460C4603E014F8015B03F8015B151E68
:1038F000A2F10102F7D170BD30B5034601E003F833
:10390000011B141EA2F10102F9D130BD30B58BB0FC
:1039100042A0FDF7EBF901AA69464EA0FEF79CF91B
:103920004D49087001984069801E0199897800FB13
:1039300001F501988078009900FB01F4A200A9002C
:103940004648FDF7D3F946A0FDF7D0F9132254A15C
:103950005B48FEF7B1FB4049087008460078002834
:103960004FD15748C168FEF7F8F93B49087008463F
:10397000007800281ED153A15148FEF797FCA30000
:10398000AA0036494E48FEF791FC00214C48FEF74C
:10399000E4F9314908704A48544B5549C268FEF76A
:1039A000BFFD2D4908700846007818B9504951A04C
:1039B000FDF79CF94248FEF734F954A0FDF796F95B
:1039C00062A102A8FEF737FC234908700846007878
:1039D00028B15EA0FEF78EFA1F49087007E002A822
:1039E000FEF72FF91C4908705BA0FEF7B2FF1A48DA
:1039F000007870B958A12AA0FEF7ACFE16490870ED
:103A000007E0154801785AA0FDF770F95F48FDF707
:103A10006DF9114800780BB030BD00000A2A2A2A3F
:103A20002A2A2A2A2A2A2A2A2A2A2A2A20E8AEBE2A
:103A3000E5A487E4BFA1E681AFE88EB7E58F9620C5
:103A40002A2A2A2A2A2A2A2A2A2A2A2A2A2A2A0DF3
:103A50000A000000313A00001000002090F1020836
:103A60000A2A2A2A2A2A2A2A2A20E69687E4BBB684
:103A7000E5AE9AE4BD8DE5928CE6A0BCE5BC8FE591
:103A80008C96E58699E585A5E58A9FE883BDE6B530
:103A90008BE8AF95202A2A2A2A2A2A2A2A0D0A00E8
:103AA000313A4661744673E8AFBBE58699E6B58B5B
:103AB000E8AF95E69687E4BBB62E747874000000F4
:103AC0005C1000200AE59CA8E58E9FE69DA5E69681
:103AD00087E4BBB6E696B0E6B7BBE58AA0E4B8805B
:103AE000E8A18CE58685E5AEB90A00001400002047
:103AF000E4200020E3808BE69687E4BBB6E586856C
:103B0000E5AEB9EFBC9A0A25730A00000A2A2A2AF0
:103B10002A2A2A2A2A2A2A20E79BAEE5BD95E5888B
:103B20009BE5BBBAE5928CE9878DE591BDE5908D6B
:103B3000E58A9FE883BDE6B58BE8AF95202A2A2A5F
:103B40002A2A2A2A2A2A2A0D0A000000313A546514
:103B50007374446972000000313A546573744469A7
:103B6000722F746573746469722E74787400000027
:103B7000212120E68993E5BC80E69687E4BBB6E583
:103B8000A4B1E8B4A5EFBC9A25640A00D4F10208F8
:103B900070B504460D460026E06AA84210D02046C3
:103BA00000F036FA06465EB9607801232A4604F131
:103BB0003001FDF7D8FF10B14FF0FF350126E56267
:103BC000304670BDF0B504468F7EC87E47EA0020BF
:103BD00008B10020F0BD087800F03F00401E00EB67
:103BE000800707EBC002012600231AE01448C05CDE
:103BF000085C134FFF5C0F447F7840EA07254EB105
:103C0000FF2A01D30020E5E72E461046521C24F877
:103C1000105005E04FF6FF70854201D00020D9E733
:103C20005B1C0D2BE2D3087800F0400030B1FF2A76
:103C300001D30020CEE7002024F812000120C9E7BC
:103C4000944000082DE9F05F04460E461746022E08
:103C500002D36069B04202D84FF00208B3E0207886
:103C6000012804D0022852D0032872D172E0B14654
:103C700009EB59096089B9FBF0F0216A00EB010AF0
:103C800051462046FFF784FF8046B8F1000F00D070
:103C900098E0484609F101096189B0FBF1F201FBA6
:103CA000120104F130000D1806F0010020B1F9B244
:103CB000287861F31F1000E0384628700120207139
:103CC0006089B9FBF0F0216A00EB010A51462046F9
:103CD000FFF75EFF8046B8F1000F00D072E0608908
:103CE000B9FBF0F100FB119104F130000D1806F062
:103CF000010010B1C7F3071005E0287800F0F000CC
:103D0000C7F3032108432870012020715AE0B4F85A
:103D10000AA00AEBDA704010B6FBF0F0216A00EB63
:103D2000010B59462046FFF733FF8046B8F1000FDC
:103D300000D047E070006189B0FBF1F201FB120195
:103D400004F130000D182F70380A687001202071BE
:103D500038E034E0B4F80AA04FEAEA700AEB907059
:103D60008010B6FBF0F0216A00EB010B59462046AB
:103D7000FFF70EFF8046B8F1000F00D022E0B00040
:103D80006189B0FBF1F201FB120104F130000D1862
:103D9000E8780006A97840EA0140697840EA012005
:103DA0002978084300F0704007432F70380A687084
:103DB000380CA870380EE8700120207102E04FF036
:103DC000020800BF00BF4046BDE8F09FF8B50446BA
:103DD0000E4600BF6568002D00DAF8BD28466D1C50
:103DE00004F10C010E543D2D0CDB6B462A46206875
:103DF000FEF706FE0098A84201D1002001E04FF036
:103E0000FF3005466560A068401CA06000BFE4E785
:103E10002DE9F04104460E46022E02D36069B042FD
:103E200001D8022727E0002721E031462046FFF78E
:103E3000F7FA054605B91DE0012D01D1022719E069
:103E4000681C08B9012715E0002231462046FFF71B
:103E5000F9FE074607B10DE02069401C30B120692A
:103E6000401C2061607940F0010060712E4660695D
:103E7000B042DAD800BF3846BDE8F081F0B591B065
:103E8000044621480F9040F2FF10109021466846EA
:103E9000FEF7D1F90546002D33D12046FCF7A4F9F1
:103EA000064600BF09A96846FEF722FC054615B97B
:103EB0009DF82D0000B923E00F98007808B10F9805
:103EC00001E00DF12D00074638782E2800D1E9E7F2
:103ED0009DF82C0000F0100060B1A0193A460BA12B
:103EE000FCF714FF2046FFF7C9FF05460020A05548
:103EF0002DB105E03A46214605A0FCF7F7FED1E7D3
:103F000000BF284611B0F0BD042300202F25730008
:103F100025732F25730D0A0081760B0AC3760A0CD0
:103F200002750B0E4375704730B5014600200B2219
:103F300000BF431003EBC01411F8015B6319D8B242
:103F4000531E1A1EF5D130BD70B50446204600F050
:103F50005FF80546002D59D1207803284FD16079AC
:103F600001284CD16289002104F13000FFF7C4FC24
:103F7000552184F82E12AA2184F82F12522084F899
:103F8000300052213120015561213220015541215B
:103F900033200155722184F8141284F8151241213E
:103FA00084F81612612184F81712217C84F8181203
:103FB000208A010A84F819122069010C84F81A1267
:103FC0002069010E84F81B12217B84F81C12A08941
:103FD000010A84F81D12E068010C84F81E12E068E2
:103FE000010E84F81F12E069401CE0626078012332
:103FF00004F13001E26AFDF7EFFD002060716078A6
:1040000000221146FDF78EFD00B10125284670BD46
:104010002DE9F041044600272079F8B1E56A60787F
:1040200001232A4604F13001FDF7D6FD08B101272E
:1040300014E000202071206A281AA16988420DD25C
:10404000E67809E0A0690544607801232A4604F176
:104050003001FDF7C1FD761E022EF3D23846BDE8D1
:10406000F08170B505462C4684B1206870B1206897
:10407000007858B12068C088A188884206D121689C
:104080004878FDF78FFD00F0010008B1092070BDF0
:104090000020FCE701030507090E10121416181C76
:1040A0001E000004000200018000400020001000FB
:1040B0000800040002000000008000400020001002
:1040C0000008004000200010000800040002A400C6
:1040D000E8A1A700ECA1A800A7A1B000E3A1B1004E
:1040E000C0A1B700A4A1D700C1A1E000A4A8E1002D
:1040F000A2A8E800A8A8E900A6A8EA00BAA8EC00CF
:10410000ACA8ED00AAA8F200B0A8F300AEA8F70092
:10411000C2A1F900B4A8FA00B2A8FC00B9A8010134
:10412000A1A81301A5A81B01A7A82B01A9A84401B8
:10413000BDA84801BEA84D01ADA86B01B1A8CE0134
:10414000A3A8D001ABA8D201AFA8D401B3A8D601CF
:10415000B5A8D801B6A8DA01B7A8DC01B8A8510201
:10416000BBA86102C0A8C702A6A1C902A5A1CA0234
:1041700040A8CB0241A8D90242A89103A1A692036C
:10418000A2A69303A3A69403A4A69503A5A69603AB
:10419000A6A69703A7A69803A8A69903A9A69A037B
:1041A000AAA69B03ABA69C03ACA69D03ADA69E034B
:1041B000AEA69F03AFA6A003B0A6A103B1A6A3031A
:1041C000B2A6A403B3A6A503B4A6A603B5A6A703E7
:1041D000B6A6A803B7A6A903B8A6B103C1A6B203A1
:1041E000C2A6B303C3A6B403C4A6B503C5A6B6034B
:1041F000C6A6B703C7A6B803C8A6B903C9A6BA031B
:10420000CAA6BB03CBA6BC03CCA6BD03CDA6BE03EA
:10421000CEA6BF03CFA6C003D0A6C103D1A6C303B9
:10422000D2A6C403D3A6C503D4A6C603D5A6C70386
:10423000D6A6C803D7A6C903D8A60104A7A7100409
:10424000A1A71104A2A71204A3A71304A4A71404EE
:10425000A5A71504A6A71604A8A71704A9A71804BC
:10426000AAA71904ABA71A04ACA71B04ADA71C048A
:10427000AEA71D04AFA71E04B0A71F04B1A720045A
:10428000B2A72104B3A72204B4A72304B5A724042A
:10429000B6A72504B7A72604B8A72704B9A72804FA
:1042A000BAA72904BBA72A04BCA72B04BDA72C04CA
:1042B000BEA72D04BFA72E04C0A72F04C1A730049A
:1042C000D1A73104D2A73204D3A73304D4A734042E
:1042D000D5A73504D6A73604D8A73704D9A73804FC
:1042E000DAA73904DBA73A04DCA73B04DDA73C04CA
:1042F000DEA73D04DFA73E04E0A73F04E1A740049A
:10430000E2A74104E3A74204E4A74304E5A7440469
:10431000E6A74504E7A74604E8A74704E9A7480439
:10432000EAA74904EBA74A04ECA74B04EDA74C0409
:10433000EEA74D04EFA74E04F0A74F04F1A75104D8
:10434000D7A710205CA9132043A81420AAA11520E8
:1043500044A81620ACA11820AEA11920AFA11C20A2
:10436000B0A11D20B1A1252045A82620ADA1302057
:10437000EBA13220E4A13320E5A1352046A83B2063
:10438000F9A1AC2080000321E6A1052147A809215D
:1043900048A81621EDA1212159A96021F1A261218E
:1043A000F2A26221F3A26321F4A26421F5A26521A5
:1043B000F6A26621F7A26721F8A26821F9A2692175
:1043C000FAA26A21FBA26B21FCA27021A1A2712199
:1043D000A2A27221A3A27321A4A27421A5A2752175
:1043E000A6A27621A7A27721A8A27821A9A2792145
:1043F000AAA29021FBA19121FCA19221FAA19321D3
:10440000FDA1962149A897214AA898214BA8992156
:104410004CA80822CAA10F22C7A11122C6A11522A9
:104420004DA81A22CCA11D22D8A11E22DEA11F2236
:104430004EA82022CFA123224FA82522CEA1272299
:10444000C4A12822C5A12922C9A12A22C8A12B22A0
:10445000D2A12E22D3A13422E0A13522DFA136221F
:10446000C3A13722CBA13D22D7A14822D6A14C22FD
:10447000D5A1522250A86022D9A16122D4A16422E0
:10448000DCA16522DDA1662251A8672252A86E2216
:10449000DAA16F22DBA1952292A89922D1A1A522AF
:1044A000CDA1BF2253A81223D0A16024D9A2612498
:1044B000DAA26224DBA26324DCA26424DDA26524E8
:1044C000DEA26624DFA26724E0A26824E1A26924B8
:1044D000E2A27424C5A27524C6A27624C7A27724BA
:1044E000C8A27824C9A27924CAA27A24CBA27B24A8
:1044F000CCA27C24CDA27D24CEA27E24CFA27F2478
:10450000D0A28024D1A28124D2A28224D3A2832447
:10451000D4A28424D5A28524D6A28624D7A2872417
:10452000D8A28824B1A28924B2A28A24B3A28B245F
:10453000B4A28C24B5A28D24B6A28E24B7A28F2457
:10454000B8A29024B9A29124BAA29224BBA2932427
:10455000BCA29424BDA29524BEA29624BFA29724F7
:10456000C0A29824C1A29924C2A29A24C3A29B24C7
:10457000C4A20025A4A90125A5A90225A6A9032551
:10458000A7A90425A8A90525A9A90625AAA907253B
:10459000ABA90825ACA90925ADA90A25AEA90B250B
:1045A000AFA90C25B0A90D25B1A90E25B2A90F25DB
:1045B000B3A91025B4A91125B5A91225B6A91325AB
:1045C000B7A91425B8A91525B9A91625BAA917257B
:1045D000BBA91825BCA91925BDA91A25BEA91B254B
:1045E000BFA91C25C0A91D25C1A91E25C2A91F251B
:1045F000C3A92025C4A92125C5A92225C6A92325EB
:10460000C7A92425C8A92525C9A92625CAA92725BA
:10461000CBA92825CCA92925CDA92A25CEA92B258A
:10462000CFA92C25D0A92D25D1A92E25D2A92F255A
:10463000D3A93025D4A93125D5A93225D6A933252A
:10464000D7A93425D8A93525D9A93625DAA93725FA
:10465000DBA93825DCA93925DDA93A25DEA93B25CA
:10466000DFA93C25E0A93D25E1A93E25E2A93F259A
:10467000E3A94025E4A94125E5A94225E6A943256A
:10468000E7A94425E8A94525E9A94625EAA947253A
:10469000EBA94825ECA94925EDA94A25EEA94B250A
:1046A000EFA9502554A8512555A8522556A85325A1
:1046B00057A8542558A8552559A856255AA857250E
:1046C0005BA858255CA859255DA85A255EA85B25DE
:1046D0005FA85C2560A85D2561A85E2562A85F25AE
:1046E00063A8602564A8612565A8622566A863257E
:1046F00067A8642568A8652569A866256AA867254E
:104700006BA868256CA869256DA86A256EA86B251D
:104710006FA86C2570A86D2571A86E2572A86F25ED
:1047200073A8702574A8712575A8722576A87325BD
:1047300077A8812578A8822579A883257AA8842559
:104740007BA885257CA886257DA887257EA8882529
:1047500080A8892581A88A2582A88B2583A88C25F5
:1047600084A88D2585A88E2586A88F2587A89325C2
:1047700088A8942589A895258AA8A025F6A1A12511
:10478000F5A1B225F8A1B325F7A1BC258BA8BD25BD
:104790008CA8C625F4A1C725F3A1CB25F0A1CE2571
:1047A000F2A1CF25F1A1E2258DA8E3258EA8E4256D
:1047B0008FA8E52590A80526EFA10626EEA10926DB
:1047C00091A84026E2A14226E1A10030A1A101303A
:1047D000A2A10230A3A10330A8A10530A9A10630EF
:1047E00065A9073096A90830B4A10930B5A10A30EF
:1047F000B6A10B30B7A10C30B8A10D30B9A10E3065
:10480000BAA10F30BBA11030BEA11130BFA1123030
:1048100093A81330FEA11430B2A11530B3A1163005
:10482000BCA11730BDA11D3094A81E3095A8213021
:1048300040A9223041A9233042A9243043A9253080
:1048400044A9263045A9273046A9283047A9293050
:1048500048A94130A1A44230A2A44330A3A44430CB
:10486000A4A44530A5A44630A6A44730A7A4483048
:10487000A8A44930A9A44A30AAA44B30ABA44C3018
:10488000ACA44D30ADA44E30AEA44F30AFA45030E8
:10489000B0A45130B1A45230B2A45330B3A45430B8
:1048A000B4A45530B5A45630B6A45730B7A4583088
:1048B000B8A45930B9A45A30BAA45B30BBA45C3058
:1048C000BCA45D30BDA45E30BEA45F30BFA4603028
:1048D000C0A46130C1A46230C2A46330C3A46430F8
:1048E000C4A46530C5A46630C6A46730C7A46830C8
:1048F000C8A46930C9A46A30CAA46B30CBA46C3098
:10490000CCA46D30CDA46E30CEA46F30CFA4703067
:10491000D0A47130D1A47230D2A47330D3A4743037
:10492000D4A47530D5A47630D6A47730D7A4783007
:10493000D8A47930D9A47A30DAA47B30DBA47C30D7
:10494000DCA47D30DDA47E30DEA47F30DFA48030A7
:10495000E0A48130E1A48230E2A48330E3A4843077
:10496000E4A48530E5A48630E6A48730E7A4883047
:10497000E8A48930E9A48A30EAA48B30EBA48C3017
:10498000ECA48D30EDA48E30EEA48F30EFA49030E7
:10499000F0A49130F1A49230F2A49330F3A49B30B0
:1049A00061A99C3062A99D3066A99E3067A9A1309B
:1049B000A1A5A230A2A5A330A3A5A430A4A5A5308B
:1049C000A5A5A630A6A5A730A7A5A830A8A5A9305B
:1049D000A9A5AA30AAA5AB30ABA5AC30ACA5AD302B
:1049E000ADA5AE30AEA5AF30AFA5B030B0A5B130FB
:1049F000B1A5B230B2A5B330B3A5B430B4A5B530CB
:104A0000B5A5B630B6A5B730B7A5B830B8A5B9309A
:104A1000B9A5BA30BAA5BB30BBA5BC30BCA5BD306A
:104A2000BDA5BE30BEA5BF30BFA5C030C0A5C1303A
:104A3000C1A5C230C2A5C330C3A5C430C4A5C5300A
:104A4000C5A5C630C6A5C730C7A5C830C8A5C930DA
:104A5000C9A5CA30CAA5CB30CBA5CC30CCA5CD30AA
:104A6000CDA5CE30CEA5CF30CFA5D030D0A5D1307A
:104A7000D1A5D230D2A5D330D3A5D430D4A5D5304A
:104A8000D5A5D630D6A5D730D7A5D830D8A5D9301A
:104A9000D9A5DA30DAA5DB30DBA5DC30DCA5DD30EA
:104AA000DDA5DE30DEA5DF30DFA5E030E0A5E130BA
:104AB000E1A5E230E2A5E330E3A5E430E4A5E5308A
:104AC000E5A5E630E6A5E730E7A5E830E8A5E9305A
:104AD000E9A5EA30EAA5EB30EBA5EC30ECA5ED302A
:104AE000EDA5EE30EEA5EF30EFA5F030F0A5F130FA
:104AF000F1A5F230F2A5F330F3A5F430F4A5F530CA
:104B0000F5A5F630F6A5FC3060A9FD3063A9FE30AE
:104B100064A90531C5A80631C6A80731C7A8083160
:104B2000C8A80931C9A80A31CAA80B31CBA80C31D1
:104B3000CCA80D31CDA80E31CEA80F31CFA81031A1
:104B4000D0A81131D1A81231D2A81331D3A8143171
:104B5000D4A81531D5A81631D6A81731D7A8183141
:104B6000D8A81931D9A81A31DAA81B31DBA81C3111
:104B7000DCA81D31DDA81E31DEA81F31DFA82031E1
:104B8000E0A82131E1A82231E2A82331E3A82431B1
:104B9000E4A82531E5A82631E6A82731E7A8283181
:104BA000E8A82931E9A82032E5A22132E6A2223282
:104BB000E7A22332E8A22432E9A22532EAA2263271
:104BC000EBA22732ECA22832EDA22932EEA231323A
:104BD0005AA9A33249A98E334AA98F334BA99C33D2
:104BE0004CA99D334DA99E334EA9A1334FA9C4337F
:104BF00050A9CE3351A9D13352A9D23353A9D533B9
:104C000054A9004EBBD2014EA1B6024E4081034EC4
:104C1000DFC6044E4181054E4281064E4381074E58
:104C2000F2CD084EC9D5094EFDC80A4ECFC90B4E6C
:104C3000C2CF0C4EA2D80D4EBBB20E4EEBD30F4ED0
:104C40004481104EA4D8114EF3B3124E4581134E39
:104C5000A8D7144ED2C7154EA7D8164EC0CA174EA5
:104C60004681184EF0C7194EFBB11A4EB5D21B4EF5
:104C7000D4B41C4EABB61D4EBFCB1E4EA9D81F4E92
:104C80004781204E4881214E4981224EAAB6234EAB
:104C90004A81244EBDC1254ECFD1264E4B81274E91
:104CA000A5C9284EADD8294E4C812A4EF6B82B4EB8
:104CB000BED12C4EDCE32D4ED0D62E4E4D812F4E44
:104CC0004E81304EE1B7314E4F81324EAEB4334E4D
:104CD0005081344ED9C1354E5181364EBCD8374EF5
:104CE0005281384EE8CD394EA4B53A4EAACE3B4E4D
:104CF000F7D63C4E53813D4EF6C03E4ED9BE3F4E98
:104D0000AFD8404E5481414E5581424E5681434E5C
:104D1000CBC4444E5781454EC3BE464E5881474E84
:104D2000B1D8484EB4C3494EE5D24A4E59814B4E94
:104D3000AED64C4EDACE4D4EA7D54E4EF5BA4F4EAE
:104D4000A6B7504ED6C0514E5A81524EB9C6534E98
:104D5000D2C5544EC7C7554E5B81564ED4B9574E37
:104D60005C81584ECBB3594ED2D25A4E5D815B4EC8
:104D70005E815C4EBFD85D4EC5BE5E4EF2C65F4ED4
:104D8000B2D2604EB0CF614EE7CF624E5F81634ECC
:104D90006081644E6181654E6281664EE9CA674EEC
:104DA0006381684E6481694EC0D86A4E65816B4EDE
:104DB00066816C4E67816D4E68816E4E69816F4E63
:104DC0006A81704EF2C2714ED2C2724E6B81734EC6
:104DD000E9C8744E6C81754E6D81764E6E81774E4A
:104DE0006F81784E7081794E71817A4E72817B4EDF
:104DF00073817C4E74817D4E75817E4EACC77F4E33
:104E00007681804E7781814E7881824E7981834E82
:104E10007A81844E7B81854E7C81864ECBC1874EC4
:104E20007D81884EE8D3894EF9D58A4E7E818B4E9E
:104E3000C2CA8C4EFEB68D4EA1D88E4EDAD38F4E9E
:104E4000F7BF904E8081914EC6D4924EA5BB934E33
:104E5000C1D8944EE5CE954EAEBE964E8181974E0A
:104E60008281984EA8D8994E83819A4EC7D19B4E85
:104E7000A9D09C4E84819D4E85819E4E86819F4EF9
:104E8000BDD8A04EEFD9A14EF6CDA24EBABFA34ECB
:104E90008781A44EBBBDA54EA5BAA64EE0D2A74EB3
:104EA000FAB2A84EE0BAA94EB6C4AA4E8881AB4E5B
:104EB000EDCFAC4EA9BEAD4EA4CDAE4EC1C1AF4EEE
:104EC0008981B04E8A81B14E8B81B24ED7C7B34E25
:104ED000F1D9B44E8C81B54EF4D9B64E8D81B74E12
:104EE0008E81B84E8F81B94E9081BA4ECBC8BB4EE1
:104EF000E9D8BC4E9181BD4E9281BE4E9381BF4E8A
:104F0000DAD2C04EB2CAC14ECAC8C24EECD8C34EE5
:104F1000EAD8C44EC6D8C54EF6BDC64ECDC6C74E9D
:104F2000F0B3C84E9481C94EEBD8CA4EF1BDCB4EFA
:104F3000E9BDCC4E9581CD4ED4C8CE4ED3B4CF4E24
:104F40009681D04E9781D14ED8C2D24E9881D34E01
:104F5000D6B2D44ED0D7D54ECBCAD64EFBCBD74E39
:104F6000CCD5D84EB6B8D94EC9CFDA4E9981DB4EE2
:104F70009A81DC4E9B81DD4EDAD9DE4EF0D8DF4ED1
:104F8000AAC7E04E9C81E14EEED8E24E9D81E34EF1
:104F9000FAB4E44EEEC1E54ED4D2E64E9E81E74E21
:104FA0009F81E84EEDD8E94EA081EA4EC7D2EB4E84
:104FB000EFD8EC4EC7C3ED4EA181EE4EA281EF4E6D
:104FC000A381F04EF6D1F14EA481F24ED9D6F34E24
:104FD000F2D8F44EA581F54EF5D8F64EFEBCF74E4C
:104FE000DBBCF84EA681F94EA781FA4EA881FB4E94
:104FF000CEC8FC4EA981FD4EDDB7FE4EAA81FF4E04
:10500000C2B7004FAB81014FF3C6024FAC81034FD3
:10501000AD81044FAE81054FAF81064FB081074F80
:10502000B181084FB281094FF8D80A4FC1D20B4F56
:10503000B3810C4FB4810D4FE9CE0E4FBFBC0F4F63
:10504000FCB7104FA5B7114FDDD0124FB581134FEC
:10505000B681144FB781154FB881164FB981174FDC
:10506000DAD6184FC5D3194FEFBB1A4FE1BB1B4F10
:10507000F1D81C4FBA811D4FBB811E4FA1C91F4FD4
:10508000B0CE204FABB4214FBC81224FF3D8234F79
:10509000BD81244FCBC9254FF6D8264FD7C2274F05
:1050A000F7D8284FBE81294FBF812A4FB1CE2B4F51
:1050B000F9D82C4FC0812D4FC1812E4FC2812F4F67
:1050C000AEB2304FC0B9314FC381324FA3D9334F45
:1050D000C481344FE9B0354FC581364FE6C1374FF3
:1050E000C681384FECC9394FC7813A4FC5CB3B4FCA
:1050F000C8813C4FC6CB3D4FA4D93E4FC9813F4FDD
:10510000CA81404FCB81414FCC81424FCD81434F2B
:10511000E8B5444FCE81454FCF81464FABB5474FA1
:10512000D081484FD181494FD2814A4FD3814B4FD3
:10513000D4814C4FD5814D4FBBCE4E4FCDB54F4F47
:10514000A1D7504FF4D7514FD3D3524FD681534F9D
:10515000E5CC544FD781554FCEBA564FD881574FD3
:10516000A2D9584FDCD9594FE0D35A4FFDD85B4FE5
:10517000F0B75C4FF7D75D4FFED85E4FFAD85F4F60
:10518000A1D9604FE3C4614FD981624FDA81634F87
:10519000B6D3644FF4D8654FDDD9664FDB81674FD6
:1051A000FBD8684FDC81694FE5C56A4FDD816B4FE5
:1051B000DE816C4FD0C06D4FDF816E4FE0816F4F4D
:1051C000F0D1704FDBB0714FE181724FE281734FCC
:1051D000D1BC744FA6D9754FE381764FA5D9774FCF
:1051E000E481784FE581794FE6817A4FE7817B4F03
:1051F000ACD97C4FAED97D4FE8817E4FABD97F4F84
:10520000B9CA804FE981814FEA81824FEB81834F98
:10521000A9D9844FB6D6854FEC81864FED81874F53
:10522000EE81884FDEB3894FA8D98A4FEF818B4F2B
:10523000FDC08C4FF0818D4FCCCA8E4FF1818F4FC6
:10524000AAD9904FF281914FA7D9924FF381934FF2
:10525000F481944FB0D9954FF581964FF681974FD1
:10526000B1B6984FF781994FF8819A4FF9819B4FCA
:10527000A9B99C4FFA819D4FC0D29E4FFB819F4F91
:10528000FC81A04FC0CFA14FFD81A24FFE81A34F53
:10529000C2C2A44F4082A54FC4BDA64FECD5A74FB4
:1052A000E0B2A84FC8C7A94FEBBFAA4FADD9AB4FCB
:1052B0004182AC4FAFD9AD4F4282AE4FEACEAF4F35
:1052C000EEBAB04F4382B14F4482B24F4582B34FE2
:1052D0004682B44F4782B54FD6C7B64F4882B74FC4
:1052E0004982B84F4A82B94F4B82BA4F4C82BB4F6A
:1052F0004D82BC4F4E82BD4F4F82BE4F5082BF4F3A
:10530000E3B1C04F5182C14F5282C24F5382C34F4B
:10531000D9B4C44FEDB6C54FB4D9C64F5482C74FA8
:105320005582C84F5682C94F5782CA4FA1BFCB4F33
:105330005882CC4F5982CD4F5A82CE4FDED9CF4FB3
:10534000CEC7D04FFEC0D14FB8D9D24F5B82D34F1A
:105350005C82D44F5D82D54F5E82D64F5F82D74F3D
:10536000D7CBD84FFDB7D94F6082DA4FB5D9DB4FD5
:105370006182DC4FB7D9DD4FA3B1DE4FE1D3DF4F00
:10538000B9D9E04F6282E14FC5D0E24F6382E34F6B
:10539000B6D9E44F6482E54F6582E64FB1D9E74F55
:1053A0006682E84FB2D9E94FA9C1EA4FB3D9EB4FB2
:1053B0006782EC4F6882ED4FF3BCEE4FDED0EF4FCB
:1053C000A9B8F04F6982F14FE3BEF24F6A82F34F02
:1053D000BDD9F44F6B82F54F6C82F64F6D82F74F5B
:1053E0006E82F84FBAD9F94F6F82FA4FB3B0FB4FC4
:1053F0007082FC4F7182FD4F7282FE4FC2D9FF4F07
:10540000738200507482015075820250768203507C
:105410007782045078820550798206507A8207504C
:105420007B8208507C8209507D820A507E820B501C
:1054300080820C50C4D90D50B6B10E5081820F50ED
:10544000BFD910508282115083821250B9B51350C7
:1054500084821450F3BE15508582165086821750F0
:1054600087821850C8CC1950F2BA1A50D0D21B50AB
:1054700088821C50C3D91D5089821E508A821F50B9
:10548000E8BD20508B822150ABB322508C82235038
:105490008D8224508E822550C5D92650EBBE2750D0
:1054A0008F822850C6D92950BBD92A50DFC42B502F
:1054B00090822C50BED92D50C1D92E50C0D92F501A
:1054C0009182305092823150938232509482335084
:1054D0009582345096823550978236509882375054
:1054E000998238509A8239509B823A50AED53B50BF
:1054F0009C823C50B5D63D509D823E50E3C73F5004
:105500009E8240509F824150A0824250A1824350CF
:10551000C8D94450A2824550A3824650A482475025
:10552000D9BC4850CAD94950A5824A50A6824B508E
:10553000A7824C50BCD94D50A8824E50CBD94F5069
:10554000ABC65050A9825150AA825250AB825350E0
:10555000AC825450AD825550C9D95650AE82575086
:10556000AF825850B0825950B1825A50F6D75B5032
:10557000B2825C50A3CD5D50B3825E50B4825F5066
:10558000B5826050B6826150B7826250B882635073
:10559000B9826450BA826550A1BD6650BB82675023
:1055A000BC826850BD826950BE826A50BF826B5017
:1055B000C0826C50CCD96D50C1826E50C2826F5087
:1055C000C3827050C4827150C5827250C6827350BB
:1055D000C7827450C8827550C9827650BCC5775056
:1055E000B5CD7850CA827950CB827A50CC827B502C
:1055F000CDD97C50CD827D50CE827E50C7D97F5090
:10560000A5B38050FEBF8150CF828250D08283509C
:10561000D1828450D2828550B5B88650D3828750CB
:10562000D4828850FCC08950D5828A50D6828B5053
:10563000D7828C50D8828D50F8B08E50D9828F503E
:10564000DA829050DB829150DC829250DD8293505E
:10565000DE829450DF829550E0829650E18297502E
:10566000E2829850E3829950E4829A50E5829B50FE
:10567000E6829C50E7829D50E8829E50E9829F50CE
:10568000EA82A050EB82A150EC82A250ED82A3509E
:10569000F6B4A450EE82A550CED9A650EF82A75002
:1056A000CFD9A850A2B4A950D0D9AA50F082AB50FB
:1056B000F182AC50DFB4AD50F282AE50F382AF5005
:1056C000F482B050F582B150F682B250C1B0B350FE
:1056D000F782B450F882B550F982B650FA82B750CA
:1056E000FB82B850FC82B950FD82BA50D1D9BB5070
:1056F000B5C9BC50FE82BD504083BE504183BF50EF
:105700004283C0504383C1504483C2504583C35039
:105710004683C4504783C5504883C6504983C75009
:105720004A83C8504B83C9504C83CA504D83CB50D9
:105730004E83CC504F83CD505083CE505183CF50A9
:10574000F1CFD0505283D1505383D2505483D35091
:105750005583D4505683D5505783D650D2D9D7507D
:105760005883D8505983D9505A83DA50C5C1DB5079
:105770005B83DC505C83DD505D83DE505E83DF50F5
:105780005F83E0506083E1506183E2506283E350C5
:105790006383E4506483E5506583E650D6D9E750CF
:1057A000AEC9E8506683E9506783EA506883EB50DE
:1057B0006983EC50D5D9ED50D4D9EE50D7D9EF50FC
:1057C0006A83F0506B83F1506C83F2506D83F35019
:1057D000DBCBF4506E83F550A9BDF6506F83F750C4
:1057E0007083F8507183F9507283FA507383FB50C1
:1057F000A7C6FC507483FD507583FE507683FF501E
:105800007783005178830151798302517A83035160
:105810007B8304517C8305517D830651D3D9075185
:10582000D8D908517E83095180830A5181830B5155
:10583000D9D90C5182830D5183830E5184830F512A
:10584000858310518683115187831251E5C8135106
:1058500088831451898315518A8316518B8317517C
:105860008C8318518D8319518E831A518F831B514C
:1058700090831C5191831D5192831E5193831F511C
:105880009483205195832151DCC02251968323516A
:105890009783245198832551998326519A832751C0
:1058A0009B8328519C8329519D832A519E832B5190
:1058B0009F832C51A0832D51A1832E51A2832F5160
:1058C000A3833051A4833151A5833251A683335130
:1058D000A7833451A8833551A9833651AA83375100
:1058E000AB833851AC833951AD833A51AE833B51D0
:1058F000AF833C51B0833D51B1833E51B2833F51A0
:10590000F9B64051A3D84151CAD44251B38343514F
:10591000AAD44451D6D04551E4B34651D7D54751C6
:10592000B4834851C8CF4951E2B94A51B5834B516C
:10593000CBBF4C51B6834D51E2C34E51B7834F514B
:10594000B8835051B9835151D2B65251BA83535191
:10595000BB835451C3CD5551EED95651F0D957514F
:10596000BC835851BD835951BE835A51B3B55B5165
:10597000BF835C51B5B65D51C0835E51C1835F5139
:10598000C2836051C3836151C4836251A4BE635119
:10599000C5836451C6836551EBC86651C78367519F
:1059A000C8836851ABC86951C9836A51CA836B51B6
:1059B000CBB06C51ABB96D51F9C16E51E2D96F5199
:1059C000CB837051BCC07151B2B97251CC83735149
:1059D000D8B97451CBD07551F8B17651E4C677512E
:1059E000DFBE7851E4B57951C8D77A51CD837B5168
:1059F000F8D17C51E6BC7D51DECA7E51CE837F5109
:105A0000CF838051BDBC8151E6D98251E7D8835103
:105A1000D0838451D1838551DAC48651D283875192
:105A2000D3838851D4B88951BDC88A51D4838B514E
:105A3000D5838C51E1B28D51D9D48E51D6838F51FB
:105A4000D7839051D8839151D9839251B0C3935148
:105A5000DA839451DB839551E1C39651A2DA9751D1
:105A6000DFC89851DC839951B4D09A51DD839B51A2
:105A7000FCBE9C51A9C59D51DE839E51DF839F5181
:105A8000E083A051DAB9A151E183A251A3DAA35175
:105A9000E283A451A9D4A551A4DAA651E383A75166
:105AA000E483A851E583A951E683AA51E783AB516A
:105AB000FBD9AC51ACB6AD51E883AE51E983AF51DF
:105AC000EBB7B051F9B1B151FCD9B251E5B3B35113
:105AD000F6BEB451EA83B551F6BFB651B1D2B75153
