:020000040800F2
:1000000028040020C5010008EB050008BD05000814
:10001000E705000899020008B90800080000000080
:10002000000000000000000000000000F9060008C9
:10003000AD04000800000000ED0500084D080008B0
:10004000DF010008DF010008DF010008DF01000810
:10005000DF010008DF010008DF010008DF01000800
:10006000DF010008DF010008DF010008DF010008F0
:10007000DF010008DF010008DF010008DF010008E0
:10008000DF010008DF010008DF010008DF010008D0
:10009000DF010008DF010008DF010008DF010008C0
:1000A000DF010008DF010008DF010008DF010008B0
:1000B000DF010008DF010008DF010008DF010008A0
:1000C000DF010008DF010008DF010008DF01000890
:1000D000DF010008DF010008DF010008DF01000880
:1000E000DF010008DF010008DF010008DF01000870
:1000F000DF010008DF010008DF010008DF01000860
:10010000DF010008DF010008DF010008DF0100084F
:10011000DF010008DF010008DF010008DF0100083F
:10012000DF010008DF010008DF010008DF0100082F
:10013000DF010008DF010008DF010008DF0100081F
:10014000DF010008DF010008DF010008DF0100080F
:10015000DF010008DF010008DF010008DF010008FF
:10016000DF010008DF010008DF010008DF010008EF
:10017000DF010008DF010008DF010008DF010008DF
:10018000DF010008DF010008DF010008DF010008CF
:10019000DF010008DF010008DF010008DF010008BF
:1001A000DF010008DF010008DF010008DFF810D0E0
:1001B00000F02CF800480047AD090008AFF30080BC
:1001C000280400200648804706480047FEE7FEE76F
:1001D000FEE7FEE7FEE7FEE7FEE7FEE7FEE7FEE7F7
:1001E00051080008AD010008D2B201E000F8012B6F
:1001F000491EFBD270470022F6E710B513460A46A7
:1002000004461946FFF7F0FF204610BD064C074D87
:1002100006E0E06840F0010394E8070098471034D6
:10022000AC42F6D3FFF7C6FFF0090008100A000839
:1002300010B500F04FF90121802000F0D9F94FF4FA
:100240008061074800F09EF94FF40061044800F017
:1002500099F94FF48051024800F094F910BD000064
:10026000001C024010B54FF4FA724FF48061094847
:1002700000F0A6F94FF4FA724FF40061054800F05F
:100280009FF94FF4FA724FF48051024800F098F948
:1002900010BD0000001C024000BFFEE70246094BF3
:1002A0009A4201D2084801E00648103801F0005394
:1002B0001BB1064B0B40C36002E0044B0B40836054
:1002C0007047000010640240006002407D0F7D0F07
:1002D00021B1026842F00102026003E0026822F0EC
:1002E0000102026070470000016821F00101016015
:1002F0000021016041608160C16001612121416193
:100300004A49884204D13D21484A103A91608CE024
:1003100046491831884205D14FF47461434A103A76
:10032000916082E041493031884205D14FF4741127
:100330003E4A103A916078E03C494831884205D104
:100340004FF07461394A103A91606EE0374960317C
:10035000884204D13649354A103AD16065E03349C4
:100360007831884204D13349304A103AD1605CE098
:100370002E499031884204D12F492C4A103AD1603D
:1003800053E02A49A831884205D14FF03D51274A10
:10039000103AD16049E02949884204D13D21274AD9
:1003A000083A116041E025491831884205D14FF4DF
:1003B0007461224A083A116037E02049303188429E
:1003C00005D14FF474111D4A083A11602DE01B4904
:1003D0004831884205D14FF07461184A083A1160DB
:1003E00023E016496031884204D11149134A121F93
:1003F00011601AE011497831884204D10D490F4A41
:10040000121F116011E00D499031884204D10A4950
:100410000A4A121F116008E00849A831884204D135
:100420004FF03D51054A121F1160704710600240A5
:100430003D000020400F002000003D2010640240DD
:10044000014600200A6802F001020AB1012000E022
:100450000020704710B500220268134B1A40CC6888
:100460000B6823434C6923438C692343CC692343A2
:100470000C6A23434C6A23438C6A23434C6B23430B
:100480008C6B23431A430260426922F00702D1E9D0
:100490000B3423431A4342610B6943604B6883600A
:1004A0008B68C36010BD00003F801CF070470000E7
:1004B00007490968414301EB4102C2EBC1110A221D
:1004C000C2EBC10000BF011EA0F10100FBD17047CB
:1004D000100000201FB5684600F09AF80349019803
:1004E000B0FBF1F0024908601FBD000000093D00AB
:1004F00010000020F0B50A4600210023002400BFB0
:100500003DE0012505FA01F3156805EA03049C4264
:1005100034D105684F000326BE40B5430560157908
:100520004E00B5400668354305601579012D02D0AF
:100530001579022D16D185684F000326BE40B543BC
:10054000856055794E00B5408668354385604568BD
:1005500001268E40B5434560456896798E40B6B217
:1005600035434560C5684F000326BE40B543C560AE
:10057000D5794E00B540C6683543C560491C102981
:10058000BFD3F0BD7CB505460C46009401208DF824
:10059000040000208DF8060002208DF807008DF879
:1005A000050069462846FFF7A5FF2146284600F0CA
:1005B00003F87CBD418370470183704700BFFEE7AD
:1005C00070B505460E46144631462846FFF7F2FF41
:1005D0002046FFF76DFF31462846FFF7EDFF204626
:1005E000FFF766FF70BD00BFFEE770477047000071
:1005F00029B1064A12680243044B1A6004E0034A18
:1006000012688243014B1A60704700003038024084
:10061000F0B5002100220024022500260223324FDB
:100620003F6807F00C0121B1042905D0082937D112
:1006300005E02E4F076036E02D4F076033E02A4F6C
:100640003F1F3F68C7F38056274F3F1F3F6807F0A3
:100650003F036EB1264FB7FBF3F7DFF88CC0ACF168
:10066000040CDCF800C0CCF3881C07FB0CF40CE095
:100670001E4FB7FBF3F7DFF870C0ACF1040CDCF8E9
:1006800000C0CCF3881C07FB0CF4174F3F1F3F68DA
:10069000C7F301477F1C7D00B4FBF5F7076002E05C
:1006A000124F076000BF00BF0F4F3F6807F0F00117
:1006B0000909104F7A5C0768D74047600A4F3F68C6
:1006C00007F4E051890A0B4F7A5C4768D74087608E
:1006D000054F3F6807F46041490B064F7A5C476855
:1006E000D740C760F0BD0000083802400024F40085
:1006F00040787D0100000020704700000CB500200C
:10070000019000904148006840F480303F49086003
:1007100000BF3E48006800F4003000900198401C83
:100720000190009818B90198B0F5A04FF1D1374861
:10073000006800F4003010B10120009001E00020BA
:1007400000900098012860D130484030006840F0A7
:1007500080502E49403108602D48006840F44040E8
:100760002B4908602948083000682849083108608A
:100770000846006840F4004008600846006840F4FD
:10078000A05008602348091F0860081F006840F057
:100790008070091F086000BF1C48006800F00070EE
:1007A0000028F9D01A48006840F4803018490860E1
:1007B00000BF1748406800F480300028F9D0144882
:1007C000006840F400301249086000BF10484068DB
:1007D00000F400300028F9D040F205700E4908609E
:1007E0000A480830006820F0030008490831086012
:1007F0000846006840F00200086000BF0348083067
:10080000006800F00C000828F8D10CBD0038024048
:1008100000700040195A4007003C024010B50446E1
:10082000012C04D1C1020848FFF7C4FE0BE02CB92B
:100830004FF480610448FFF7BDFE04E04FF480519F
:100840000148FFF7B7FE10BD001C024070470000D2
:1008500010B51548006840F470001349086013484B
:10086000006840F001001149086000200F4908317C
:1008700008600E4800680E4908400C4908600D48A1
:10088000091D0860081F006820F48020091F086007
:10089000002006490C310860FFF730FF4FF0006080
:1008A00001498039086010BD88ED00E00038024041
:1008B000FFFFF6FE1030002400BFFEE702E008C88C
:1008C000121F08C1002AFAD170477047002001E0CA
:1008D00001C1121F002AFBD1704730B503460C46F8
:1008E00003B10CB9022030BD002106E0585C655C04
:1008F000A84201D00020F6E7491C9142F6D301201E
:10090000F1E7000000B591B04FF480600190012143
:100910000003FFF76DFE2148FFF7E6FC00BF1F480C
:10092000FFF78EFD0128FAD0002002901C480390AA
:100930001C48049080200590142006904FF400700D
:10094000079040000890002009900A900B904FF407
:1009500080300C9000200D9003200E9000200F900E
:10096000109002A90D48FFF775FD0F490B48FFF7DE
:1009700095FC01210948FFF7ABFC02E00198401EFD
:1009800001900648FFF75CFD0028F7D0019818B9E0
:1009900001E0FFF767FCFCE711B000BD1064024006
:1009A000DC0900081400002020000010FFF740FCC4
:1009B000FFF7A8FF142207490748FFF78EFF0446F8
:1009C0002046FFF72BFF14210248FFF714FC00BF5D
:1009D000FEE7000014000020DC0900086170706C64
:1009E000656170706C656170706C656170706C656C
:1009F000100A00080000002014000000BC080008D5
:100A0000240A00081400002014040000CC08000888
:100A100000000000010203040102030406070809A4
:040A200000000000D2
:04000005080001AD41
:00000001FF
