:020000040800F2
:10000000A8510020C50100081115000809150008B5
:100010000D150008F7100008831C00080000000000
:10002000000000000000000000000000D5180008DB
:10003000FB10000800000000E1150008F919000895
:10004000DF010008DF010008DF010008DF01000810
:10005000DF010008DF010008DF010008DF01000800
:10006000DF010008DF010008DF010008DF010008F0
:10007000DF010008DF010008DF010008DF010008E0
:10008000DF010008DF010008DF010008DF010008D0
:10009000DF010008DF010008DF010008DF010008C0
:1000A000DF010008DF010008DF010008DF010008B0
:1000B000DF010008DF010008DF010008DF010008A0
:1000C000DF010008DF010008DF010008DF01000890
:1000D000DF010008651A0008DF010008DF010008E1
:1000E000DF010008DF010008DF010008DF01000870
:1000F000DF010008DF010008DF010008DF01000860
:10010000DF010008DF010008DF010008DF0100084F
:10011000DF010008DF010008DF010008DF0100083F
:10012000DF010008DF010008DF010008DF0100082F
:10013000DF010008DF010008DF010008DF0100081F
:10014000DF010008DF010008DF010008DF0100080F
:10015000DF010008DF010008DF010008DF010008FF
:10016000DF010008DF010008DF010008DF010008EF
:10017000DF010008DF010008DF010008DF010008DF
:10018000DF010008DF010008DF010008DF010008CF
:10019000DF010008DF010008DF010008DF010008BF
:1001A000DF010008DF010008DF010008DFF810D0E0
:1001B00000F0F4FC0048004719260008AFF3008067
:1001C000A85100200648804706480047FEE7FEE7A2
:1001D000FEE7FEE7FEE7FEE7FEE7FEE7FEE7FEE7F7
:1001E000FD190008AD010008D2B201E000F8012BB2
:1001F000491EFBD270470022F6E710B513460A46A7
:1002000004461946FFF7F0FF204610BD10B5002246
:1002100000E0521C835C8C5CA34201D1002BF8D11E
:10022000D8B2E1B2401A10BD0FB400B58DB010A91C
:1002300009900B9000914FF0FF300A9000200C9035
:1002400005480690054807906A4609A80F9900F0EE
:1002500095FB0DB05DF814FB99090008B70900087B
:1002600030B50B46014600202022012409E021FA86
:1002700002F59D4205D303FA02F5491B04FA02F583
:100280002844151EA2F10102F1DC30BD2DE9FF4F1B
:100290001C4681B00021D4E9016791464FF0FF353B
:1002A0008A468846A1696D1C02988847216A834660
:1002B00088470028F6D1BBF1FF3F0CD026F4C0667A
:1002C000002F1ADD700615D5BBF12B0F0AD0BBF13C
:1002D0002D0F0FD104E04FF0FF3005B0BDE8F08FD7
:1002E00046F48066A1696D1C029888477F1E83468C
:1002F000002F02DDBBF1300F03D0B9F1000F2AD07F
:1003000025E0A1696D1C46F400767F1E029888479F
:100310008346002F05DDBBF1780F06D0BBF1580FE7
:1003200003D0B9F1000F10D011E0B9F1000F02D0E5
:10033000B9F1100F0BD1A1696D1C26F400767F1E58
:10034000029888478346102000E0082081464FEA43
:10035000E970009017E00A20F8E74346AAFB092855
:1003600003FB0980DDF800C07F1E0AFB0C0112EBC5
:100370000B0A41EBEB78A16946F4007605F1010523
:10038000029888478346002F06DD4946584600F00C
:100390003BFC5FEA000BE0D5E16902988847B005B5
:1003A00002D46FF0010098E7F00718D1700610D55D
:1003B0007005514605D50023D1EB030163EB08021C
:1003C00000E042462068031D23600068C0E9001277
:1003D00005E02068011D21600068C0E900A82846EA
:1003E0007BE72DE9FF5F1D464FF0FF3BD5E9014656
:1003F00091465F464FF00008A9697F1C0198884725
:10040000296A824688470028F6D1BAF1FF3F0CD00E
:1004100024F4C064002E19DD600614D5BAF12B0F48
:1004200009D0BAF12D0F0ED103E0584604B0BDE853
:10043000F09F44F48064A9697F1C01988847761E68
:100440008246002E02DDBAF1300F03D0B9F1000F61
:1004500026D032E0A969761E44F400747F1C01980E
:1004600088478246002E05DDBAF1780F06D0BAF132
:10047000580F03D0B9F1000F10D01EE0B9F1000FF2
:1004800002D0B9F1100F18D1A969761E24F40074B6
:100490007F1C019888478246102002E0082000E077
:1004A0000A20814609E008FB0908A969761E44F480
:1004B00000747F1C019888478246002E05DD49465E
:1004C000504600F0A1FB0028EDDAE9690198884761
:1004D000A00502D46FF00100A8E7E00725D160066F
:1004E00013D5600502D5C8F1000000E04046296838
:1004F0000A1D2A600968220501D5087015E0220747
:1005000001D5088011E008600FE02868011D29600E
:100510000068210502D580F8008006E0210702D599
:10052000A0F8008001E0C0F8008038467EE72DE9A1
:10053000FF5FD2E901A74FF0000891699946144680
:10054000DDF838B0464601988847054659EA0B0061
:1005500005D009E0A169761C019888470546216A03
:10056000284688470028F5D1681C03D05FEACA7086
:1005700005D015E04FF0FF3004B0BDE8F09F2068D3
:10058000011D2160D0F800800AE05FEACA7001D145
:1005900008F8015BA169761C7F1E01988847054613
:1005A000002F1ADD681C18D0B9F1000F0DD0E81724
:1005B00005EBD060421120F01F0059F822102A1AD2
:1005C000012090400142E0D107E0BBF1000FDCD1F7
:1005D000216A284688470028D7D0E16901988847D2
:1005E000BBF1000F07D1002E05DD5FEACA7002D112
:1005F000002188F80010A068B84203DDBBF1000FAD
:1006000003D017B16FF00100B6E73046B4E7000041
:100610002DE9FF4F087883B09946FF2805D0491C83
:100620002D2804D00024002008E000200BE0012445
:10063000F9E700EB800003EB4000491C0B78FF2B2F
:10064000F7D104B1404200230293147819461D46A5
:100650002D2C01D02B2C04D1521C2D2C13D0002476
:100660000294AA461478FF2C0FD00A25A3FB057824
:1006700001FB05814FF0000C03FB0C11521CE31928
:100680004AEB0101EEE70124EAE7814453EA010065
:1006900002D019F5C87F06DA03980021C0E90011DD
:1006A00007B0BDE8F08F0025AE4E2F46DFF8B882C8
:1006B000184600F0ACFCCDE90001B9F1000002DA07
:1006C000C9F1000400E004460023A74A1AEB030B1B
:1006D00042EB045A12E0E00707D02A463346384678
:1006E000414600F079F9074688462A4633461046C7
:1006F000194600F071F905460E466410002CEAD147
:10070000DDE90001B9F1000F5A46534606DA00F060
:10071000D5F93A46434600F0D1F905E000F05CF91E
:100720003A46434600F058F9029A0AB181F0004176
:10073000039AC2E90001B3E72DE9FF4F1F468DB0D0
:10074000D7E901464FF0FF382E2045464FF000090B
:100750000B90B9696D1C0E988847396A82468847A4
:100760000028F6D1BAF1FF3F0AD024F4D064002E5D
:1007700011DDBAF12B0F08D0BAF12D0F0BD102E029
:10078000404611B08DE744F48064B9696D1C0E9841
:1007900088478246761E6946600501D52D2000E017
:1007A0002B208DF8000001F1010B0DF1200809E06C
:1007B000B9696D1C0E98884782460F9844F40074FE
:1007C000761E0560002E02DDBAF1300FF0D00B99D5
:1007D0008A453ED144F0800406E00F99681CA9F1D7
:1007E000010944F400740860B9696D1C761E0E9806
:1007F000884782463028F0D02BE00B998A4505D1F6
:10080000200603D444F08004761E18E0504601F020
:100810005AFA08B30DF11301761E44F400748B45A7
:1008200008D2AAF130000BF8010B200607D5A9F178
:10083000010003E0200602D409F101008146A00571
:1008400002D50F99681C0860B9696D1C0E9888471D
:100850008246002ED1DC53E0002E51DDBAF1650F47
:1008600002D0BAF1450F4BD1A00549D5B9696D1C2D
:1008700024F44074761E0E9888478246002E0CDDC4
:100880002B2804D0BAF12D0F07D144F48074B96934
:100890006D1C0E9888478246761EE00501D52D21F5
:1008A00000E02B2108F8011BCDF82C8021E00DF190
:1008B0002901761E44F4007488450CD2AAF1300058
:1008C00010F0FF0088F8000002D10B99884509D983
:1008D00008F1010806E0E00501D5244801E042F2F4
:1008E0000F708146B9696D1C0E98884782460F9833
:1008F0000560002E04DD504601F0E5F90028D6D150
:10090000F9690E988847FF208BF8000088F80000EE
:100910000020069007904B466A4608A906A8FFF7F4
:1009200077FEA00502D46FF001002AE714F0240F2F
:100930000AD0E00714D1DDE906123868031D3B60D8
:100940000068C0E900120BE0DDE9060100F06BFB76
:100950000146E00704D13868021D3A600068016072
:1009600028460EE7000014400000F03FF1D8FFFFDA
:10097000026811441378016018467047D160044939
:1009800051610449116200211161114600F04AB918
:1009900071090008FF0B0008426842B1016811F8B4
:1009A000013B23B1521EC0E90012184670470121D5
:1009B000C160881E704742685AB1C368016843B974
:1009C00083688B4205D0491E521CC0E900120020EA
:1009D00070474FF0FF3070472DE9FE4F81EA030466
:1009E00004F0004421F0004100944FF0000B23F08C
:1009F000004350EA01045ED052EA03045BD0C3F323
:100A00000A54C1F30A552C44A4F2F3340194A0FB18
:100A10000254C1F3130141F48011C3F3130343F4EF
:100A2000801301FB024400FB034E840A970A44EA48
:100A3000815447EA8357A4FB076802958D0A05FB9A
:100A400007854FEA932C04FB0C542705029D4FEABF
:100A5000065847EA1637B5EB08056EEB070C870E0C
:100A6000920E47EA811742EA8312A7FB0201B6EB16
:100A70000B0164EB00042B0D43EA0C335E1844EBCE
:100A80001C50DA465146E7FB0201C5F313044FEA56
:100A90000B3343EA14534FEA0432019C43EA060342
:100AA000A4F10C040294009CCDE900B400F061FABA
:100AB00003B0BDE8F08F00200146F9E72DE9F04DC5
:100AC00081EA030404F0004B21F0004514464FF086
:100AD000000A23F0004150EA050220D054EA010246
:100AE0001DD0C5F30A570246C5F31303C1F3130023
:100AF000C1F30A5640F4801543F48013A7EB0608AF
:100B0000101BD64608F2FD3873EB050002D308F13E
:100B1000010801E092185B41B8F1000F03DA0020F0
:100B20000146BDE8F08D00204FF480110646844652
:100B30000EE0171B73EB050705D3121B63EB0503D0
:100B400006434CEA010C49084FEA300092185B4119
:100B500050EA0107EDD152EA030012D082EA040004
:100B600083EA0501084305D0101BAB4106D20122E0
:100B7000002306E000224FF0004302E06FF0010284
:100B800053101AEB06004CEB085110EB0A0041EB36
:100B90000B01BDE8F04D00F0DDB90000064C074D3B
:100BA00006E0E06840F0010394E80700984710343D
:100BB000AC42F6D3FFF7FEFAB4270008D4270008AA
:100BC000202A04DB203A00FA02F10020704791400D
:100BD000C2F1200320FA03F3194390407047202A02
:100BE00004DB203A21FA02F00021704721FA02F3D7
:100BF000D040C2F120029140084319467047C0B26C
:100C00004FF4F05100F02CBA3A2800D2303820F0DE
:100C10002002412A01D3A2F13700884201D34FF0CC
:100C2000FF3070472DE9F34F8BB04FF0000801F112
:100C30000C000C464FF0010B46460DF1080A0190DE
:100C40006269012101989047051E2DD0252D2CD0D9
:100C5000216A8847C0B16269012101989047216AE1
:100C600088470028F7D1411E62690198904700E04B
:100C7000761CA1690B988847216A88470028F7D11C
:100C8000E1690B988847DBE7A1690B98884707461D
:100C9000A84201D1761CD3E7E1690B9888477F1CF5
:100CA00002D1B8F1000F6FD047E1002762693D46DD
:100CB0003946019890472A2804D162690121019898
:100CC00090470125DFF888926269012101989047D9
:100CD000A0F130010A290AD24F45E5DC07EB870174
:100CE00000EB4107303FDFD445F01005ECE7E906A3
:100CF00001D46FF000476C280AD04C2814D0682823
:100D000015D06A280DD074281CD07A281AD01DE07E
:100D100062690121019890476C2802D045F00405D2
:100D200014E045F002050DE045F020050AE0626997
:100D3000012101989047682802D045F0080505E098
:100D400045F400656269012101989047C4E90157A3
:100D500065283DD019DC58287AD00CDC452837D0DE
:100D600004DC252826D0412831D131E046282FD077
:100D700047282CD12CE05B2877D0612828D0632825
:100D80007CD0642823D15AE0D1E06F2848D008DC19
:100D900066281DD067281BD0692821D06E2816D15F
:100DA00027E0702845D0732868D0752847D0782868
:100DB0000DD14DE0A1690B988847054625283FF4E1
:100DC00069AFE1690B9888476D1C3FF46AAFB4E0E6
:100DD00023466A466FF001000B99FFF7ADFC9FE0D8
:100DE00045F040006060A80723464FF0000236D46B
:100DF0003EE0E8077FF447AF2068011D21600068EE
:100E0000290501D506701BE7290701D5068017E7DC
:100E1000A90703D5F117C0E9006111E706600FE7E4
:100E200045F040006060A80723464FF0080216D442
:100E30001EE040F60E0125EA0100606016E045F074
:100E400040006060A80723464FF00A0207D40FE075
:100E500045F040006060A80708D5234610226FF0D7
:100E600001000B99FFF712FA5AE007E0234610221F
:100E70006FF001000B99FFF7B4FA51E04FF0000951
:100E80004F464B46632802D05B2807D041E02079CB
:100E9000C00601D40120A06001273AE06269012167
:100EA000019890475E2805D14FF0010962694946D3
:100EB00001989047216939B900210A46534643F801
:100EC0002120491C0829FADBB0B3216969B9C1178F
:100ED00000EBD16253110AEB830122F01F02821A48
:100EE00001200B68904003430B6062690121019867
:100EF00090475D28E8D1B9F1000F09D00020514694
:100F000051F82020D24341F82020401C0828F7DB6C
:100F100002AB224600976FF001000B99FFF707FB29
:100F200000280CDA401C08D1BBF1000F05D04FF0AF
:100F3000FF300DB0BDE8F08FFFE74046F9E7E90765
:100F400001D108F1010806444FF0000B78E60000DB
:100F5000CCCCCC0C10B5141E73F1000408DA401C84
:100F600041F1000192185B411A4301D120F00100C8
:100F700010BD2DE9F04D92469B4611B1B1FA81F2B8
:100F800002E0B0FA80F220329046FFF719FE0446E4
:100F90000F4640EA0A0041EA0B0153465A4608430D
:100FA00013D0114653EA010019D0C8F1400250464F
:100FB000FFF715FE05460E46504659464246FFF7D6
:100FC000FFFD084305D0012004E020463946BDE876
:100FD000F08D0020054346EAE0762C4337430A981B
:100FE0006305E40AA0EB08000022FD0A44EA475426
:100FF0000A3002D500200146E9E7010510196941D0
:10100000DDE9084500196941BDE8F04DA2E70EB5DC
:1010100040F2334202920022CDE900221346FFF74C
:10102000A8FF03B000BD01F0004330B421F000413F
:1010300050EA010206D00A0DA2F56072C1F3130155
:10104000002A02DC30BC00207047440F44EAC1048F
:10105000C100E01830BC00EBC25000F015B8000031
:101060007F2801D9002208E0064A02EB5002C0079F
:10107000127800D1120902F00F02012090400840BE
:10108000704700004E2700080029A8BF7047401C89
:10109000490008BF20F00100704710B4B0FA80FC8E
:1010A00000FA0CF050EA010404BF10BC704749B1CB
:1010B000CCF1200421FA04F411FA0CF118BF01213B
:1010C00021430843A3EB0C01CB1D4FEA00614FEA1B
:1010D000102042BF002010BC704700EBC3501044EA
:1010E0000029A4BF10BC7047401C490008BF20F075
:1010F000010010BC704700BFFEE7704770B50546A1
:101100000C4616464021114800F0CDF9032000F0AE
:1011100099FB200E00F096FBC4F3074000F092FB11
:10112000C4F3072000F08EFBE0B200F08BFB04E07C
:10113000FF2000F087FB28706D1C301EA6F1010611
:10114000F6D14021014800F0B0F970BD0014024012
:101150002DE9F05F06460D4617464FF00008C146E0
:10116000C2460024A34605F0FF0ACAF10000C4B23B
:10117000C7F3072807F0FF09BAF1000F20D1B8F133
:10118000000F05D13A463146284600F0C7F859E02D
:1011900009E04FF480723146284600F0BFF805F5AB
:1011A000807506F58076B8F10000A8F1010101F024
:1011B000FF08EED14A463146284600F0AFF841E03C
:1011C000B8F1000F18D1A14510DDA9EB040000F023
:1011D000FF0B22463146284600F0A0F8254426445D
:1011E0005A463146284600F099F82BE03A463146F7
:1011F000284600F093F825E03F1BC7F3072807F0C7
:10120000FF0922463146284600F088F82544264446
:1012100009E04FF480723146284600F07FF805F56A
:10122000807506F58076B8F10000A8F1010101F0A3
:10123000FF08EED1B9F1000F04D04A4631462846E6
:1012400000F06CF8BDE8F09F10B5044600F098F887
:1012500000F04AF840210D4800F025F9202000F068
:10126000F1FA200E00F0EEFAC4F3074000F0EAFABB
:10127000C4F3072000F0E6FAE0B200F0E3FA402100
:10128000024800F012F900F02FF810BD00140240DF
:1012900070B540210B4800F006F99F2000F0D2FA0B
:1012A00000F0CAFA044600F0C7FA054600F0C4FA96
:1012B00006464021034800F0F8F8200440EA0520E3
:1012C000304370BD0014024010B54021054800F0C5
:1012D000EAF8AB2000F0B6FA4021024800F0E5F849
:1012E00010BD00000014024010B5002440210A483F
:1012F00000F0D9F8052000F0A5FA00BFFF2000F0AB
:10130000A1FA044604F001000028F7D14021024868
:1013100000F0CBF810BD00000014024070B5044688
:101320000D46164600F02CF84021144800F0BBF89A
:10133000022000F087FA200E00F084FAC4F3074080
:1013400000F080FAC4F3072000F07CFAE0B200F06D
:1013500079FAB6F5807F01DD4FF4807603E02878D6
:1013600000F070FA6D1C301EA6F10106F7D1402185
:10137000024800F09AF8FFF7B7FF70BD0014024072
:1013800010B54021054800F08EF8062000F05AFA0A
:101390004021024800F089F810BD0000001402400E
:1013A000F0B50A4600210023002400BF3DE00125DE
:1013B00005FA01F3156805EA03049C4234D1056877
:1013C0004F000326BE40B543056015794E00B54079
:1013D0000668354305601579012D02D01579022D77
:1013E00016D185684F000326BE40B5438560557908
:1013F0004E00B540866835438560456801268E40BD
:10140000B5434560456896798E40B6B23543456030
:10141000C5684F000326BE40B543C560D5794E0070
:10142000B540C6683543C560491C1029BFD3F0BD1F
:101430007CB505460C46009401208DF80400002080
:101440008DF8060002208DF807008DF8050069462A
:101450002846FFF7A5FF2146284600F026F87CBD68
:10146000F0B5002300244D07ED0E02FA05F3CE106F
:1014700000F1200555F826504E07F70E0F26BE4006
:10148000B543CF1000F1200646F82750CE1000F1EA
:10149000200555F8265045EA0304CE1000F120053A
:1014A00045F82640F0BD41837047018370477CB505
:1014B00005460C46009402208DF8040000208DF8AB
:1014C000060002208DF807008DF8050069462846C1
:1014D000FFF766FF7CBD000010B50121802000F001
:1014E00081F84FF480610748FFF7A2FF4FF40061D5
:1014F0000448FFF79DFF4FF480510248FFF798FF23
:1015000010BD0000001C024000BFFEE700BFFEE768
:101510007047000070B5002100230F22C4781CB36F
:10152000174C246804F4E064C4F5E064C4F30721B4
:10153000C1F10404E3B20A4144789C40E1B28478EA
:10154000144021430C07210E0E4C05786155047898
:1015500004F01F050124AC4005786D11AD0005F1C4
:10156000E025C5F8004109E0047804F01F050124D6
:10157000AC40054D0678761145F8264070BD000058
:101580000CED00E000E400E080E100E008B54FF47D
:10159000A06000F01BF825208DF8000001208DF8D8
:1015A00001008DF802008DF803006846FFF7B2FFD6
:1015B000252000F01F02012191404209920002F112
:1015C000E022C2F8001100BF08BD0000024901433B
:1015D000024A1160704700000000FA050CED00E0BF
:1015E0007047000029B1064A12680243044B1A6092
:1015F00004E0034A12688243014B1A6070470000FE
:101600003038024029B1064A12680243044B1A607E
:1016100004E0034A12688243014B1A6070470000DD
:1016200044380240F0B500210022002402250026A3
:101630000223324F3F6807F00C0121B1042905D085
:10164000082937D105E02E4F076036E02D4F07609F
:1016500033E02A4F3F1F3F68C7F38056274F3F1F95
:101660003F6807F03F036EB1264FB7FBF3F7DFF893
:101670008CC0ACF1040CDCF800C0CCF3881C07FB78
:101680000CF40CE01E4FB7FBF3F7DFF870C0ACF1C1
:10169000040CDCF800C0CCF3881C07FB0CF4174FDB
:1016A0003F1F3F68C7F301477F1C7D00B4FBF5F780
:1016B000076002E0124F076000BF00BF0F4F3F6896
:1016C00007F0F0010909104F7A5C0768D7404760BE
:1016D0000A4F3F6807F4E051890A0B4F7A5C47686C
:1016E000D7408760054F3F6807F46041490B064FBC
:1016F0007A5C4768D740C760F0BD000008380240F8
:101700000024F40040787D010000002021B102880F
:1017100042F04002028004E002884FF6BF731A4094
:101720000280704710B588B001212020FFF75AFFD2
:1017300001210805FFF766FF052207213C48FFF756
:101740008FFE052208213A48FFF78AFE052209216B
:101750003748FFF785FE8020019002208DF80900B0
:101760008DF8080000208DF80A008DF80B0001A903
:101770002F48FFF715FE4FF48070019001A92C4807
:10178000FFF70EFE4FF40070019001A92848FFF703
:1017900007FE4020019001208DF8080001A924488F
:1017A000FFF7FEFD40212248FFF77FFE0020ADF845
:1017B0000C004FF48270ADF80E000020ADF8100060
:1017C0000220ADF812000120ADF814004002ADF87F
:1017D00016000020ADF81800ADF81A000720ADF88B
:1017E0001C0003A9134800F057F801211148FFF726
:1017F0008DFF40210E48FFF756FE152000F022F81D
:10180000FF2000F01FF8044640210948FFF74DFE75
:1018100004F0010050B940210548FFF744FEB7200D
:1018200000F010F840210248FFF73FFE08B010BD5D
:10183000001402400050014010B5FF2000F002F8F3
:1018400010BD000010B5044600BF02210A4800F098
:1018500015F80028F9D02146074800F01BF800BF12
:101860000121054800F00AF80028F9D0024800F0EC
:101870000EF8C0B210BD000000500140024600202A
:1018800013890B400BB1012000E000207047014696
:10189000888970478181704710B50022028802F460
:1018A00041520B884C8823438C882343CC882343A4
:1018B0000C8923434C8923438C892343CC892343BC
:1018C0001A430280838B4FF2FF74234083830B8A79
:1018D000038210BD704700000CB5002001900090FD
:1018E0004148006840F480303F49086000BF3E48EE
:1018F000006800F4003000900198401C01900098AE
:1019000018B90198B0F5A04FF1D13748006800F43C
:10191000003010B10120009001E0002000900098FC
:10192000012860D130484030006840F080502E4996
:10193000403108602D48006840F440402B49086061
:1019400029480830006828490831086008460068BE
:1019500040F4004008600846006840F4A050086069
:101960002348091F0860081F006840F08070091FA5
:10197000086000BF1C48006800F000700028F9D023
:101980001A48006840F480301849086000BF1748C2
:10199000406800F480300028F9D01448006840F412
:1019A00000301249086000BF1048406800F4003061
:1019B0000028F9D040F205700E4908600A48083046
:1019C000006820F0030008490831086008460068F4
:1019D00040F00200086000BF03480830006800F0D3
:1019E0000C000828F8D10CBD0038024000700040FF
:1019F000195A4007003C02407047000010B51548D6
:101A0000006840F47000134908601348006840F013
:101A100001001149086000200F49083108600E4894
:101A200000680E4908400C4908600D48091D08600F
:101A3000081F006820F48020091F08600020064964
:101A40000C310860FFF748FF4FF000600149803912
:101A5000086010BD88ED00E000380240FFFFF6FE90
:101A60001030002410B52021084800F04DF801285E
:101A70000BD1064800F0FCF80446E0B200F01CFA76
:101A80002146024800F0F9F800BF10BD00100140E7
:101A900010B501210846FFF7A5FD01211020FFF731
:101AA000B1FD4FF400711048FFF701FD4FF4806164
:101AB0000D48FFF7FCFC072209210B48FFF7D0FC7B
:101AC00007220A210848FFF7CBFC00F0B9F8FFF71E
:101AD0005DFD012240F22551044800F022F8012169
:101AE000024800F005F810BD00000240001001405F
:101AF00021B1828942F40052828104E082894DF64C
:101B0000FF731A408281704702460020B1F5007FC2
:101B100000D100BF13880B400BB1012000E0002072
:101B20007047F0B50346002400260025002040F64B
:101B30006A17B94200D100BF1846C1F3421401F040
:101B40001F06012707FA06F5012C01D10C3004E02D
:101B5000022C01D1103000E014301AB107682F4375
:101B6000076002E00768AF430760F0BD2DE9FF475B
:101B700005460E460024A14600BFA046B08900B12C
:101B800000BF2C8A24F44054F08804432C82AC8992
:101B900041F20C608443B08831890843718908435D
:101BA0000443AC81AC8A24F44074B0890443AC8211
:101BB0006846FFF737FD2048854202D01F4885421E
:101BC00002D1DDF80C9001E0DDF80890A88900F45E
:101BD000004040B109EBC90000EB09103168490031
:101BE000B0FBF1F707E009EBC90000EB0910316821
:101BF0008900B0FBF1F76420B7FBF0F00401200985
:101C0000642101FB1078A88900F4004040B1322023
:101C100000EBC800B0FBF1F000F00700044308E05F
:101C2000322000EB08106421B0FBF1F000F00F004F
:101C300004432C81BDE8FF870010014000140140DF
:101C40001FB54FF4E13000900020ADF804000C20E7
:101C5000ADF80A000020ADF80800ADF80600ADF8B8
:101C60000C0069460148FFF781FF1FBD00100140CD
:101C700001468888C0F308007047C1F308028280DB
:101C8000704700BFFEE700000FB4054B10B503A975
:101C9000044A029800F01EF810BC5DF814FB000026
:101CA000A92500085000002002E008C8121F08C142
:101CB000002AFAD170477047002001E001C1121FCD
:101CC000002AFBD1704730380A2801D20120704722
:101CD000002070472DE9FF4F89B09B460446002540
:101CE00006E025280BD05A460B999047641C6D1CC2
:101CF00020780028F5D10DB02846BDE8F08F0027E8
:101D0000B8460122474900E0074314F8013F203B51
:101D100002FA03F00842F7D120782E2819D114F8DE
:101D2000010F47F004072A280ED06FF02F02207809
:101D3000A0F1300109290CD808EB880102EB410120
:101D400000EB0108641CF2E70A98641C50F8048B4D
:101D50000A9020780028CED0642808D0692806D0C0
:101D600075281ED05A460B9990476D1C58E00A9969
:101D70004FF00A0901C90A91002802DA40422D21D8
:101D800002E0390504D52B218DF82010012103E054
:101D9000F90704D02021F7E78A4608AE0DE00021BC
:101DA000FAE70A994FF00A0901C90A91F7E749468B
:101DB000FEF756FA303106F8011D0028F7D1ADEBD9
:101DC000060000F12009780701D44FF00108C8454A
:101DD00002DDA8EB090000E000208046002706E0B5
:101DE00008A85A46C05D0B9990476D1C7F1C57454B
:101DF000F6DB04E030205A460B9990476D1CB8F191
:101E00000001A8F10108F5DC05E016F8010B5A46BF
:101E10000B9990476D1CB9F10001A9F10109F4DC9F
:101E2000641C65E70928010070B504460D460020D2
:101E30002071401EE0622946204600F045FC08B1B2
:101E4000032070BD94F82E1294F82F0241EA00206E
:101E50004AF65521884201D00220F2E794F8690041
:101E6000010694F8680041EA004194F8670041EAED
:101E7000002094F86610084320F07F400D49884206
:101E800001D10020DDE794F88500010694F8840074
:101E900041EA004194F8830041EA002094F882105E
:101EA000084320F07F400349884201D10020C8E761
:101EB0000120C6E74641540010B504460D2C10D150
:101EC00000210C480C4A1278815400F017F8302297
:101ED0004FF480710748FEF787F900200649087023
:101EE00007E0054801780078401C034A107001485B
:101EF000445410BDA8400020300000201FB53C48CD
:101F000001683C48FEF782F918B901203A49087087
:101F100066E0374803AB6A4641683648FEF784F905
:101F2000022839D135A16846FEF770F968B90398DF
:101F300028B94FF480613248FFF7B5FA50E04FF40A
:101F400080612F48FFF7B1FA4AE02EA16846FEF7FC
:101F50005DF968B9039828B94FF400612848FFF784
:101F6000A2FA3DE04FF400612548FFF79EFA37E002
:101F700025A16846FEF74AF9002831D1039828B90F
:101F80004FF480511E48FFF78EFA29E04FF480513C
:101F90001B48FFF78AFA23E01CA11648FEF736F922
:101FA00018B90020144908701AE01AA11148FEF768
:101FB0002DF990B94FF480611148FFF776FA4FF48C
:101FC00000610F48FFF771FA4FF480510C48FFF79A
:101FD0006CFA00200849087002E010A0FFF754FED8
:101FE00030224FF480710348FEF7FEF81FBD000059
:101FF00034000020A84000203100002072000000C2
:10200000001C0240670000006200000073746F70E3
:1020100000000000636C6561720000000A4E6F20D2
:102020007375636820636F6D6D616E642C20706CD6
:102030006561736520636865636B20616761696EC4
:10204000210A000070B50446012614B1012C12D1FA
:1020500000E012E0FFF766FB4FF4FA7500BF281EA0
:10206000A5F101018DB2FAD1FFF72EF9012000F0A0
:1020700043F8064601E0042600BF00BF304670BDAD
:1020800010B50346042013B1012B16D100E016E071
:10209000012904D0022906D003290BD107E04FF40F
:1020A0008054146006E04FF48054148002E0012450
:1020B000146000BF00BF002001E0042000BF00BF8B
:1020C00010BD2DE9F04106460F461446984616B15C
:1020D000012E0BD100E00BE004F580544FEA0832EA
:1020E00021033846FFF70AF8002501E0042500BF68
:1020F00000BF2846BDE8F08170B50446012514B143
:10210000012C0BD100E00BE0FFF7C2F80649884232
:1021100002D125F0010500E0012501E0042500BF02
:1021200000BF284670BD00001940EF002DE9F047C0
:1021300006460F46144698464FF0040916B1012E84
:1021400010D100E011E004F5805425032846FFF784
:102150007BF84FEA083229463846FEF7F9FF4FF080
:10216000000902E04FF0040900BF00BF4846BDE887
:10217000F0870000F7B582B016460398019001A8D9
:1021800000F024FA0546002D02DA0B2005B0F0BD60
:102190000E4850F825400CB100202070029810B174
:1021A0000020029908700949029841F82500029818
:1021B00008B1012E01D00020E8E7002203A902A8FF
:1021C00000F006F807463846E0E70000440000202B
:1021D0002DE9F74F8AB000210A9801600B9800F0B2
:1021E000F5F909900998002803DA0B200DB0BDE835
:1021F000F08FE949099851F820400CB90C20F5E717
:102200000A980460207878B16078FFF775FF8146FE
:1022100009F0010040B90C9820B109F0040008B1A0
:102220000A20E3E70020E1E70020207009986070B1
:102230006078FFF707FF814609F0010008B103202D
:10224000D4E70C9820B109F0040008B10A20CDE7CA
:10225000607804F10A020221FFF712FF38B96089A1
:10226000B0F5007F03DB6089B0F5805F01DD012000
:10227000BCE7002739462046FFF7D6FD0546012D6D
:1022800001D09DBB32E000261AE004F5F77000EBA8
:10229000061898F8040070B198F80B00010698F839
:1022A0000A0041EA004198F8090041EA002098F844
:1022B0000810084300E0002002A941F82600761C1F
:1022C000042EE2D3002606B1761E00BF02A850F805
:1022D000267027B139462046FFF7A6FD00E0022010
:1022E00005461DB1701C06460428EFD3032D01D10D
:1022F00001207BE70DB10D2078E73B20015D94F8CC
:102300003C0041EA00206189884201D00D206DE740
:102310004620015D94F8470041EA002ABAF1000F17
:102320000ED194F85700010694F8560041EA004196
:1023300094F8550041EA002094F8541040EA010A4C
:10234000C4F818A04020005DE070E078012804D0B7
:10235000E078022801D00D2048E7E0780AFB00FA77
:102360003D20005DA070A07818B1A078411E084003
:1023700008B10D203AE74120015D94F8420041EA9E
:10238000002020816089C11700EBD16149112289A9
:1023900092FBF1F301FB132109B10D2026E7432045
:1023A000015D94F8440041EA00200890089870B953
:1023B00094F85300010694F8520041EA004194F861
:1023C000510041EA002094F85010084308903E2044
:1023D000015D94F83F0041EA00200190019808B99E
:1023E0000D2003E76089C11700EBD16149112289F3
:1023F00092FBF1F20199514411440791DDE9071074
:10240000884201D20D20F1E6DDE90710401AA178DB
:10241000B0FBF1FBBBF1000F01D10D20E6E6012579
:1024200040F6F670834500D302254FF6F6708345DB
:1024300000D303250BF102006061E7610198384485
:10244000206207983844A062032D16D1208908B174
:102450000D20CBE694F85F00010694F85E0041EA97
:10246000004194F85D0041EA002094F85C100843B4
:10247000606260698000069014E0208908B90D2030
:10248000B4E6206A50446062022D02D160694000C7
:1024900007E0207D00F00100616901EB410100EBE4
:1024A000510006906089401E069908446189B0FB7E
:1024B000F1F0A169884201D90D2097E64FF0FF3075
:1024C0002061E06080206071032D5AD194F8601083
:1024D00094F8610041EA0020012852D1791C20467D
:1024E00000F0F2F8E8BB0020607194F82E1294F826
:1024F0002F0241EA00204AF65521884241D133207B
:10250000005D01063220005D41EA00413120005D9E
:1025100041EA002094F8301008432049884230D125
:1025200094F81702010694F8160241EA004194F863
:10253000150241EA002094F8141208431849884211
:102540001FD194F81B02010694F81A0241EA0041D7
:1025500094F8190241EA002094F818120843206107
:1025600000E00EE094F81F02010694F81E0241EA12
:10257000004194F81D0241EA002094F81C1208431F
:10258000E060257007480088401C80B2054908803B
:10259000E08000202AE60000440000205252614101
:1025A000727241614C00002070B504460D46E1B2E4
:1025B0000548FFF762FB00BF80210348FFF7A4FA3C
:1025C0000028F9D0204670BD0010014070B50246C9
:1025D0004FF0FF301568E5B1116800E0491C0D7837
:1025E000202D02D30D783A2DF8D10D783A2D0FD148
:1025F000146814F8015BA5F130030A2B07D28C4252
:1026000005D1022B03D218464D1C2946156070BD1A
:10261000002000BFFBE70000FEF75EFF4FF4805193
:102620001248FEF740FF4FF480611048FEF73DFF6F
:102630004FF400610D48FEF738FFFFF729FA0CA0B0
:10264000FFF722FB012216A11648FFF793FD16495A
:1026500008700846017815A0FFF716FB012210A1AB
:102660000020FFF787FD00BFFEE70000001C0240CE
:102670002A2A2A2A2A2A2A2A2A2A2A2A4641544641
:10268000532066696C652073797374656D20746579
:1026900073742A2A2A2A2A2A2A2A2A2A2A2A0A0051
:1026A000313A0000542000202B0000205B464154AA
:1026B00046535D205B7265735F666C6173683A2098
:1026C00025645D0A0000000070B504460D46002632
:1026D000E06AA84210D0204600F010F806465EB925
:1026E000607801232A4604F13001FFF7EAFC10B1BB
:1026F0004FF0FF350126E562304670BD2DE9F0410F
:10270000044600272079F8B1E56A607801232A465B
:1027100004F13001FFF70AFD08B1012714E00020A1
:102720002071206A281AA16988420DD2E67809E052
:10273000A0690544607801232A4604F13001FFF7BF
:10274000F5FC761E022EF3D23846BDE8F081DDDDC1
:10275000DDDDDCBBBBDDDDDDDDDDDDDDDDDD988888
:102760008888888888887777777777888888855574
:1027700055566666666666666666666888888333EA
:10278000333222222222222222222228888D000075
:102790006C6564202573202564000000666C6173FD
:1027A0006800000073746F7000000000636C656166
:1027B00072000000D4270008000000205400000030
:1027C000A81C0008282800085400002054510000CC
:1027D000B81C000800000000010203040102030409
:1027E00006070809000000007468697320697320F7
:1027F00061207465737420737472696E67210000C0
:1028000000000000000000009C270008902700083E
:10281000A4270008AC27000800000000000000000A
:082820000000000000000000B0
:04000005080001AD41
:00000001FF
