:020000040800F2
:1000000048050020C5010008191300081113000855
:1000100015130008CB100008C318000800000000EA
:10002000000000000000000000000000151500089E
:10003000CF10000800000000E9130008391600087E
:10004000DF010008DF010008DF010008DF01000810
:10005000DF010008DF010008DF010008DF01000800
:10006000DF010008DF010008DF010008DF010008F0
:10007000DF010008DF010008DF010008DF010008E0
:10008000DF010008DF010008DF010008DF010008D0
:10009000DF010008DF010008DF010008DF010008C0
:1000A000DF010008DF010008DF010008DF010008B0
:1000B000DF010008DF010008DF010008DF010008A0
:1000C000DF010008DF010008DF010008DF01000890
:1000D000DF010008A5160008DF010008DF010008A5
:1000E000DF010008DF010008DF010008DF01000870
:1000F000DF010008DF010008DF010008DF01000860
:10010000DF010008DF010008DF010008DF0100084F
:10011000DF010008DF010008DF010008DF0100083F
:10012000DF010008DF010008DF010008DF0100082F
:10013000DF010008DF010008DF010008DF0100081F
:10014000DF010008DF010008DF010008DF0100080F
:10015000DF010008DF010008DF010008DF010008FF
:10016000DF010008DF010008DF010008DF010008EF
:10017000DF010008DF010008DF010008DF010008DF
:10018000DF010008DF010008DF010008DF010008CF
:10019000DF010008DF010008DF010008DF010008BF
:1001A000DF010008DF010008DF010008DFF810D0E0
:1001B00000F0DEFC00480047F91A0008AFF30080A9
:1001C000480500200648804706480047FEE7FEE74E
:1001D000FEE7FEE7FEE7FEE7FEE7FEE7FEE7FEE7F7
:1001E0003D160008AD010008D2B201E000F8012B75
:1001F000491EFBD270470022F6E710B513460A46A7
:1002000004461946FFF7F0FF204610BD10B5002246
:1002100000E0521C835C8C5CA34201D1002BF8D11E
:10022000D8B2E1B2401A10BD0FB400B58DB010A91C
:1002300009900B9000914FF0FF300A9000200C9035
:1002400005480690054807906A4609A80F9900F0EE
:100250007FFB0DB05DF814FB6D0900088B090008E9
:100260002DE9FF4F1C4681B00021D4E9016791467A
:100270004FF0FF358A468846A1696D1C0298884771
:10028000216A834688470028F6D1BBF1FF3F0CD096
:1002900026F4C066002F1ADD700615D5BBF12B0FB2
:1002A0000AD0BBF12D0F0FD104E04FF0FF3005B0A5
:1002B000BDE8F08F46F48066A1696D1C02988847FE
:1002C0007F1E8346002F02DDBBF1300F03D0B9F152
:1002D000000F2AD025E0A1696D1C46F400767F1E30
:1002E000029888478346002F05DDBBF1780F06D0C2
:1002F000BBF1580F03D0B9F1000F10D011E0B9F1E4
:10030000000F02D0B9F1100F0BD1A1696D1C26F4BA
:1003100000767F1E029888478346102000E0082060
:1003200081464FEAE970009017E00A20F8E743465B
:10033000AAFB092803FB0980DDF800C07F1E0AFB29
:100340000C0112EB0B0A41EBEB78A16946F4007645
:1003500005F10105029888478346002F06DD4946CE
:10036000584600F03BFC5FEA000BE0D5E1690298DB
:100370008847B00502D46FF0010098E7F00718D164
:10038000700610D57005514605D50023D1EB030149
:1003900063EB080200E042462068031D236000680A
:1003A000C0E9001205E02068011D21600068C0E975
:1003B00000A828467BE72DE9FF5F1D464FF0FF3B75
:1003C000D5E9014691465F464FF00008A9697F1CB8
:1003D00001988847296A824688470028F6D1BAF1F1
:1003E000FF3F0CD024F4C064002E19DD600614D544
:1003F000BAF12B0F09D0BAF12D0F0ED103E05846F8
:1004000004B0BDE8F09F44F48064A9697F1C0198A2
:100410008847761E8246002E02DDBAF1300F03D0E7
:10042000B9F1000F26D032E0A969761E44F40074B9
:100430007F1C019888478246002E05DDBAF1780FAF
:1004400006D0BAF1580F03D0B9F1000F10D01EE05A
:10045000B9F1000F02D0B9F1100F18D1A969761EB9
:1004600024F400747F1C019888478246102002E023
:10047000082000E00A20814609E008FB0908A96974
:10048000761E44F400747F1C019888478246002E33
:1004900005DD4946504600F0A1FB0028EDDAE96988
:1004A00001988847A00502D46FF00100A8E7E00793
:1004B00025D1600613D5600502D5C8F1000000E023
:1004C000404629680A1D2A600968220501D508707E
:1004D00015E0220701D5088011E008600FE02868C8
:1004E000011D29600068210502D580F8008006E022
:1004F000210702D5A0F8008001E0C0F8008038464E
:100500007EE72DE9FF5FD2E901A74FF0000891696E
:1005100099461446DDF838B04646019888470546A6
:1005200059EA0B0005D009E0A169761C01988847BB
:100530000546216A284688470028F5D1681C03D063
:100540005FEACA7005D015E04FF0FF3004B0BDE897
:10055000F09F2068011D2160D0F800800AE05FEA6A
:10056000CA7001D108F8015BA169761C7F1E019851
:1005700088470546002F1ADD681C18D0B9F1000F16
:100580000DD0E81705EBD060421120F01F0059F89C
:1005900022102A1A012090400142E0D107E0BBF16D
:1005A000000FDCD1216A284688470028D7D0E169AE
:1005B00001988847BBF1000F07D1002E05DD5FEAE7
:1005C000CA7002D1002188F80010A068B84203DD8B
:1005D000BBF1000F03D017B16FF00100B6E7304652
:1005E000B4E700002DE9FF4F087883B09946FF2853
:1005F00005D0491C2D2804D00024002008E000204C
:100600000BE00124F9E700EB800003EB4000491CFC
:100610000B78FF2BF7D104B14042002302931478EA
:1006200019461D462D2C01D02B2C04D1521C2D2CEB
:1006300013D000240294AA461478FF2C0FD00A2568
:10064000A3FB057801FB05814FF0000C03FB0C11A7
:10065000521CE3194AEB0101EEE70124EAE7814469
:1006600053EA010002D019F5C87F06DA0398002189
:10067000C0E9001107B0BDE8F08F0025AE4E2F464F
:10068000DFF8B882184600F0ACFCCDE90001B9F102
:10069000000002DAC9F1000400E004460023A74A82
:1006A0001AEB030B42EB045A12E0E00707D02A468C
:1006B00033463846414600F079F9074688462A46CF
:1006C00033461046194600F071F905460E4664108F
:1006D000002CEAD1DDE90001B9F1000F5A4653467A
:1006E00006DA00F0D5F93A46434600F0D1F905E0C4
:1006F00000F05CF93A46434600F058F9029A0AB114
:1007000081F00041039AC2E90001B3E72DE9FF4FF0
:100710001F468DB0D7E901464FF0FF382E204546E1
:100720004FF000090B90B9696D1C0E988847396A23
:10073000824688470028F6D1BAF1FF3F0AD024F458
:10074000D064002E11DDBAF12B0F08D0BAF12D0FB5
:100750000BD102E0404611B08DE744F48064B969E2
:100760006D1C0E9888478246761E6946600501D545
:100770002D2000E02B208DF8000001F1010B0DF180
:10078000200809E0B9696D1C0E98884782460F98C9
:1007900044F40074761E0560002E02DDBAF1300FBD
:1007A000F0D00B998A453ED144F0800406E00F99C1
:1007B000681CA9F1010944F400740860B9696D1C52
:1007C000761E0E98884782463028F0D02BE00B9991
:1007D0008A4505D1200603D444F08004761E18E033
:1007E000504601F088F808B30DF11301761E44F469
:1007F00000748B4508D2AAF130000BF8010B2006DB
:1008000007D5A9F1010003E0200602D409F1010097
:100810008146A00502D50F99681C0860B9696D1C56
:100820000E9888478246002ED1DC53E0002E51DD21
:10083000BAF1650F02D0BAF1450F4BD1A00549D5E9
:10084000B9696D1C24F44074761E0E988847824660
:10085000002E0CDD2B2804D0BAF12D0F07D144F463
:100860008074B9696D1C0E9888478246761EE00533
:1008700001D52D2100E02B2108F8011BCDF82C809B
:1008800021E00DF12901761E44F4007488450CD254
:10089000AAF1300010F0FF0088F8000002D10B9997
:1008A000884509D908F1010806E0E00501D524488A
:1008B00001E042F20F708146B9696D1C0E988847BD
:1008C00082460F980560002E04DD504601F013F8B3
:1008D0000028D6D1F9690E988847FF208BF80000D0
:1008E00088F800000020069007904B466A4608A949
:1008F00006A8FFF777FEA00502D46FF001002AE7F3
:1009000014F0240F0AD0E00714D1DDE9061238688C
:10091000031D3B600068C0E900120BE0DDE9060141
:1009200000F06BFB0146E00704D13868021D3A6015
:100930000068016028460EE7000014400000F03F08
:10094000F1D8FFFF02681144137801601846704720
:10095000D1600449516104491162002111611146BD
:1009600000F04AB945090008D30B0008426842B1BB
:10097000016811F8013B23B1521EC0E9001218466C
:1009800070470121C160881E704742685AB1C36830
:10099000016843B983688B4205D0491E521CC0E9E7
:1009A0000012002070474FF0FF3070472DE9FE4FD6
:1009B00081EA030404F0004421F0004100944FF068
:1009C000000B23F0004350EA01045ED052EA030416
:1009D0005BD0C3F30A54C1F30A552C44A4F2F33498
:1009E0000194A0FB0254C1F3130141F48011C3F33D
:1009F000130343F4801301FB024400FB034E840AFB
:100A0000970A44EA815447EA8357A4FB0768029592
:100A10008D0A05FB07854FEA932C04FB0C54270530
:100A2000029D4FEA065847EA1637B5EB08056EEB0C
:100A3000070C870E920E47EA811742EA8312A7FB42
:100A40000201B6EB0B0164EB00042B0D43EA0C33FF
:100A50005E1844EB1C50DA465146E7FB0201C5F331
:100A600013044FEA0B3343EA14534FEA0432019C58
:100A700043EA0603A4F10C040294009CCDE900B4FF
:100A800000F061FA03B0BDE8F08F00200146F9E7FD
:100A90002DE9F04D81EA030404F0004B21F00045FC
:100AA00014464FF0000A23F0004150EA050220D01E
:100AB00054EA01021DD0C5F30A570246C5F31303D9
:100AC000C1F31300C1F30A5640F4801543F48013B8
:100AD000A7EB0608101BD64608F2FD3873EB05009D
:100AE00002D308F1010801E092185B41B8F1000F50
:100AF00003DA00200146BDE8F08D00204FF480119C
:100B0000064684460EE0171B73EB050705D3121B40
:100B100063EB050306434CEA010C49084FEA300039
:100B200092185B4150EA0107EDD152EA030012D05E
:100B300082EA040083EA0501084305D0101BAB419B
:100B400006D20122002306E000224FF0004302E01B
:100B50006FF0010253101AEB06004CEB085110EB3A
:100B60000A0041EB0B01BDE8F04D00F0DDB90000DB
:100B7000064C074D06E0E06840F0010394E80700EA
:100B800098471034AC42F6D3FFF714FBCC1B000897
:100B9000EC1B0008202A04DB203A00FA02F10020B6
:100BA00070479140C2F1200320FA03F319439040AB
:100BB0007047202A04DB203A21FA02F00021704716
:100BC00021FA02F3D040C2F12002914008431946B5
:100BD0007047C0B24FF4F05100F02CBA3A2800D25E
:100BE000303820F02002412A01D3A2F13700884298
:100BF00001D34FF0FF3070472DE9F34F8BB04FF02A
:100C0000000801F10C000C464FF0010B46460DF1B7
:100C1000080A01906269012101989047051E2DD0B4
:100C2000252D2CD0216A8847C0B162690121019825
:100C30009047216A88470028F7D1411E62690198D0
:100C4000904700E0761CA1690B988847216A884785
:100C50000028F7D1E1690B988847DBE7A1690B9879
:100C600088470746A84201D1761CD3E7E1690B9873
:100C700088477F1C02D1B8F1000F6FD047E10027F1
:100C800062693D463946019890472A2804D1626935
:100C90000121019890470125DFF8889262690121BE
:100CA00001989047A0F130010A290AD24F45E5DCAE
:100CB00007EB870100EB4107303FDFD445F010051B
:100CC000ECE7E90601D46FF000476C280AD04C2805
:100CD00014D0682815D06A280DD074281CD07A2822
:100CE0001AD01DE062690121019890476C2802D05A
:100CF00045F0040514E045F002050DE045F020053F
:100D00000AE06269012101989047682802D045F005
:100D1000080505E045F400656269012101989047E6
:100D2000C4E9015765283DD019DC58287AD00CDC7D
:100D3000452837D004DC252826D0412831D131E0A0
:100D400046282FD047282CD12CE05B2877D061286B
:100D500028D063287CD0642823D15AE0D1E06F28C2
:100D600048D008DC66281DD067281BD0692821D010
:100D70006E2816D127E0702845D0732868D07528D2
:100D800047D078280DD14DE0A1690B9888470546DA
:100D900025283FF469AFE1690B9888476D1C3FF443
:100DA0006AAFB4E023466A466FF001000B99FFF783
:100DB000ADFC9FE045F040006060A80723464FF07F
:100DC000000236D43EE0E8077FF447AF2068011DFB
:100DD00021600068290501D506701BE7290701D5A8
:100DE000068017E7A90703D5F117C0E9006111E7ED
:100DF00006600FE745F040006060A80723464FF00B
:100E0000080216D41EE040F60E0125EA01006060DB
:100E100016E045F040006060A80723464FF00A0244
:100E200007D40FE045F040006060A80708D52346CE
:100E300010226FF001000B99FFF712FA5AE007E059
:100E4000234610226FF001000B99FFF7B4FA51E02E
:100E50004FF000094F464B46632802D05B2807D06D
:100E600041E02079C00601D40120A06001273AE0CA
:100E700062690121019890475E2805D14FF0010970
:100E80006269494601989047216939B900210A46AB
:100E9000534643F82120491C0829FADBB0B32169E5
:100EA00069B9C11700EBD16253110AEB830122F03B
:100EB0001F02821A01200B68904003430B60626995
:100EC0000121019890475D28E8D1B9F1000F09D0C0
:100ED0000020514651F82020D24341F82020401CE8
:100EE0000828F7DB02AB224600976FF001000B9950
:100EF000FFF707FB00280CDA401C08D1BBF1000FFC
:100F000005D04FF0FF300DB0BDE8F08FFFE7404651
:100F1000F9E7E90701D108F1010806444FF0000B99
:100F200078E60000CCCCCC0C10B5141E73F1000494
:100F300008DA401C41F1000192185B411A4301D1CB
:100F400020F0010010BD2DE9F04D92469B4611B1F5
:100F5000B1FA81F202E0B0FA80F220329046FFF757
:100F600019FE04460F4640EA0A0041EA0B015346C7
:100F70005A46084313D0114653EA010019D0C8F16C
:100F800040025046FFF715FE05460E4650465946AC
:100F90004246FFF7FFFD084305D0012004E020464C
:100FA0003946BDE8F08D0020054346EAE0762C4343
:100FB00037430A986305E40AA0EB08000022FD0A03
:100FC00044EA47540A3002D500200146E9E701050A
:100FD00010196941DDE9084500196941BDE8F04D86
:100FE000A2E70EB540F2334202920022CDE9002280
:100FF0001346FFF7A8FF03B000BD01F0004330B473
:1010000021F0004150EA010206D00A0DA2F56072FB
:10101000C1F31301002A02DC30BC00207047440FEA
:1010200044EAC104C100E01830BC00EBC25000F03B
:1010300015B800007F2801D9002208E0064A02EB1B
:101040005002C007127800D1120902F00F020120ED
:101050009040084070470000241B00080029A8BFEA
:101060007047401C490008BF20F00100704710B4D1
:10107000B0FA80FC00FA0CF050EA010404BF10BC86
:10108000704749B1CCF1200421FA04F411FA0CF1B3
:1010900018BF012121430843A3EB0C01CB1D4FEAEC
:1010A00000614FEA102042BF002010BC704700EBE7
:1010B000C35010440029A4BF10BC7047401C490015
:1010C00008BF20F0010010BC704700BFFEE770476A
:1010D00010B531480068322858D33049086800EB11
:1010E000D0714910A0EB4101C1BB2D48006803211C
:1010F00090FBF1F201FB12002949086008460068E4
:1011000020B101280DD0022821D115E04FF48061D3
:10111000244800F0CCF84FF48051224800F0C9F880
:1011200015E04FF400611F4800F0C1F84FF48061F2
:101130001C4800F0BEF80AE04FF48051194800F056
:10114000B6F84FF40061174800F0B3F800BF00BFD5
:1011500013480068401C124908600FE0FFE74FF495
:101160008061104800F0A5F84FF400610D4800F0D0
:10117000A0F84FF480510B4800F09BF8002006497E
:10118000086006480068401C04490860024800687E
:10119000401C0149086010BD3800002040000020BC
:1011A0003C000020001C0240F0B50A46002100234C
:1011B000002400BF3DE0012505FA01F3156805EAAA
:1011C00003049C4234D105684F000326BE40B5435A
:1011D000056015794E00B540066835430560157900
:1011E000012D02D01579022D16D185684F000326F6
:1011F000BE40B543856055794E00B540866835439D
:101200008560456801268E40B543456045689679FE
:101210008E40B6B235434560C5684F000326BE40D8
:10122000B543C560D5794E00B540C6683543C56045
:10123000491C1029BFD3F0BD7CB505460C4600946F
:1012400001208DF8040000208DF8060002208DF8A2
:1012500007008DF8050069462846FFF7A5FF2146DF
:10126000284600F026F87CBDF0B5002300244D0789
:10127000ED0E02FA05F3CE1000F1200555F82650C8
:101280004E07F70E0F26BE40B543CF1000F12006E3
:1012900046F82750CE1000F1200555F8265045EAB3
:1012A0000304CE1000F1200545F82640F0BD41832F
:1012B0007047018370477CB505460C4600940220B8
:1012C0008DF8040000208DF8060002208DF807003C
:1012D0008DF8050069462846FFF766FF7CBD0000D3
:1012E00010B50121802000F081F84FF4806107489B
:1012F000FFF7A2FF4FF400610448FFF79DFF4FF492
:1013000080510248FFF798FF10BD0000001C02400A
:1013100000BFFEE700BFFEE77047000070B5002188
:1013200000230F22C4781CB3174C246804F4E06433
:10133000C4F5E064C4F30721C1F10404E3B20A4137
:1013400044789C40E1B28478144021430C07210E7C
:101350000E4C05786155047804F01F050124AC405B
:1013600005786D11AD0005F1E025C5F8004109E0F3
:10137000047804F01F050124AC40054D0678761171
:1013800045F8264070BD00000CED00E000E400E0F0
:1013900080E100E008B54FF4A06000F01BF82520C4
:1013A0008DF8000001208DF801008DF802008DF805
:1013B00003006846FFF7B2FF252000F01F0201215D
:1013C00091404209920002F1E022C2F8001100BFF0
:1013D00008BD000002490143024A11607047000045
:1013E0000000FA050CED00E07047000029B1064A44
:1013F00012680243044B1A6004E0034A12688243F5
:10140000014B1A60704700003038024029B1064A8B
:1014100012680243044B1A6004E0034A12688243D4
:10142000014B1A607047000044380240F0B50021BB
:1014300000220024022500260223324F3F6807F0D5
:101440000C0121B1042905D0082937D105E02E4F20
:10145000076036E02D4F076033E02A4F3F1F3F689B
:10146000C7F38056274F3F1F3F6807F03F036EB119
:10147000264FB7FBF3F7DFF88CC0ACF1040CDCF8B7
:1014800000C0CCF3881C07FB0CF40CE01E4FB7FB2C
:10149000F3F7DFF870C0ACF1040CDCF800C0CCF35B
:1014A000881C07FB0CF4174F3F1F3F68C7F3014729
:1014B0007F1C7D00B4FBF5F7076002E0124F076068
:1014C00000BF00BF0F4F3F6807F0F0010909104F40
:1014D0007A5C0768D74047600A4F3F6807F4E051DD
:1014E000890A0B4F7A5C4768D7408760054F3F6891
:1014F00007F46041490B064F7A5C4768D740C760E4
:10150000F0BD0000083802400024F40040787D015E
:1015100014000020704700000CB5002001900090DE
:101520004148006840F480303F49086000BF3E48B1
:10153000006800F4003000900198401C0190009871
:1015400018B90198B0F5A04FF1D13748006800F400
:10155000003010B10120009001E0002000900098C0
:10156000012860D130484030006840F080502E495A
:10157000403108602D48006840F440402B49086025
:101580002948083000682849083108600846006882
:1015900040F4004008600846006840F4A05008602D
:1015A0002348091F0860081F006840F08070091F69
:1015B000086000BF1C48006800F000700028F9D0E7
:1015C0001A48006840F480301849086000BF174886
:1015D000406800F480300028F9D01448006840F4D6
:1015E00000301249086000BF1048406800F4003025
:1015F0000028F9D040F205700E4908600A4808300A
:10160000006820F0030008490831086008460068B7
:1016100040F00200086000BF03480830006800F096
:101620000C000828F8D10CBD0038024000700040C2
:10163000195A4007003C02407047000010B5154899
:10164000006840F47000134908601348006840F0D7
:1016500001001149086000200F49083108600E4858
:1016600000680E4908400C4908600D48091D0860D3
:10167000081F006820F48020091F08600020064928
:101680000C310860FFF748FF4FF0006001498039D6
:10169000086010BD88ED00E000380240FFFFF6FE54
:1016A0001030002410B52021084800F04DF8012822
:1016B0000BD1064800F0FCF80446E0B200F034F923
:1016C0002146024800F0F9F800BF10BD00100140AB
:1016D00010B501210846FFF789FE01211020FFF710
:1016E00095FE4FF400711048FFF7E5FD4FF480615F
:1016F0000D48FFF7E0FD072209210B48FFF7B4FD75
:1017000007220A210848FFF7AFFD00F0B9F8FFF7FC
:1017100041FE012240F22551044800F022F8012147
:10172000024800F005F810BD000002400010014022
:1017300021B1828942F40052828104E082894DF60F
:10174000FF731A408281704702460020B1F5007F86
:1017500000D100BF13880B400BB1012000E0002036
:101760007047F0B50346002400260025002040F60F
:101770006A17B94200D100BF1846C1F3421401F004
:101780001F06012707FA06F5012C01D10C3004E0F1
:10179000022C01D1103000E014301AB107682F4339
:1017A000076002E00768AF430760F0BD2DE9FF471F
:1017B00005460E460024A14600BFA046B08900B1F0
:1017C00000BF2C8A24F44054F08804432C82AC8956
:1017D00041F20C608443B088318908437189084321
:1017E0000443AC81AC8A24F44074B0890443AC82D5
:1017F0006846FFF71BFE2048854202D01F488542FD
:1018000002D1DDF80C9001E0DDF80890A88900F421
:10181000004040B109EBC90000EB091031684900F4
:10182000B0FBF1F707E009EBC90000EB09103168E4
:101830008900B0FBF1F76420B7FBF0F00401200948
:10184000642101FB1078A88900F4004040B13220E7
:1018500000EBC800B0FBF1F000F00700044308E023
:10186000322000EB08106421B0FBF1F000F00F0013
:1018700004432C81BDE8FF870010014000140140A3
:101880001FB54FF4E13000900020ADF804000C20AB
:10189000ADF80A000020ADF80800ADF80600ADF87C
:1018A0000C0069460148FFF781FF1FBD0010014091
:1018B00001468888C0F308007047C1F3080282809F
:1018C000704700BFFEE70000014A024900F01AB865
:1018D000D51A00084400002002E008C8121F08C101
:1018E000002AFAD170477047002001E001C1121FA1
:1018F000002AFBD1704730380A2801D201207047F6
:10190000002070472DE9F04116460F460446002599
:1019100003E03946B047641C6D1C20780028F8D1DC
:101920002846BDE8F081000010B504460D2C10D10A
:1019300000210C480C4A1278815400F017F830222C
:101940004FF480710748FEF74FFC002006490870ED
:1019500007E0054801780078401C034A10700148F0
:10196000445410BD48000020240000201FB53C480E
:1019700001683C48FEF74AFC18B901203A49087052
:1019800066E0374803AB6A4641683648FEF74CFCD0
:10199000022839D135A16846FEF738FC68B90398AA
:1019A00028B94FF480613248FFF781FC50E04FF4D2
:1019B00080612F48FFF77DFC4AE02EA16846FEF7C4
:1019C00025FC68B9039828B94FF400612848FFF74F
:1019D0006EFC3DE04FF400612548FFF76AFC37E0FC
:1019E00025A16846FEF712FC002831D1039828B9DA
:1019F0004FF480511E48FFF75AFC29E04FF4805104
:101A00001B48FFF756FC23E01CA11648FEF7FEFB1F
:101A100018B90020144908701AE01AA11148FEF7FD
:101A2000F5FB90B94FF480611148FFF742FC4FF489
:101A300000610F48FFF73DFC4FF480510C48FFF761
:101A400038FC00200849087002E010A0FFF73CFFB6
:101A500030224FF480710348FEF7C6FB1FBD000023
:101A6000280000204800002025000020720000000F
:101A7000001C0240670000006200000073746F7079
:101A800000000000636C6561720000000A4E6F2068
:101A90007375636820636F6D6D616E642C20706C6C
:101AA0006561736520636865636B20616761696E5A
:101AB000210A0000064A12684FF47A73B2FBF3F170
:101AC000414300BF0A1EA1F10101FBD17047000094
:101AD0000000002070B504460D46E1B20548FFF74E
:101AE000ECFE00BF80210348FFF72EFE0028F9D04E
:101AF000204670BD00100140FFF7EAFDFFF7F0FB44
:101B00000648FFF7E1FE07E00548007820B1052010
:101B1000FFF7D0FFFFF7DCFAF6E70000641B0008D0
:101B200025000020DDDDDDDDDCBBBBDDDDDDDDDD59
:101B3000DDDDDDDD98888888888888887777777705
:101B400077888888855555566666666666666666D1
:101B5000666888888333333222222222222222227C
:101B60002228888D5B55534152545D5B4C4544207F
:101B7000436F6E74726F6C5D3A0A312E206C65642F
:101B800020722F672F6220302F310A322E20666C90
:101B90006173680A332E2073746F700A342E2063C9
:101BA0006C6561720A0000006C6564202573202555
:101BB00064000000666C61736800000073746F70ED
:101BC00000000000636C656172000000EC1B0008FF
:101BD0000000002048000000D8180008341C00084D
:101BE0004800002000050000E81800080095BA0A27
:101BF00000000000000000000102030406070809BD
:101C000000000000010203040102030406070809A2
:101C100000000000B41B0008A81B0008BC1B000843
:101C2000C41B0008000000000000000000000000CD
:041C300000000000B0
:04000005080001AD41
:00000001FF
