:020000040800F2
:1000000028040020C5010008250300081D0300087E
:10001000210300080D020008350700080000000059
:100020000000000000000000000000003104000893
:100030001102000800000000270300085505000811
:10004000DF010008DF010008DF010008DF01000810
:10005000DF010008DF010008DF010008DF01000800
:10006000DF010008DF010008DF010008DF010008F0
:10007000DF010008DF010008DF010008DF010008E0
:10008000DF010008DF010008DF010008DF010008D0
:10009000DF010008DF010008DF010008DF010008C0
:1000A000DF010008DF010008DF010008DF010008B0
:1000B000DF010008DF010008DF010008DF010008A0
:1000C000DF010008DF010008DF010008DF01000890
:1000D000DF010008DF010008DF010008DF01000880
:1000E000DF010008DF010008DF010008DF01000870
:1000F000DF010008DF010008DF010008DF01000860
:10010000DF010008DF010008DF010008DF0100084F
:10011000DF010008DF010008DF010008DF0100083F
:10012000DF010008DF010008DF010008DF0100082F
:10013000DF010008DF010008DF010008DF0100081F
:10014000DF010008DF010008DF010008DF0100080F
:10015000DF010008DF010008DF010008DF010008FF
:10016000DF010008DF010008DF010008DF010008EF
:10017000DF010008DF010008DF010008DF010008DF
:10018000DF010008DF010008DF010008DF010008CF
:10019000DF010008DF010008DF010008DF010008BF
:1001A000DF010008DF010008DF010008DFF810D0E0
:1001B00000F01AF80048004779070008AFF3008004
:1001C000280400200648804706480047FEE7FEE76F
:1001D000FEE7FEE7FEE7FEE7FEE7FEE7FEE7FEE7F7
:1001E00059050008AD010008064C074D06E0E0681F
:1001F00040F0010394E8070098471034AC42F6D36E
:10020000FFF7D8FF94070008B407000800BFFEE717
:100210007047F0B50A4600210023002400BF3DE0EE
:10022000012505FA01F3156805EA03049C4234D15F
:1002300005684F000326BE40B543056015794E00A2
:10024000B5400668354305601579012D02D0157952
:10025000022D16D185684F000326BE40B543856048
:1002600055794E00B540866835438560456801265E
:100270008E40B5434560456896798E40B6B23543A9
:100280004560C5684F000326BE40B543C560D579BB
:100290004E00B540C6683543C560491C1029BFD320
:1002A000F0BDF0B5002300244D07ED0E02FA05F372
:1002B000CE1000F1200555F826504E07F70E0F26F8
:1002C000BE40B543CF1000F1200646F82750CE10AF
:1002D00000F1200555F8265045EA0304CE1000F140
:1002E000200545F82640F0BD018370477CB50546E2
:1002F0000C46009402208DF8040000208DF80600C2
:1003000002208DF807008DF8050069462846FFF7A2
:1003100080FF21462846FFF7E7FF7CBD00BFFEE7D0
:1003200000BFFEE77047704729B1064A12680243D2
:10033000044B1A6004E0034A12688243014B1A60BE
:100340007047000030380240F0B500210022002440
:10035000022500260223324F3F6807F00C0121B12D
:10036000042905D0082937D105E02E4F076036E073
:100370002D4F076033E02A4F3F1F3F68C7F3805679
:10038000274F3F1F3F6807F03F036EB1264FB7FB73
:10039000F3F7DFF88CC0ACF1040CDCF800C0CCF350
:1003A000881C07FB0CF40CE01E4FB7FBF3F7DFF8DB
:1003B00070C0ACF1040CDCF800C0CCF3881C07FB67
:1003C0000CF4174F3F1F3F68C7F301477F1C7D00A8
:1003D000B4FBF5F7076002E0124F076000BF00BFF3
:1003E0000F4F3F6807F0F0010909104F7A5C07686A
:1003F000D74047600A4F3F6807F4E051890A0B4F26
:100400007A5C4768D7408760054F3F6807F46041D2
:10041000490B064F7A5C4768D740C760F0BD0000C3
:10042000083802400024F40040787D0114000020C8
:10043000704700000CB50020019000904148006812
:1004400040F480303F49086000BF3E48006800F437
:10045000003000900198401C0190009818B9019854
:10046000B0F5A04FF1D13748006800F4003010B16A
:100470000120009001E0002000900098012860D148
:1004800030484030006840F080502E4940310860CC
:100490002D48006840F440402B4908602948083046
:1004A00000682849083108600846006840F40040A8
:1004B00008600846006840F4A05008602348091FFF
:1004C0000860081F006840F08070091F086000BFC6
:1004D0001C48006800F000700028F9D01A48006835
:1004E00040F480301849086000BF1748406800F4A5
:1004F00080300028F9D01448006840F400301249D8
:10050000086000BF1048406800F400300028F9D0AF
:1005100040F205700E4908600A480830006820F073
:1005200003000849083108600846006840F00200EE
:10053000086000BF03480830006800F00C0008287D
:10054000F8D10CBD0038024000700040195A400735
:10055000003C02407047000010B51548006840F4A8
:100560007000134908601348006840F00100114909
:10057000086000200F49083108600E4800680E49E5
:1005800008400C4908600D48091D0860081F0068F4
:1005900020F48020091F0860002006490C31086003
:1005A000FFF748FF4FF0006001498039086010BD37
:1005B00088ED00E000380240FFFFF6FE1030002416
:1005C00010B501218020FFF7AFFE4FF400710C48F9
:1005D000FFF78CFE4FF480610948FFF787FE072282
:1005E00009210748FFF75DFE07220A210448FFF7AB
:1005F00058FE00F07FF80121024800F005F810BD18
:10060000000002400010014021B1828942F40052F2
:10061000828104E082894DF6FF731A40828170471F
:100620002DE9FF4705460E460024A14600BFA0461F
:10063000B08900B100BF2C8A24F44054F0880443F0
:100640002C82AC8941F20C608443B0883189084324
:10065000718908430443AC81AC8A24F44074B089A6
:100660000443AC826846FFF76FFE2048854202D003
:100670001F48854202D1DDF80C9001E0DDF80890BA
:10068000A88900F4004040B109EBC90000EB091053
:1006900031684900B0FBF1F707E009EBC90000EB56
:1006A000091031688900B0FBF1F76420B7FBF0F066
:1006B00004012009642101FB1078A88900F400409E
:1006C00040B1322000EBC800B0FBF1F000F00700B1
:1006D000044308E0322000EB08106421B0FBF1F085
:1006E00000F00F0004432C81BDE8FF87001001409B
:1006F000001401401FB54FF4E13000900020ADF828
:1007000004000C20ADF80A000020ADF80800ADF898
:100710000600ADF80C0069460348FFF781FF012190
:100720001020FFF701FE1FBD00100140C1F30802B9
:100730008280704700BFFEE702E008C8121F08C1B0
:10074000002AFAD170477047002001E001C1121F52
:10075000002AFBD170470000064A12684FF47A73F2
:10076000B2FBF3F1414300BF0A1EA1F10101FBD12D
:100770007047000000000020FFF722FF07E0412142
:100780000348FFF7D3FF4FF47A70FFF7E5FFF6E772
:1007900000100140B4070008000000202400000001
:1007A00038070008D80700082400002004040000CF
:1007B000480700080095BA0A000000000000000089
:1007C00001020304060708090000000001020304F7
:0807D0000102030406070809F9
:04000005080001AD41
:00000001FF
