:020000040800F2
:1000000000040020C5010008BD0300081903000812
:10001000B90300080D020008710500080000000087
:10002000000000000000000000000000E1030008E4
:100030001102000800000000BF03000805050008C9
:10004000DF010008DF010008DF010008DF01000810
:10005000DF010008DF010008DF010008DF01000800
:10006000DF010008DF010008DF010008DF010008F0
:10007000DF010008DF010008DF010008DF010008E0
:10008000DF010008DF010008DF010008DF010008D0
:10009000DF010008DF010008DF010008DF010008C0
:1000A000DF010008DF010008DF010008DF010008B0
:1000B000DF010008DF010008DF010008DF010008A0
:1000C000DF010008DF010008DF010008DF01000890
:1000D000DF010008DF010008DF010008DF01000880
:1000E000DF010008DF010008DF010008DF01000870
:1000F000DF010008DF010008DF010008DF01000860
:10010000DF010008DF010008DF010008DF0100084F
:10011000DF010008DF010008DF010008DF0100083F
:10012000DF010008DF010008DF010008DF0100082F
:10013000DF010008DF010008DF010008DF0100081F
:10014000DF010008DF010008DF010008DF0100080F
:10015000DF010008DF010008DF010008DF010008FF
:10016000DF010008DF010008DF010008DF010008EF
:10017000DF010008DF010008DF010008DF010008DF
:10018000DF010008DF010008DF010008DF010008CF
:10019000DF010008DF010008DF010008DF010008BF
:1001A000DF010008DF010008DF010008DFF810D0E0
:1001B00000F01AF80048004795050008AFF30080EA
:1001C000000400200648804706480047FEE7FEE797
:1001D000FEE7FEE7FEE7FEE7FEE7FEE7FEE7FEE7F7
:1001E00009050008AD010008064C074D06E0E0686F
:1001F00040F0010394E8070098471034AC42F6D36E
:10020000FFF7D8FFDC050008EC05000800BFFEE79B
:100210007047F0B50A4600210023002400BF3DE0EE
:10022000012505FA01F3156805EA03049C4234D15F
:1002300005684F000326BE40B543056015794E00A2
:10024000B5400668354305601579012D02D0157952
:10025000022D16D185684F000326BE40B543856048
:1002600055794E00B540866835438560456801265E
:100270008E40B5434560456896798E40B6B23543A9
:100280004560C5684F000326BE40B543C560D579BB
:100290004E00B540C6683543C560491C1029BFD320
:1002A000F0BD7CB505460C46009401208DF8040095
:1002B00000208DF8060001208DF8070002208DF83F
:1002C000050069462846FFF7A4FF2146284600F0AE
:1002D0001DF87CBD7CB505460C46009400208DF8C9
:1002E000040002208DF8070069462846FFF791FFB9
:1002F0002146284600F00AF87CBD0246002013691A
:100300000B400BB1012000E00020704701837047D3
:1003100042694A404261704700BFFEE710B50121C3
:10032000084600F04DF80121042000F049F80121B1
:100330000448FFF7CFFF4FF400510348FFF7CAFF0F
:1003400010BD0000000002400008024070B50446E5
:100350000D4629462046FFF7D0FF012808D100BFEF
:1003600029462046FFF7C9FF0128F9D0012070BDBA
:100370000020FCE710B50121802000F021F84FF4A7
:1003800080610748FFF78DFF4FF400610448FFF7D5
:1003900088FF4FF480510248FFF783FF10BD000033
:1003A000001C024070B505460E4614461CB131468D
:1003B0002846FFF7ADFF70BD00BFFEE770477047EE
:1003C00029B1064A12680243044B1A6004E0034A4A
:1003D00012688243014B1A607047000030380240B7
:1003E000704700000CB50020019000904148006863
:1003F00040F480303F49086000BF3E48006800F488
:10040000003000900198401C0190009818B90198A4
:10041000B0F5A04FF1D13748006800F4003010B1BA
:100420000120009001E0002000900098012860D198
:1004300030484030006840F080502E49403108601C
:100440002D48006840F440402B4908602948083096
:1004500000682849083108600846006840F40040F8
:1004600008600846006840F4A05008602348091F4F
:100470000860081F006840F08070091F086000BF16
:100480001C48006800F000700028F9D01A48006885
:1004900040F480301849086000BF1748406800F4F5
:1004A00080300028F9D01448006840F40030124928
:1004B000086000BF1048406800F400300028F9D000
:1004C00040F205700E4908600A480830006820F0C4
:1004D00003000849083108600846006840F002003F
:1004E000086000BF03480830006800F00C000828CE
:1004F000F8D10CBD0038024000700040195A400786
:10050000003C02407047000010B51548006840F4F8
:100510007000134908601348006840F00100114959
:10052000086000200F49083108600E4800680E4935
:1005300008400C4908600D48091D0860081F006844
:1005400020F48020091F0860002006490C31086053
:10055000FFF748FF4FF0006001498039086010BD87
:1005600088ED00E000380240FFFFF6FE1030002466
:1005700000BFFEE702E008C8121F08C1002AFAD136
:1005800070477047002001E001C1121F002AFBD113
:1005900070470000FFF7EEFEFFF7C0FE16E00121F6
:1005A0000B48FFF7D3FE044622464FF4806109480A
:1005B000FFF7F8FE4FF400510748FFF7C7FE044667
:1005C00022464FF400610348FFF7ECFEE7E7000026
:1005D00000000240001C024000080240EC05000838
:0C05E0000000002000040000840500085A
:04000005080001AD41
:00000001FF
