:020000040800F2
:1000000000040020C5010008C5040008F903000829
:10001000C10400080D0200089D0700080000000050
:10002000000000000000000000000000CD050008F6
:1000300011020008000000008905000831070008CF
:10004000DF010008DF010008DF010008DF01000810
:10005000DF010008DF01000815020008DF010008C9
:10006000DF010008DF010008DF010008DF010008F0
:10007000DF010008DF010008DF010008DF010008E0
:10008000DF010008DF010008DF010008DF010008D0
:10009000DF010008DF010008DF010008DF010008C0
:1000A000DF010008DF010008DF010008DF010008B0
:1000B000DF010008DF010008DF010008DF010008A0
:1000C000DF010008DF010008DF010008DF01000890
:1000D000DF010008DF010008DF010008DF01000880
:1000E00035020008DF010008DF010008DF01000819
:1000F000DF010008DF010008DF010008DF01000860
:10010000DF010008DF010008DF010008DF0100084F
:10011000DF010008DF010008DF010008DF0100083F
:10012000DF010008DF010008DF010008DF0100082F
:10013000DF010008DF010008DF010008DF0100081F
:10014000DF010008DF010008DF010008DF0100080F
:10015000DF010008DF010008DF010008DF010008FF
:10016000DF010008DF010008DF010008DF010008EF
:10017000DF010008DF010008DF010008DF010008DF
:10018000DF010008DF010008DF010008DF010008CF
:10019000DF010008DF010008DF010008DF010008BF
:1001A000DF010008DF010008DF010008DFF810D0E0
:1001B00000F01AF800480047BF070008AFF30080BE
:1001C000000400200648804706480047FEE7FEE797
:1001D000FEE7FEE7FEE7FEE7FEE7FEE7FEE7FEE7F7
:1001E00035070008AD010008064C074D06E0E06841
:1001F00040F0010394E8070098471034AC42F6D36E
:10020000FFF7D8FFC8070008D807000800BFFEE7BF
:100210007047000010B5012000F024F8012806D135
:100220008102034800F044F9012000F015F810BDE8
:10023000001C024010B54FF4005000F013F80128E4
:1002400007D1C102034800F033F94FF4005000F029
:1002500003F810BD001C024001490860704700000F
:10026000143C014001460020034A12680A400AB1CA
:10027000012000E000207047143C01400021234988
:100280008279002A3AD00A46126803689A430B46DC
:100290001A600A1D126803689A430B1D1A600279DE
:1002A00011440A6803681A430A60184A083212683F
:1002B00003689A43154B08331A601A1D12680368C5
:1002C0009A43124B0C331A604279102A0ED11A1F2E
:1002D000126803681A430D4B08331A601A1D12681E
:1002E00003681A43094B0C331A600DE00749427941
:1002F00011440A6803681A430A6005E00279114450
:100300000A6803689A430A6070470000003C014095
:10031000F0B50A4600210023002400BF3DE001257E
:1003200005FA01F3156805EA03049C4234D1056817
:100330004F000326BE40B543056015794E00B54019
:100340000668354305601579012D02D01579022D17
:1003500016D185684F000326BE40B54385605579A8
:100360004E00B540866835438560456801268E405D
:10037000B5434560456896798E40B6B235434560D1
:10038000C5684F000326BE40B543C560D5794E0011
:10039000B540C6683543C560491C1029BFD3F0BDC0
:1003A0007CB505460C46009401208DF80400002021
:1003B0008DF806008DF8070002208DF805006946CB
:1003C0002846FFF7A5FF2146284600F00FF87CBD20
:1003D0007CB505460C46009400208DF804008DF88D
:1003E000070069462846FFF793FF7CBD01837047ED
:1003F00042694A404261704700BFFEE71CB50120D8
:10040000009000208DF8040008208DF805000120E0
:100410008DF806006846FFF731FF4FF4005000905A
:100420000C208DF805006846FFF728FF1CBD10B5AD
:1004300000F02CF800F012F80121880300F0B6F863
:100440000021084600F0C4F80D21022000F0C0F899
:10045000FFF7D4FF00F074F810BD000010B50121C3
:10046000084600F093F80121042000F08FF80121E4
:100470000448FFF7ADFF4FF400510348FFF7A8FF12
:1004800010BD0000000002400008024010B501212C
:10049000802000F07BF84FF480610448FFF780FF74
:1004A0004FF400610148FFF77BFF10BD001C0240C4
:1004B00070B504460D4629462046FFF799FF70BDEA
:1004C00000BFFEE77047000070B5002100230F2237
:1004D000C4781CB3174C246804F4E064C4F5E064E9
:1004E000C4F30721C1F10404E3B20A4144789C40FB
:1004F000E1B28478144021430C07210E0E4C05789C
:100500006155047804F01F050124AC4005786D1195
:10051000AD0005F1E025C5F8004109E0047804F0DC
:100520001F050124AC40054D0678761145F826409C
:1005300070BD00000CED00E000E400E080E100E0B0
:1005400008B54FF4C06000F015F806208DF80000E3
:1005500001208DF801008DF802008DF80300684637
:10056000FFF7B2FF28208DF800006846FFF7ACFFC8
:1005700008BD000002490143024A116070470000B3
:100580000000FA050CED00E07047000029B1064AB2
:1005900012680243044B1A6004E0034A1268824363
:1005A000014B1A60704700003038024029B1064AFA
:1005B00012680243044B1A6004E0034A1268824343
:1005C000014B1A6070470000443802407047000039
:1005D00030B500228B071C0F0F2303FA04F20B4BDC
:1005E0008C1053F824309343084C8D1044F8253078
:1005F00023468C1053F824308C07240F00FA04F49F
:100600002343024C8D1044F8253030BD083801409A
:100610000CB50020019000904148006840F4803003
:100620003F49086000BF3E48006800F40030009079
:100630000198401C0190009818B90198B0F5A04F9E
:10064000F1D13748006800F4003010B1012000906B
:1006500001E0002000900098012860D1304840302F
:10066000006840F080502E49403108602D480068F5
:1006700040F440402B490860294808300068284968
:10068000083108600846006840F4004008600846E9
:10069000006840F4A05008602348091F0860081F44
:1006A000006840F08070091F086000BF1C480068A7
:1006B00000F000700028F9D01A48006840F480303B
:1006C0001849086000BF1748406800F480300028CF
:1006D000F9D01448006840F400301249086000BFA7
:1006E0001048406800F400300028F9D040F205704E
:1006F0000E4908600A480830006820F003000849E5
:10070000083108600846006840F00200086000BF39
:1007100003480830006800F00C000828F8D10CBD30
:100720000038024000700040195A4007003C024067
:100730007047000010B51548006840F47000134978
:1007400008601348006840F001001149086000206B
:100750000F49083108600E4800680E4908400C49EE
:1007600008600D48091D0860081F006820F48020FB
:10077000091F0860002006490C310860FFF748FF98
:100780004FF0006001498039086010BD88ED00E03D
:1007900000380240FFFFF6FE1030002400BFFEE7E5
:1007A00002E008C8121F08C1002AFAD1704770473A
:1007B000002001E001C1121F002AFBD17047FFF7A2
:1007C00036FE00BFFEE70000D8070008000000204A
:0807D00000040000B00700085E
:04000005080001AD41
:00000001FF
