:020000040800F2
:1000000000040020C5010008C9010008CB01000858
:10001000CD010008CF010008D10100080000000058
:10002000000000000000000000000000D3010008F4
:10003000D501000800000000D7010008D901000820
:10004000DB010008DB010008DB010008DB01000820
:10005000DB010008DB010008DB010008DB01000810
:10006000DB010008DB010008DB010008DB01000800
:10007000DB010008DB010008DB010008DB010008F0
:10008000DB010008DB010008DB010008DB010008E0
:10009000DB010008DB010008DB010008DB010008D0
:1000A000DB010008DB010008DB010008DB010008C0
:1000B000DB010008DB010008DB010008DB010008B0
:1000C000DB010008DB010008DB010008DB010008A0
:1000D000DB010008DB010008DB010008DB01000890
:1000E000DB010008DB010008DB010008DB01000880
:1000F000DB010008DB010008DB010008DB01000870
:10010000DB010008DB010008DB010008DB0100085F
:10011000DB010008DB010008DB010008DB0100084F
:10012000DB010008DB010008DB010008DB0100083F
:10013000DB010008DB010008DB010008DB0100082F
:10014000DB010008DB010008DB010008DB0100081F
:10015000DB010008DB010008DB010008DB0100080F
:10016000DB010008DB010008DB010008DB010008FF
:10017000DB010008DB010008DB010008DB010008EF
:10018000DB010008DB010008DB010008DB010008DF
:10019000DB010008DB010008DB010008DB010008CF
:1001A000DB010008DB010008DB010008DFF810D0EC
:1001B00000F016F800480047C9020008AFF30080BD
:1001C0000004002005480047FEE7FEE7FEE7FEE7E3
:1001D000FEE7FEE7FEE7FEE7FEE7FEE7AD0100080B
:1001E000064C074D06E0E06840F0010394E8070084
:1001F00098471034AC42F6D3FFF7DCFFF802000852
:100200000803000810B54C000123A34002681A43FC
:10021000026000238B4042681A4342604C00022374
:10022000A34082681A4382604C000123A340C26845
:100230001A43C26010BD0000064A126801238B40B9
:100240001A43044B1A600022026042608260C2605E
:10025000704700003038024070B505460E4614461F
:1002600031462846FFF7CEFF24B13146284600F03C
:1002700011F803E03146284600F001F870BD428BCA
:1002800001238B409A434283428B01238B401A43C4
:1002900042837047028B01238B409A430283028B77
:1002A00001238B401A430283704702E008C8121FE3
:1002B00008C1002AFAD170477047002001E001C14F
:1002C000121F002AFBD170470A4C07212046FFF776
:1002D000B3FF00220A212046FFF7BEFF01220B21B7
:1002E0002046FFF7B9FF00220C212046FFF7B4FF9C
:1002F00000BFFEE7001C02400803000800000020C9
:0803000000040000BA0200082D
:04000005080001AD41
:00000001FF
