:020000040800F2
:1000000018040020C50100081F0700081106000899
:100010001D0700080D020008190A00080000000072
:1000200000000000000000000000000001080008BF
:100030000F0200080000000021070008D90800088E
:10004000DF010008DF010008DF010008DF01000810
:10005000DF010008DF010008DF010008DF01000800
:10006000DF010008DF010008DF010008DF010008F0
:10007000DF010008DF010008DF010008DF010008E0
:10008000DF010008DF010008DF010008DF010008D0
:10009000DF010008DF010008DF010008DF010008C0
:1000A000DF010008DF010008DF010008DF010008B0
:1000B000DF010008DF010008DF010008DF010008A0
:1000C000DF010008DF010008DF010008DF01000890
:1000D000DF010008DF010008DF010008DF01000880
:1000E000DF010008DF010008DF010008DF01000870
:1000F000DF010008DF010008DF010008DF01000860
:10010000DF010008DF010008DF010008DF0100084F
:10011000DF010008DF010008DF010008DF0100083F
:10012000DF010008DF010008DF010008DF0100082F
:10013000DF010008DF010008DF010008DF0100081F
:10014000DF010008DF010008DF010008DF0100080F
:10015000DF010008DF010008DF010008DF010008FF
:10016000DF010008DF010008DF010008DF010008EF
:10017000DF010008DF010008DF010008DF010008DF
:10018000DF010008DF010008DF010008DF010008CF
:10019000DF010008DF010008DF010008DF010008BF
:1001A000DF010008DF010008DF010008DFF810D0E0
:1001B00000F01AF800480047910A0008AFF30080E9
:1001C000180400200648804706480047FEE7FEE77F
:1001D000FEE7FEE7FEE7FEE7FEE7FEE7FEE7FEE7F7
:1001E000DD080008AD010008064C074D06E0E06898
:1001F00040F0010394E8070098471034AC42F6D36E
:10020000FFF7D8FF380B0008580B0008FEE77047CF
:1002100070B586B00121084600F084FA0121102053
:1002200000F08EFA1E4E07220A21304600F01FF918
:1002300007220921304600F01AF900248DF81640F3
:1002400001208DF8170002258DF814504102049109
:100250008DF8155004A9304600F0CBF88DF81450F5
:100260006802049004A9304600F0C3F84FF4E1306E
:100270000090ADF80440ADF80640ADF80840ADF888
:100280000C400C20ADF80A00064C6946204600F0F0
:1002900061FB0121204600F049FB06B070BD000063
:1002A0000000024000100140014908607047000052
:1002B0000C3C024070B506460025002905D00129F6
:1002C00027D0022928D04FF4407500F081F8092882
:1002D0001ED1134C206820F4407020602068284311
:1002E0002060206820F0F8002060206846F00201BD
:1002F00008432060206840F48030206000F068F8F7
:10030000216821F002012160216821F0F8012160BB
:1003100070BD4FF48075D8E74FF40075D5E7000045
:10032000103C024009200D490A68D20301D5012082
:1003300070470A68D20601D5062070470A68D205C0
:1003400001D5022070470A6812F0E00F01D00720A3
:10035000704709688907FBD5082070470C3C0240AC
:100360000248016841F0004101607047103C0240C2
:1003700070B505460E4600F02BF8092813D10A4C3B
:10038000206820F440702060206840F400702060F5
:10039000206840F0010020602E6000F019F821680C
:1003A00021F00101216070BD103C02400548006849
:1003B000002805DA034804490C380160034901604C
:1003C00070470000103C024023016745AB89EFCD28
:1003D00008B509200090FFF7A5FF009002E0FFF7A5
:1003E000A1FF00909DF800000128F8D09DF80000C2
:1003F00008BD2DE9F041002201274FF0030C07FA58
:1004000002F50B682B40AB422CD1066853000CFA66
:1004100003F4A64306600E79D0F800809E4046EAB9
:10042000080606600E79012E01D0022E12D18668D0
:10043000A64386604E79D0F808809E4046EA0806BA
:1004400086604668AE43466045688E799640B6B28F
:1004500035434560C568A543C560CC799C40C368F9
:100460001C43C460521C102AC9D3BDE8F08110B5EA
:100470004B07DB0E9A40C90800EB8100016A0F248C
:100480009C40A1430162016A1143016210BD418396
:100490007047000010B501460020A1F100624FF442
:1004A00080439A4204D345480844984201D2082028
:1004B00010BD43480844984201D2102010BD414865
:1004C0000844984201D2182010BD3F484FF48034B0
:1004D0000844A04201D2202010BD3C484FF4003215
:1004E0000844904201D2282010BD39480844904267
:1004F00001D2302010BD37480844904201D2382044
:1005000010BD35480844904201D2402010BD334808
:100510000844904201D2482010BD3148084490421E
:1005200001D2502010BD2F480844904201D25820DB
:1005300010BDA1F10160984201D2802010BD2A486F
:100540000844984201D2882010BD284808449842A7
:1005500001D2902010BD26480844984201D298202C
:1005600010BD24480844A04201D2A02010BD22485A
:100570000844904201D2A82010BD2048084490426F
:1005800001D2B02010BD1E480844904201D2B820CC
:1005900010BD1C480844904201D2C02010BD1A482A
:1005A0000844904201D2C82010BD18480844904227
:1005B00001D2D02010BDD82010BD000000C0FFF730
:1005C0000080FFF70040FFF70000FFF70000FEF794
:1005D0000000FCF70000FAF70000F8F70000F6F75B
:1005E0000000F4F70000F2F700C0EFF70080EFF72B
:1005F0000040EFF70000EFF70000EEF70000ECF727
:100600000000EAF70000E8F70000E6F70000E4F772
:10061000FEE700002DE9FC47002701970097FFF750
:10062000C5FEF320FFF740FE1E4D2846FFF732FFC0
:1006300004464FF001663046FFF72CFF81464FF02D
:10064000FF380BE002212046FFF734FE092802D0D4
:100650004046BDE8FC87582C0BD008344C45F1D9F6
:100660002C4600212046FFF783FE092803D0404690
:10067000EFE78024F2E7241DB442F2D3FFF770FEC7
:10068000009707E028680190019810B10098401C7D
:1006900000902D1DB542F5D3009808B14046D8E72B
:1006A0000020D6E7000008082DE9FC410121882040
:1006B00000F038F84FF48065009501218DF80410A2
:1006C00000208DF806008DF807108DF80500114FF9
:1006D00069463846FFF78DFE6C000094694638463F
:1006E000FFF787FE6600009669463846FFF781FEF1
:1006F0000094094F69463846FFF77BFE05491831DB
:100700000D800C800E8021463846FFF7C0FEBDE804
:10071000FC810000001C0240000C0240FEE7704714
:1007200070470000054A002903D011680143116099
:1007300070471168814311607047000030380240F3
:10074000054A002903D01168014311607047116800
:1007500081431160704700004438024070B5244B5B
:10076000196801F00C01234C00291ED0224E0429E7
:100770001DD008291DD00460196801F0F001090995
:100780001E4A545C0168E14041601C6804F4E05476
:10079000A40A145D21FA04F484601B6803F4604326
:1007A0005B0BD25CD140C16070BD0460E4E70660C1
:1007B000E2E70F4A121F1168C1F38055116801F07A
:1007C0003F0135B1B6FBF1F11468C4F388146143FD
:1007D00005E0B4FBF1F11468C4F3881461431268B6
:1007E000C2F30142521C5200B1FBF2F10160C3E7B7
:1007F000083802400024F40040787D010000002009
:10080000704700001CB50021019100912E4A10682C
:1008100040F4803010604FF4A043106800F40030C2
:1008200000900198401C0190009810B901989842DE
:10083000F3D11068800302D50120009000E0009100
:10084000009801283FD120484030016841F0805194
:1008500001601E49086840F4404008601A480830AA
:1008600003680360036843F400430360036843F4D0
:10087000A0530360041F164B2360136843F080737A
:10088000136013689B01FCD50A6842F480320A6049
:100890004A68D203FCD50A6842F400320A604A680A
:1008A0009203FCD50B4A40F205711160016821F0FA
:1008B00003010160016841F0020101600168C1F3B8
:1008C00081010229FAD11CBD0038024000700040AD
:1008D000195A4007003C02407047000010B50F480D
:1008E000016841F0010101600C4A002108321160E9
:1008F00002680B4B1A400260031D0A4A1A60026824
:1009000022F48022026005480C300160FFF77AFF74
:1009100005494FF00060086010BD0000003802403B
:10092000FFFFF6FE1030002408ED00E0002904D09F
:10093000818941F4005181817047818921F40051FE
:10094000818170470246002012880A4200D00120AF
:10095000704700007FB504460D46208A20F44051C0
:10096000E88808432082A08941F20C618843A98865
:100970002A8911436A8902431143A181A08A20F484
:100980004071A8890843A0826846FFF7E7FE1E4829
:10099000844202D01D48844201D1039800E00298AD
:1009A000A189090408D500EBC00101EB00102968FA
:1009B0004900B0FBF1F007E000EBC00101EB0010D3
:1009C00029688900B0FBF1F06422B0FBF2F1090163
:1009D0000B096FF018056B4300EB8300A3891D041E
:1009E0004FF0320307D503EBC000B0FBF2F000F08C
:1009F0000700084306E003EB0010B0FBF2F000F044
:100A00000F00084320817FBD001001400014014009
:100A1000C1F3080181807047FEE70000014A0249E6
:100A200000F013B86D0A00081000002002E008C8AA
:100A3000121F08C1002AFAD170477047002001E058
:100A400001C1121F002AFBD170472DE9F041164663
:100A50000F460446002503E03946B047641C6D1C70
:100A600020780028F8D12846BDE8F08170B504460A
:100A7000064DE1B22846FFF7CBFF80212846FFF75D
:100A800061FF0028F9D0204670BD00000010014031
:100A9000FFF7BEFBFFF708FE114C4FF48068A4F887
:100AA0000080E5142580A614A71C3E800DA0FFF74A
:100AB000B5FFFFF77BFCFFF7ADFD48B111A0FFF7D5
:100AC000ADFFA7F8008025802680FFF749FCFEE7F0
:100AD00012A0FFF7A3FFA4F800803D802680F4E772
:100AE000181C0240496E7465726E616C20466C6120
:100AF000736820457261736520426567696E7E7E0A
:100B00007E0D0A00466C617368204F7065726174D7
:100B1000696F6E204661696C21000000466C61734C
:100B200068204F7065726174696F6E2053756363DE
:100B30006573732100000000580B000800000020BE
:100B4000140000002C0A00086C0B000814000020A0
:100B5000040400003C0A0008000000000102030435
:0C0B600001020304060708090000000061
:04000005080001AD41
:00000001FF
