:020000040800F2
:1000000020040020C5010008F1030008E9030008EE
:10001000ED0300080D0200080D06000800000000B6
:1000200000000000000000000000000015040008AF
:100030001102000800000000F30300083905000861
:10004000DF010008DF010008DF010008DF01000810
:10005000DF010008DF010008DF010008DF01000800
:10006000DF010008DF010008DF010008DF010008F0
:10007000DF010008DF010008DF010008DF010008E0
:10008000DF010008DF010008DF010008DF010008D0
:10009000DF010008DF010008DF010008DF010008C0
:1000A000DF010008DF010008DF010008DF010008B0
:1000B000DF010008DF010008DF010008DF010008A0
:1000C000DF010008DF010008DF010008DF01000890
:1000D000DF010008DF010008DF010008DF01000880
:1000E000DF010008DF010008DF010008DF01000870
:1000F000DF010008DF010008DF010008DF01000860
:10010000DF010008DF010008DF010008DF0100084F
:10011000DF010008DF010008DF010008DF0100083F
:10012000DF010008DF010008DF010008DF0100082F
:10013000DF010008DF010008DF010008DF0100081F
:10014000DF010008DF010008DF010008DF0100080F
:10015000DF010008DF010008DF010008DF010008FF
:10016000DF010008DF010008DF010008DF010008EF
:10017000DF010008DF010008DF010008DF010008DF
:10018000DF010008DF010008DF010008DF010008CF
:10019000DF010008DF010008DF010008DF010008BF
:1001A000DF010008DF010008DF010008DFF810D0E0
:1001B00000F01AF8004800472F060008AFF300804F
:1001C000200400200648804706480047FEE7FEE777
:1001D000FEE7FEE7FEE7FEE7FEE7FEE7FEE7FEE7F7
:1001E00041050008AD010008064C074D06E0E06837
:1001F00040F0010394E8070098471034AC42F6D36E
:10020000FFF7D8FF3C0600085C06000800BFFEE7C9
:100210007047000010B532480068B0F57A7F58DBAF
:100220003049086800EBD0714910A0EB4101C1BB17
:100230002D480068032190FBF1F201FB12002A49CE
:1002400008600846006820B101280DD0022821D19D
:1002500015E04FF48061254800F0AAF84FF4805172
:10026000224800F0A7F815E04FF400611F4800F0A5
:100270009FF84FF480611D4800F09CF80AE04FF4AD
:1002800080511A4800F094F84FF40061174800F0CC
:1002900091F800BF00BF14480068401C1249086074
:1002A0000FE0FFE74FF48061104800F083F84FF44F
:1002B00000610E4800F07EF84FF480510B4800F0CA
:1002C00079F800200649086006480068401C054986
:1002D000086003480068401C0149086010BD000028
:1002E000140000201C00002018000020001C024008
:1002F000F0B50A4600210023002400BF3DE001259F
:1003000005FA01F3156805EA03049C4234D1056837
:100310004F000326BE40B543056015794E00B54039
:100320000668354305601579012D02D01579022D37
:1003300016D185684F000326BE40B54385605579C8
:100340004E00B540866835438560456801268E407D
:10035000B5434560456896798E40B6B235434560F1
:10036000C5684F000326BE40B543C560D5794E0031
:10037000B540C6683543C560491C1029BFD3F0BDE0
:100380007CB505460C46009401208DF80400002041
:100390008DF8060002208DF807008DF805006946EB
:1003A0002846FFF7A5FF2146284600F003F87CBD4C
:1003B000418370470183704710B50121802000F010
:1003C00019F84FF480610748FFF7DAFF4FF4006136
:1003D0000448FFF7D5FF4FF480510248FFF7D0FFE4
:1003E00010BD0000001C024000BFFEE700BFFEE79A
:1003F0007047704729B1064A12680243044B1A60DD
:1004000004E0034A12688243014B1A6070470000FF
:1004100030380240704700000CB500200190009079
:100420004148006840F480303F49086000BF3E48C2
:10043000006800F4003000900198401C0190009882
:1004400018B90198B0F5A04FF1D13748006800F411
:10045000003010B10120009001E0002000900098D1
:10046000012860D130484030006840F080502E496B
:10047000403108602D48006840F440402B49086036
:100480002948083000682849083108600846006893
:1004900040F4004008600846006840F4A05008603E
:1004A0002348091F0860081F006840F08070091F7A
:1004B000086000BF1C48006800F000700028F9D0F8
:1004C0001A48006840F480301849086000BF174897
:1004D000406800F480300028F9D01448006840F4E7
:1004E00000301249086000BF1048406800F4003036
:1004F0000028F9D040F205700E4908600A4808301B
:10050000006820F0030008490831086008460068C8
:1005100040F00200086000BF03480830006800F0A7
:100520000C000828F8D10CBD0038024000700040D3
:10053000195A4007003C024010B5FFF76BFE10BD92
:1005400010B51548006840F470001349086013485E
:10055000006840F001001149086000200F4908318F
:1005600008600E4800680E4908400C4908600D48B4
:10057000091D0860081F006820F48020091F08601A
:10058000002006490C310860FFF746FF4FF000607D
:1005900001498039086010BD88ED00E00038024054
:1005A000FFFFF6FE1030002470B5154909684FF4BE
:1005B0007A72B1FBF2F148430246511EB1F1807FDD
:1005C00000D31BE0511E4FF0E023596159170F2350
:1005D000002907DA1C07260E0A4C01F00F052D1F13
:1005E000665503E01C07250E074C655400BF00212B
:1005F0004FF0E02399610721196100BF70BD000031
:100600000000002018ED00E000E400E000BFFEE77D
:1006100002E008C8121F08C1002AFAD170477047CB
:10062000002001E001C1121F002AFBD17047FFF733
:10063000C3FE0120FFF7B8FF00BFFEE75C0600081D
:100640000000002020000000100600087C060008C2
:100650002000002000040000200600080095BA0ACF
:100660000000000000000000010203040607080962
:0C0670000000000000000000000000007E
:04000005080001AD41
:00000001FF
