:020000040800F2
:1000000098040020C10100087304000813040008CC
:1000100071040008C90200081D0C0008000000005F
:10002000000000000000000000000000050A0008B9
:10003000CB0200080000000075040008DD0A00087B
:10004000DB010008DB010008DB010008DB01000820
:10005000DB010008DB010008DB010008DB01000810
:10006000DB010008DB010008DB010008DB01000800
:10007000DB010008DB010008DB010008DB010008F0
:10008000DB010008DB010008DB010008DB010008E0
:10009000DB010008DB010008DB010008DB010008D0
:1000A000DB010008DB010008DB010008DB010008C0
:1000B000DB010008DB010008DB010008DB010008B0
:1000C000DB010008DB010008DB010008DB010008A0
:1000D000DB010008DB010008DB010008DB01000890
:1000E000DB010008DB010008DB010008DB01000880
:1000F000DB010008DB010008DB010008DB01000870
:10010000DB010008DB010008DB010008DB0100085F
:10011000DB010008DB010008DB010008DB0100084F
:10012000DB010008DB010008DB010008DB0100083F
:10013000DB010008DB010008DB010008DB0100082F
:10014000DB010008DB010008DB010008DB0100081F
:10015000DB010008DB010008DB010008DB0100080F
:10016000DB010008DB010008DB010008DB010008FF
:10017000DB010008DB010008DB010008DB010008EF
:10018000DB010008DB010008DB010008DB010008DF
:10019000DB010008DB010008DB010008DB010008CF
:1001A000DB010008DB010008DB010008DFF80CD0F0
:1001B00000F04AF800480047450F00089804002066
:1001C0000648804706480047FEE7FEE7FEE7FEE7F1
:1001D000FEE7FEE7FEE7FEE7FEE7FEE7E10A0008CE
:1001E000AD0100082DE9F05F0546002092469B46D0
:1001F00088460646814640241BE02846414647463D
:10020000224600F042F853465A46C01A914110D394
:1002100011461846224600F029F82D1A67EB01080E
:100220004F4622460120002100F020F817EB00097C
:100230004E41201EA4F10104DFDC484631462A4627
:100240004346BDE8F09F0000064C074D06E0E0681D
:1002500040F0010394E8070098471034AC42F6D30D
:10026000FFF7A8FF1811000838110008202A04DB46
:10027000203A00FA02F1002070479140C2F12003B9
:1002800020FA03F3194390407047202A04DB203AF8
:1002900021FA02F00021704721FA02F3D040C2F1A6
:1002A0002002914008431946704710B507E00378D3
:1002B0000C78A34201D0002010BD401C491C521EE6
:1002C00092B2F4D2012010BDFEE7704770B586B03F
:1002D0000121084600F0D0F80121102000F0DAF8E2
:1002E0001E4E07220A21304600F083F8072209211A
:1002F000304600F07EF800248DF8164001208DF87D
:10030000170002258DF81450410204918DF8155004
:1003100004A9304600F02FF88DF8145068020490BC
:1003200004A9304600F027F84FF4E1300090ADF812
:100330000440ADF80640ADF80840ADF80C400C2084
:10034000ADF80A00064C6946204600F005FC012184
:10035000204600F0EDFB06B070BD0000000002403A
:100360000010014001B502E00098401E0090009886
:100370000028F9D108BD2DE9F041002201274FF0F6
:10038000030C07FA02F50B682B40AB422CD1066830
:1003900053000CFA03F4A64306600E79D0F80080EF
:1003A0009E4046EA080606600E79012E01D0022E14
:1003B00012D18668A64386604E79D0F808809E40A8
:1003C00046EA080686604668AE43466045688E7910
:1003D0009640B6B235434560C568A543C560CC7943
:1003E0009C40C3681C43C460521C102AC9D3BDE89A
:1003F000F08110B54B07DB0E9A40C90800EB810075
:10040000016A0F249C40A1430162016A1143016209
:1004100010BDFEE72DE9FC410121802000F02CF801
:100420004FF48064009401208DF8040000218DF8C1
:1004300006108DF807008DF805100C4F69463846F8
:10044000FFF799FF6600009669463846FFF793FF6D
:10045000A500009569463846FFF78DFF0348183020
:10046000048006800580BDE8FC810000001C02407D
:10047000FEE7704770470000054A002903D0116865
:10048000014311607047116881431160704700009B
:1004900030380240054A002903D011680143116039
:1004A0007047116881431160704700004438024072
:1004B00070B5244B196801F00C01234C00291ED0A3
:1004C000224E04291DD008291DD00460196801F0AE
:1004D000F00109091E4A545C0168E14041601C6852
:1004E00004F4E054A40A145D21FA04F484601B6847
:1004F00003F460435B0BD25CD140C16070BD04600B
:10050000E4E70660E2E70F4A121F1168C1F3805565
:10051000116801F03F0135B1B6FBF1F11468C4F385
:100520008814614305E0B4FBF1F11468C4F3881446
:1005300061431268C2F30142521C5200B1FBF2F156
:100540000160C3E7083802400024F40040787D01D0
:1005500000000020002904D0018841F04001018002
:100560007047018821F04001018070472DE9F0417A
:1005700004460F4615460F4840260680032000F02B
:1005800093F9C7F3074000F08FF9C7F3072000F095
:100590008BF9F8B200F088F904E0FF2000F084F94C
:1005A00004F8010B6D1EADB2F7D20248801E068022
:1005B000BDE8F0811A1402402DE9F04706460D46C9
:1005C000E8B24142CFB2140A02F0FF094FF480783A
:1005D000002812D0E8B24042C0B205EB000A34B3A2
:1005E000D01B80B2040A00F0FF093A462946304683
:1005F00000F0B8F855463E4439E074B92946304613
:10060000BDE8F04700F0AEB842462946304600F05B
:10061000A9F805F5807506F58076641EE4B2F3D27C
:100620004A4629463046BDE8F04700F09BB8B94538
:100630000ED9A9EB0700C4B23A462946304600F06D
:1006400091F85146F0192246BDE8F04700F08AB80B
:1006500029463046BDE8F04700F084B842462946B6
:10066000304600F07FF805F5807506F58076641E4B
:10067000E4B2F3D2B9F1000F06D04A46294630461B
:10068000BDE8F04700F06EB8BDE8F0872DE9F04313
:1006900087B001212020FFF7EFFE01210805FFF7B9
:1006A000F9FEDFF8B890052207214846FFF7A1FEC2
:1006B000052208214846FFF79CFE052209214846ED
:1006C000FFF797FE8020009002258DF805508DF8E9
:1006D000045000248DF806408DF8074069464846CE
:1006E000FFF749FEE801009069464846FFF743FEE0
:1006F0004FF40078CDF8008069464846FFF73BFE8E
:100700004027009701268DF8046069464846FFF7A8
:1007100032FE124818300780ADF808404FF482705E
:10072000ADF80A00ADF80C40ADF80E50ADF8106011
:10073000ADF81280ADF81440ADF816400720ADF8C2
:100740001800074C02A9204600F01FF9012120469D
:10075000FFF700FF07B0BDE8F0830000001402407F
:10076000005001402DE9F04105460F46144600F0C7
:10077000F3F8134840260680022000F095F8C7F3EE
:10078000074000F091F8C7F3072000F08DF8F8B2A9
:1007900000F08AF8B000844208D9044609A000F0AD
:1007A0003FFA03E0287800F07FF86D1C641EA4B2C5
:1007B000F8D20348801E0680BDE8F04100F0ACB8D6
:1007C0001A1402403C3C2D464C4153482D45525290
:1007D0004F522D3E3E205350495F464C4153485F97
:1007E00050616765577269746520746F6F206C6122
:1007F000726765210A00000010B50B484024048090
:10080000AB2000F051F8FF2000F04EF8FF2000F080
:100810004BF8FF2000F048F8FF2000F045F80249AF
:10082000891E0C8010BD00001A14024070B50D48DE
:10083000402404809F2000F037F8FF2000F034F8B7
:100840000546FF2000F030F80646FF2000F02CF8A7
:1008500001460448801E0480280440EA062008431C
:1008600070BD00001A14024070B5044600F074F820
:1008700000F052F80B4840250580202000F014F8C5
:10088000C4F3074000F010F8C4F3072000F00CF8A0
:10089000E0B200F009F80348801E0580BDE8704012
:1008A00000F03AB81A1402402DE9F0410746184CFE
:1008B0004FF480552560174E09E02068411E2160E5
:1008C00005D2002000F07EF8C0B2BDE8F081022120
:1008D000304600F04FF80028EFD03946304600F09F
:1008E00052F8256008E021684A1E226004D20120E7
:1008F00000F068F8C0B2E8E70121304600F03AF8AD
:100900000028F0D0304600F03CF8C0B2DDE700002F
:10091000580000200050014070B50D48402505806A
:100920000520FFF7C1FF0B4CA8012060FF20FFF757
:10093000BBFF21684A1E226004D2BDE8704004203B
:1009400000F040B8C007F1D10148801E058070BD9D
:100950001A1402405800002010B5054840240480B5
:100960000620FFF7A1FF0248801E048010BD000092
:100970001A1402400246002012890A4200D00120C7
:100980007047808970478181704730B5028802F4D2
:1009900041530A884C88CD8822438C882C432243BB
:1009A0000C8922434C8922438C892243CC892243DF
:1009B0001A430280828B22F400628283098A0182B8
:1009C00030BD000010B5014602A000F029F900205A
:1009D00010BD00003C3C2D464C4153482D45525221
:1009E0004F522D3E3E2053504920B5C8B4FDB3AC04
:1009F000CAB1216572726F72436F6465203D202514
:100A0000640A0000704700001CB5002101910091AC
:100A10002E4A106840F4803010604FF4A0431068F4
:100A200000F4003000900198401C0190009810B92B
:100A300001989842F3D11068800302D501200090FC
:100A400000E00091009801283FD120484030016823
:100A500041F0805101601E49086840F44040086040
:100A60001A48083003680360036843F400430360D6
:100A7000036843F4A0530360041F164B23601368FC
:100A800043F08073136013689B01FCD50A6842F43D
:100A900080320A604A68D203FCD50A6842F4003208
:100AA0000A604A689203FCD50B4A40F20571116056
:100AB000016821F003010160016841F00201016059
:100AC0000168C1F381010229FAD11CBD003802403E
:100AD00000700040195A4007003C02407047000077
:100AE00010B50F48016841F0010101600C4A002176
:100AF0000832116002680B4B1A400260031D0A4A5B
:100B00001A60026822F48022026005480C300160FD
:100B1000FFF77AFF05494FF00060086010BD000044
:100B200000380240FFFFF6FE1030002408ED00E020
:100B3000002904D0818941F4005181817047818965
:100B400021F40051818170470246002012880A4238
:100B500000D00120704700007FB504460D46208A72
:100B600020F44051E88808432082A08941F20C61BA
:100B70008843A9882A8911436A8902431143A181C4
:100B8000A08A20F44071A8890843A0826846FFF734
:100B90008FFC1E48844202D01D48844201D1039834
:100BA00000E00298A189090408D500EBC00101EB1F
:100BB000001029684900B0FBF1F007E000EBC0012C
:100BC00001EB001029688900B0FBF1F06422B0FB52
:100BD000F2F109010B096FF018056B4300EB83007C
:100BE000A3891D044FF0320307D503EBC000B0FB0F
:100BF000F2F000F00700084306E003EB0010B0FB42
:100C0000F2F000F00F00084320817FBD001001408A
:100C100000140140C1F3080181807047FEE7000025
:100C20000FB4054B10B503A9044A029800F018F858
:100C300010BC5DF814FB0000210F00085C000020D0
:100C400002E008C8121F08C1002AFAD17047704795
:100C5000002001E001C1121F002AFBD170470000F3
:100C60002DE9FF4F8DB09B460F460446002606E057
:100C700025280BD05A460F999047641C761C207883
:100C80000028F5D111B03046BDE8F08F0025A84608
:100C90000122984900E0054314F8013F203B02FA85
:100CA00003F00842F7D120782E2817D114F8010F4D
:100CB00045F004052A280ED06FF02F022078A0F10D
:100CC000300109290AD808EB880102EB410100EB49
:100CD0000108641CF2E757F8048B641C20786C2828
:100CE0000DD004DC4C2812D06A2811D104E07428FD
:100CF0000DD07A280CD10AE045F4001507E06178A0
:100D000045F48015814202D1641C05F58015641CF0
:100D10002278692A45D008DC002AB3D0582A69D045
:100D2000632A10D0642A08D13BE0702A67D0732A66
:100D300013D0752A5CD0782A5CD010465A460F9999
:100D40009047761CD3E017F8040B8DF800000020C4
:100D50008DF80100E946012003E057F8049B4FF0AD
:100D6000FF3069074FF0000501D40AE06D1C4545CE
:100D70000DDA8542FADB19F805100029F6D106E0F4
:100D80006D1C8542FCDB19F805100029F8D12E44B2
:100D900004E019F8010B5A460F9990476D1EF8D2DE
:100DA000A5E00A200021CDE90801C5F30250022880
:100DB0000DD001CFC117031E71F100030DDA4FF002
:100DC000000CD0EB0C006CEB01012D2308E0FF1DA3
:100DD00027F00707F7E80201EDE72B0504D52B23E1
:100DE0008DF8283001233BE0EB0739D02023F7E7CB
:100DF0000A2000E010200021CDE9080107E01020C2
:100E0000002145F00405CDE908014FF00808C5F3BD
:100E1000025002280FD001CF00214FF0000A2B070B
:100E20001FD5702A0DD0DDE908C38CF0100C5CEAE8
:100E3000030C0CD015E0FF1D27F00707F7E80201AF
:100E4000EBE740228DF828204FF0010A0BE050EA32
:100E5000010306D030238DF828308DF82920022395
:100E60009A46582A04D024A20DF120090B9209E0D9
:100E700026A2F9E7DDE90823FFF7B4F90B9B9B5C99
:100E800009F8013D50EA0102F4D1ADEB0900203030
:100E90000890680701D44FF001080899884502DDE1
:100EA000A8EB010000E000208046002506E00AA82B
:100EB0005A46405D0F9990476D1C761C5545F6DBF0
:100EC00004E030205A460F999047761CB8F1000193
:100ED000A8F10108F5DC05E019F8010B5A460F9955
:100EE0009047761C0899481E08900029F4DC641C81
:100EF000C5E6000009280100303132333435363779
:100F00003839616263646566000000003031323355
:100F100034353637383941424344454600000000F5
:100F200070B50446064DE1B22846FFF773FE8021F6
:100F30002846FFF709FE0028F9D0204670BD0000C2
:100F400000100140FFF766FA344D4FF480662E80A2
:100F5000EF142F8005F102094FF48058A9F80080A2
:100F6000FFF7B4F92EA0FFF75BFEFFF78FFBFFF74B
:100F700043FC334C6060C820FFF7F4F9FFF756FCE0
:100F8000A0606268A1682FA0FFF74AFEA0683B49F5
:100F9000884203D0A068491C884235D138A0FFF7A9
:100FA0003FFE0020FFF760FC2548382200210C306E
:100FB000FFF702FB224938A00C31FFF731FE38223F
:100FC00000213B48FFF7D2FA39493AA0FFF728FE43
:100FD0001B48382236490C30FFF767F9207020781B
:100FE000012808D0A9F800602F80A5F8008037A05C
:100FF000FFF716FE10E02E80A9F80070A5F800801B
:1010000038A0FFF70DFE07E0A9F800602F80A5F8D3
:1010100000803AA0FFF704FEFEE70000181C024023
:101020000D0AD5E2CAC7D2BBB8F6B4AED0D0535081
:101030004920666C617368CAB5D1E9200D0A0000C9
:10104000100000200D0A466C6173684944206973E2
:1010500020307825582C20204D616E7566616374B0
:10106000757265722044657669636520494420691C
:101070007320307825580D0A000000001840EF005A
:101080000D0ABCECB2E2B5BD53504920464C415369
:101090004820210D0A0000000D0AD0B4C8EBB5C4E9
:1010A000CAFDBEDDCEAAA3BA0D0A2573000000005A
:1010B000600000200D0AB6C1B3F6B5C4CAFDBEDD9E
:1010C000CEAAA3BA0D0A2573000000000D0AB4AE23
:1010D000D0D0666C617368B2E2CAD4CAA7B0DC2112
:1010E0000A0D00000D0AB4AED0D0666C617368B210
:1010F000E2CAD4B3C9B9A6210A0D00000D0ABBF19A
:10110000C8A1B2BBB5BD20CDE2B2BF464C415348E9
:10111000204944210A0D0000381100080000002079
:1011200060000000400C00089811000860000020DA
:1011300038040000500C0008000000000102030405
:101140000102030406070809000000000000000077
:1011500000000000B8D0D0BBC4FAD1A1D3C3D2B034
:10116000BBF073746D3332BFAAB7A2B0E50D0A6845
:10117000747470733A2F2F666972652D73746D33B2
:10118000322E74616F62616F2E636F6D000000001C
:0811900000A0000000000000B7
:04000005080001AD41
:00000001FF
