:020000040800F2
:10000000B0510020C50100087116000869160008EB
:100010006D1600084B110008CF1C000800000000FE
:10002000000000000000000000000000211900088E
:100030004F1100080000000041170008451A000891
:10004000DF010008DF010008DF010008DF01000810
:10005000DF010008DF010008DF010008DF01000800
:10006000DF010008DF010008DF010008DF010008F0
:10007000DF010008DF010008DF010008DF010008E0
:10008000DF010008DF010008DF010008DF010008D0
:10009000DF010008DF010008DF010008DF010008C0
:1000A000DF010008DF010008DF010008DF010008B0
:1000B000DF010008DF010008DF010008DF010008A0
:1000C000DF010008DF010008DF010008DF01000890
:1000D000DF010008B11A0008DF010008DF01000895
:1000E000DF010008DF010008DF010008DF01000870
:1000F000DF010008DF010008DF010008DF01000860
:10010000DF010008DF010008DF010008DF0100084F
:10011000DF010008DF010008DF010008DF0100083F
:10012000DF010008DF010008DF010008DF0100082F
:10013000DF010008DF010008DF010008DF0100081F
:10014000DF010008DF010008DF010008DF0100080F
:10015000DF010008DF010008DF010008DF010008FF
:10016000DF010008DF010008DF010008DF010008EF
:10017000DF010008DF010008DF010008DF010008DF
:10018000DF010008DF010008DF010008DF010008CF
:10019000DF010008DF010008DF010008DF010008BF
:1001A000DF010008DF010008DF010008DFF810D0E0
:1001B00000F01EFD00480047A93F0008AFF3008093
:1001C000B05100200648804706480047FEE7FEE79A
:1001D000FEE7FEE7FEE7FEE7FEE7FEE7FEE7FEE7F7
:1001E000491A0008AD01000840EA01039B0703D04B
:1001F00009E008C9121F08C0042AFAD203E011F866
:10020000013B00F8013B521EF9D27047D2B201E027
:1002100000F8012B491EFBD270470022F6E710B50B
:1002200013460A4604461946FFF7F0FF204610BD64
:10023000CAB2401E10F8011F8A4202D00029F9D12B
:100240000020704710B5002200E0521C835C8C5CDB
:10025000A34201D1002BF8D1D8B2E1B2401A10BDAF
:1002600030B504460020034600E05B1C934203D2F5
:10027000E05CCD5C401BF8D030BD00000FB400B591
:100280008DB010A909900B9000914FF0FF300A90AB
:1002900000200C9005480690054807906A4609A87A
:1002A0000F9900F095FB0DB05DF814FBED09000807
:1002B0000B0A000830B50B4601460020202201241D
:1002C00009E021FA02F59D4205D303FA02F5491B24
:1002D00004FA02F52844151EA2F10102F1DC30BD3A
:1002E0002DE9FF4F1C4681B00021D4E901679146FA
:1002F0004FF0FF358A468846A1696D1C02988847F1
:10030000216A834688470028F6D1BBF1FF3F0CD015
:1003100026F4C066002F1ADD700615D5BBF12B0F31
:100320000AD0BBF12D0F0FD104E04FF0FF3005B024
:10033000BDE8F08F46F48066A1696D1C029888477D
:100340007F1E8346002F02DDBBF1300F03D0B9F1D1
:10035000000F2AD025E0A1696D1C46F400767F1EAF
:10036000029888478346002F05DDBBF1780F06D041
:10037000BBF1580F03D0B9F1000F10D011E0B9F163
:10038000000F02D0B9F1100F0BD1A1696D1C26F43A
:1003900000767F1E029888478346102000E00820E0
:1003A00081464FEAE970009017E00A20F8E74346DB
:1003B000AAFB092803FB0980DDF800C07F1E0AFBA9
:1003C0000C0112EB0B0A41EBEB78A16946F40076C5
:1003D00005F10105029888478346002F06DD49464E
:1003E000584600F03BFC5FEA000BE0D5E16902985B
:1003F0008847B00502D46FF0010098E7F00718D1E4
:10040000700610D57005514605D50023D1EB0301C8
:1004100063EB080200E042462068031D2360006889
:10042000C0E9001205E02068011D21600068C0E9F4
:1004300000A828467BE72DE9FF5F1D464FF0FF3BF4
:10044000D5E9014691465F464FF00008A9697F1C37
:1004500001988847296A824688470028F6D1BAF170
:10046000FF3F0CD024F4C064002E19DD600614D5C3
:10047000BAF12B0F09D0BAF12D0F0ED103E0584677
:1004800004B0BDE8F09F44F48064A9697F1C019822
:100490008847761E8246002E02DDBAF1300F03D067
:1004A000B9F1000F26D032E0A969761E44F4007439
:1004B0007F1C019888478246002E05DDBAF1780F2F
:1004C00006D0BAF1580F03D0B9F1000F10D01EE0DA
:1004D000B9F1000F02D0B9F1100F18D1A969761E39
:1004E00024F400747F1C019888478246102002E0A3
:1004F000082000E00A20814609E008FB0908A969F4
:10050000761E44F400747F1C019888478246002EB2
:1005100005DD4946504600F0A1FB0028EDDAE96907
:1005200001988847A00502D46FF00100A8E7E00712
:1005300025D1600613D5600502D5C8F1000000E0A2
:10054000404629680A1D2A600968220501D50870FD
:1005500015E0220701D5088011E008600FE0286847
:10056000011D29600068210502D580F8008006E0A1
:10057000210702D5A0F8008001E0C0F800803846CD
:100580007EE72DE9FF5FD2E901A74FF000089169EE
:1005900099461446DDF838B0464601988847054626
:1005A00059EA0B0005D009E0A169761C019888473B
:1005B0000546216A284688470028F5D1681C03D0E3
:1005C0005FEACA7005D015E04FF0FF3004B0BDE817
:1005D000F09F2068011D2160D0F800800AE05FEAEA
:1005E000CA7001D108F8015BA169761C7F1E0198D1
:1005F00088470546002F1ADD681C18D0B9F1000F96
:100600000DD0E81705EBD060421120F01F0059F81B
:1006100022102A1A012090400142E0D107E0BBF1EC
:10062000000FDCD1216A284688470028D7D0E1692D
:1006300001988847BBF1000F07D1002E05DD5FEA66
:10064000CA7002D1002188F80010A068B84203DD0A
:10065000BBF1000F03D017B16FF00100B6E73046D1
:10066000B4E700002DE9FF4F087883B09946FF28D2
:1006700005D0491C2D2804D00024002008E00020CB
:100680000BE00124F9E700EB800003EB4000491C7C
:100690000B78FF2BF7D104B140420023029314786A
:1006A00019461D462D2C01D02B2C04D1521C2D2C6B
:1006B00013D000240294AA461478FF2C0FD00A25E8
:1006C000A3FB057801FB05814FF0000C03FB0C1127
:1006D000521CE3194AEB0101EEE70124EAE78144E9
:1006E00053EA010002D019F5C87F06DA0398002109
:1006F000C0E9001107B0BDE8F08F0025AE4E2F46CF
:10070000DFF8B882184600F0ACFCCDE90001B9F181
:10071000000002DAC9F1000400E004460023A74A01
:100720001AEB030B42EB045A12E0E00707D02A460B
:1007300033463846414600F079F9074688462A464E
:1007400033461046194600F071F905460E4664100E
:10075000002CEAD1DDE90001B9F1000F5A465346F9
:1007600006DA00F0D5F93A46434600F0D1F905E043
:1007700000F05CF93A46434600F058F9029A0AB193
:1007800081F00041039AC2E90001B3E72DE9FF4F70
:100790001F468DB0D7E901464FF0FF382E20454661
:1007A0004FF000090B90B9696D1C0E988847396AA3
:1007B000824688470028F6D1BAF1FF3F0AD024F4D8
:1007C000D064002E11DDBAF12B0F08D0BAF12D0F35
:1007D0000BD102E0404611B08DE744F48064B96962
:1007E0006D1C0E9888478246761E6946600501D5C5
:1007F0002D2000E02B208DF8000001F1010B0DF100
:10080000200809E0B9696D1C0E98884782460F9848
:1008100044F40074761E0560002E02DDBAF1300F3C
:10082000F0D00B998A453ED144F0800406E00F9940
:10083000681CA9F1010944F400740860B9696D1CD1
:10084000761E0E98884782463028F0D02BE00B9910
:100850008A4505D1200603D444F08004761E18E0B2
:10086000504601F056FA08B30DF11301761E44F418
:1008700000748B4508D2AAF130000BF8010B20065A
:1008800007D5A9F1010003E0200602D409F1010017
:100890008146A00502D50F99681C0860B9696D1CD6
:1008A0000E9888478246002ED1DC53E0002E51DDA1
:1008B000BAF1650F02D0BAF1450F4BD1A00549D569
:1008C000B9696D1C24F44074761E0E9888478246E0
:1008D000002E0CDD2B2804D0BAF12D0F07D144F4E3
:1008E0008074B9696D1C0E9888478246761EE005B3
:1008F00001D52D2100E02B2108F8011BCDF82C801B
:1009000021E00DF12901761E44F4007488450CD2D3
:10091000AAF1300010F0FF0088F8000002D10B9916
:10092000884509D908F1010806E0E00501D5244809
:1009300001E042F20F708146B9696D1C0E9888473C
:1009400082460F980560002E04DD504601F0E1F963
:100950000028D6D1F9690E988847FF208BF800004F
:1009600088F800000020069007904B466A4608A9C8
:1009700006A8FFF777FEA00502D46FF001002AE772
:1009800014F0240F0AD0E00714D1DDE9061238680C
:10099000031D3B600068C0E900120BE0DDE90601C1
:1009A00000F06BFB0146E00704D13868021D3A6095
:1009B0000068016028460EE7000014400000F03F88
:1009C000F1D8FFFF026811441378016018467047A0
:1009D000D16004495161044911620021116111463D
:1009E00000F04AB9C5090008530C0008426842B13A
:1009F000016811F8013B23B1521EC0E900121846EC
:100A000070470121C160881E704742685AB1C368AF
:100A1000016843B983688B4205D0491E521CC0E966
:100A20000012002070474FF0FF3070472DE9FE4F55
:100A300081EA030404F0004421F0004100944FF0E7
:100A4000000B23F0004350EA01045ED052EA030495
:100A50005BD0C3F30A54C1F30A552C44A4F2F33417
:100A60000194A0FB0254C1F3130141F48011C3F3BC
:100A7000130343F4801301FB024400FB034E840A7A
:100A8000970A44EA815447EA8357A4FB0768029512
:100A90008D0A05FB07854FEA932C04FB0C542705B0
:100AA000029D4FEA065847EA1637B5EB08056EEB8C
:100AB000070C870E920E47EA811742EA8312A7FBC2
:100AC0000201B6EB0B0164EB00042B0D43EA0C337F
:100AD0005E1844EB1C50DA465146E7FB0201C5F3B1
:100AE00013044FEA0B3343EA14534FEA0432019CD8
:100AF00043EA0603A4F10C040294009CCDE900B47F
:100B000000F061FA03B0BDE8F08F00200146F9E77C
:100B10002DE9F04D81EA030404F0004B21F000457B
:100B200014464FF0000A23F0004150EA050220D09D
:100B300054EA01021DD0C5F30A570246C5F3130358
:100B4000C1F31300C1F30A5640F4801543F4801337
:100B5000A7EB0608101BD64608F2FD3873EB05001C
:100B600002D308F1010801E092185B41B8F1000FCF
:100B700003DA00200146BDE8F08D00204FF480111B
:100B8000064684460EE0171B73EB050705D3121BC0
:100B900063EB050306434CEA010C49084FEA3000B9
:100BA00092185B4150EA0107EDD152EA030012D0DE
:100BB00082EA040083EA0501084305D0101BAB411B
:100BC00006D20122002306E000224FF0004302E09B
:100BD0006FF0010253101AEB06004CEB085110EBBA
:100BE0000A0041EB0B01BDE8F04D00F0DDB900005B
:100BF000064C074D06E0E06840F0010394E807006A
:100C000098471034AC42F6D3FFF7D4FA104F0008DF
:100C1000304F0008202A04DB203A00FA02F10020BD
:100C200070479140C2F1200320FA03F3194390402A
:100C30007047202A04DB203A21FA02F00021704795
:100C400021FA02F3D040C2F1200291400843194634
:100C50007047C0B24FF4F05100F02CBA3A2800D2DD
:100C6000303820F02002412A01D3A2F13700884217
:100C700001D34FF0FF3070472DE9F34F8BB04FF0A9
:100C8000000801F10C000C464FF0010B46460DF137
:100C9000080A01906269012101989047051E2DD034
:100CA000252D2CD0216A8847C0B1626901210198A5
:100CB0009047216A88470028F7D1411E6269019850
:100CC000904700E0761CA1690B988847216A884705
:100CD0000028F7D1E1690B988847DBE7A1690B98F9
:100CE00088470746A84201D1761CD3E7E1690B98F3
:100CF00088477F1C02D1B8F1000F6FD047E1002771
:100D000062693D463946019890472A2804D16269B4
:100D10000121019890470125DFF88892626901213D
:100D200001989047A0F130010A290AD24F45E5DC2D
:100D300007EB870100EB4107303FDFD445F010059A
:100D4000ECE7E90601D46FF000476C280AD04C2884
:100D500014D0682815D06A280DD074281CD07A28A1
:100D60001AD01DE062690121019890476C2802D0D9
:100D700045F0040514E045F002050DE045F02005BE
:100D80000AE06269012101989047682802D045F085
:100D9000080505E045F40065626901210198904766
:100DA000C4E9015765283DD019DC58287AD00CDCFD
:100DB000452837D004DC252826D0412831D131E020
:100DC00046282FD047282CD12CE05B2877D06128EB
:100DD00028D063287CD0642823D15AE0D1E06F2842
:100DE00048D008DC66281DD067281BD0692821D090
:100DF0006E2816D127E0702845D0732868D0752852
:100E000047D078280DD14DE0A1690B988847054659
:100E100025283FF469AFE1690B9888476D1C3FF4C2
:100E20006AAFB4E023466A466FF001000B99FFF702
:100E3000ADFC9FE045F040006060A80723464FF0FE
:100E4000000236D43EE0E8077FF447AF2068011D7A
:100E500021600068290501D506701BE7290701D527
:100E6000068017E7A90703D5F117C0E9006111E76C
:100E700006600FE745F040006060A80723464FF08A
:100E8000080216D41EE040F60E0125EA010060605B
:100E900016E045F040006060A80723464FF00A02C4
:100EA00007D40FE045F040006060A80708D523464E
:100EB00010226FF001000B99FFF712FA5AE007E0D9
:100EC000234610226FF001000B99FFF7B4FA51E0AE
:100ED0004FF000094F464B46632802D05B2807D0ED
:100EE00041E02079C00601D40120A06001273AE04A
:100EF00062690121019890475E2805D14FF00109F0
:100F00006269494601989047216939B900210A462A
:100F1000534643F82120491C0829FADBB0B3216964
:100F200069B9C11700EBD16253110AEB830122F0BA
:100F30001F02821A01200B68904003430B60626914
:100F40000121019890475D28E8D1B9F1000F09D03F
:100F50000020514651F82020D24341F82020401C67
:100F60000828F7DB02AB224600976FF001000B99CF
:100F7000FFF707FB00280CDA401C08D1BBF1000F7B
:100F800005D04FF0FF300DB0BDE8F08FFFE74046D1
:100F9000F9E7E90701D108F1010806444FF0000B19
:100FA00078E60000CCCCCC0C10B5141E73F1000414
:100FB00008DA401C41F1000192185B411A4301D14B
:100FC00020F0010010BD2DE9F04D92469B4611B175
:100FD000B1FA81F202E0B0FA80F220329046FFF7D7
:100FE00019FE04460F4640EA0A0041EA0B01534647
:100FF0005A46084313D0114653EA010019D0C8F1EC
:1010000040025046FFF715FE05460E46504659462B
:101010004246FFF7FFFD084305D0012004E02046CB
:101020003946BDE8F08D0020054346EAE0762C43C2
:1010300037430A986305E40AA0EB08000022FD0A82
:1010400044EA47540A3002D500200146E9E7010589
:1010500010196941DDE9084500196941BDE8F04D05
:10106000A2E70EB540F2334202920022CDE90022FF
:101070001346FFF7A8FF03B000BD01F0004330B4F2
:1010800021F0004150EA010206D00A0DA2F560727B
:10109000C1F31301002A02DC30BC00207047440F6A
:1010A00044EAC104C100E01830BC00EBC25000F0BB
:1010B00015B800007F2801D9002208E0064A02EB9B
:1010C0005002C007127800D1120902F00F0201206D
:1010D0009040084070470000AA4E00080029A8BFB1
:1010E0007047401C490008BF20F00100704710B451
:1010F000B0FA80FC00FA0CF050EA010404BF10BC06
:10110000704749B1CCF1200421FA04F411FA0CF132
:1011100018BF012121430843A3EB0C01CB1D4FEA6B
:1011200000614FEA102042BF002010BC704700EB66
:10113000C35010440029A4BF10BC7047401C490094
:1011400008BF20F0010010BC704700BFFEE77047E9
:1011500070B505460C4616464021114800F053FA7A
:10116000032000F095FB200E00F092FBC4F3074033
:1011700000F08EFBC4F3072000F08AFBE0B200F021
:1011800087FB04E0FF2000F083FB05F8010B301E15
:10119000A6F10106F6D14021014800F036FA70BDF3
:1011A000001402402DE9F05F06460D4617464FF049
:1011B0000008C146C2460024A34605F0FF0ACAF152
:1011C0000000C4B2C7F3072807F0FF09BAF1000F07
:1011D00020D1B8F1000F05D13A463146284600F03B
:1011E0004DF959E009E04FF480723146284600F08D
:1011F00045F905F5807506F58076B8F10000A8F18F
:10120000010101F0FF08EED14A463146284600F0C0
:1012100035F941E0B8F1000F18D1A14510DDA9EB77
:10122000040000F0FF0B22463146284600F026F964
:10123000254426445A463146284600F01FF92BE043
:101240003A463146284600F019F925E03F1BC7F31E
:10125000072807F0FF0922463146284600F00EF91C
:101260002544264409E04FF480723146284600F0B8
:1012700005F905F5807506F58076B8F10000A8F14E
:10128000010101F0FF08EED1B9F1000F04D04A4688
:101290003146284600F0F2F8BDE8F09F10B504464C
:1012A00000F01EF940210D4800F0ADF9202000F0BB
:1012B000EFFA200E00F0ECFAC4F3074000F0E8FA71
:1012C000C4F3072000F0E4FAE0B200F0E1FA4021B4
:1012D000024800F09AF900F0B7F810BD001402407F
:1012E0001CB50121202000F02DFA052207211B4802
:1012F00000F066F905220821184800F061F905227E
:101300000921164800F05CF94020009001208DF87A
:10131000040002208DF8050000208DF807008DF8EC
:10132000060069460D4800F0EBF88020009002208E
:101330008DF804006946094800F0E2F84FF4807027
:1013400000906946054800F0DBF84FF4007000900B
:101350006946024800F0D4F81CBD000000140240A9
:1013600010B5FFF7BDFF00F03BF810BD70B5402190
:101370000B4800F048F99F2000F08AFA00F082FA4A
:10138000044600F07FFA054600F07CFA064640214C
:10139000034800F03AF9200440EA0520304370BDCC
:1013A0000014024010B540210C4800F02CF9AB208D
:1013B00000F06EFAFF2000F06BFAFF2000F068FAF0
:1013C000FF2000F065FAFF2000F062FA0446402199
:1013D000024800F01AF9204610BD00000014024037
:1013E00000B585B00121080500F0BCF94021144882
:1013F00000F00BF90020ADF80C000120ADF808005A
:101400000220ADF806000720ADF810000020ADF86E
:101410000400ADF80000ADF80E004FF48270ADF896
:1014200002004FF40070ADF80A006946054800F06C
:1014300059FA0121034800F019FA05B000BD000077
:10144000001402400050014010B5002440210A4819
:1014500000F0D9F8052000F01BFA00BFFF2000F0D3
:1014600017FA044604F001000028F7D14021024891
:1014700000F0CBF810BD00000014024070B5044627
:101480000D46164600F02CF84021144800F0BBF839
:10149000022000F0FDF9200E00F0FAF9C4F3074035
:1014A00000F0F6F9C4F3072000F0F2F9E0B200F022
:1014B000EFF9B6F5807F01DD4FF4807603E0287800
:1014C00000F0E6F96D1C301EA6F10106F7D14021AF
:1014D000024800F09AF8FFF7B7FF70BD0014024011
:1014E00010B54021054800F08EF8062000F0D0F934
:1014F0004021024800F089F810BD000000140240AD
:10150000F0B50A4600210023002400BF3DE001257C
:1015100005FA01F3156805EA03049C4234D1056815
:101520004F000326BE40B543056015794E00B54017
:101530000668354305601579012D02D01579022D15
:1015400016D185684F000326BE40B54385605579A6
:101550004E00B540866835438560456801268E405B
:10156000B5434560456896798E40B6B235434560CF
:10157000C5684F000326BE40B543C560D5794E000F
:10158000B540C6683543C560491C1029BFD3F0BDBE
:101590007CB505460C46009401208DF8040000201F
:1015A0008DF8060002208DF807008DF805006946C9
:1015B0002846FFF7A5FF2146284600F026F87CBD07
:1015C000F0B5002300244D07ED0E02FA05F3CE100E
:1015D00000F1200555F826504E07F70E0F26BE40A5
:1015E000B543CF1000F1200646F82750CE1000F189
:1015F000200555F8265045EA0304CE1000F12005D9
:1016000045F82640F0BD41837047018370477CB5A3
:1016100005460C46009402208DF8040000208DF849
:10162000060002208DF807008DF80500694628465F
:10163000FFF766FF7CBD000010B50121802000F09F
:1016400081F84FF480610748FFF7A2FF4FF4006173
:101650000448FFF79DFF4FF480510248FFF798FFC1
:1016600010BD0000001C024000BFFEE700BFFEE707
:101670007047000070B5002100230F22C4781CB30E
:10168000174C246804F4E064C4F5E064C4F3072153
:10169000C1F10404E3B20A4144789C40E1B2847889
:1016A000144021430C07210E0E4C05786155047837
:1016B00004F01F050124AC4005786D11AD0005F163
:1016C000E025C5F8004109E0047804F01F05012475
:1016D000AC40054D0678761145F8264070BD0000F7
:1016E0000CED00E000E400E080E100E008B54FF41C
:1016F000A06000F01BF825208DF8000001208DF877
:1017000001008DF802008DF803006846FFF7B2FF74
:10171000252000F01F02012191404209920002F1B0
:10172000E022C2F8001100BF08BD000002490143D9
:10173000024A1160704700000000FA050CED00E05D
:101740007047000029B1064A12680243044B1A6030
:1017500004E0034A12688243014B1A60704700009C
:101760003038024029B1064A12680243044B1A601D
:1017700004E0034A12688243014B1A60704700007C
:1017800044380240F0B50021002200240225002642
:101790000223324F3F6807F00C0121B1042905D024
:1017A000082937D105E02E4F076036E02D4F07603E
:1017B00033E02A4F3F1F3F68C7F38056274F3F1F34
:1017C0003F6807F03F036EB1264FB7FBF3F7DFF832
:1017D0008CC0ACF1040CDCF800C0CCF3881C07FB17
:1017E0000CF40CE01E4FB7FBF3F7DFF870C0ACF160
:1017F000040CDCF800C0CCF3881C07FB0CF4174F7A
:101800003F1F3F68C7F301477F1C7D00B4FBF5F71E
:10181000076002E0124F076000BF00BF0F4F3F6834
:1018200007F0F0010909104F7A5C0768D74047605C
:101830000A4F3F6807F4E051890A0B4F7A5C47680A
:10184000D7408760054F3F6807F46041490B064F5A
:101850007A5C4768D740C760F0BD00000838024096
:101860000024F40040787D010000002021B10288AE
:1018700042F04002028004E002884FF6BF731A4033
:101880000280704710B5FF2000F002F810BD000084
:1018900010B5044600BF02210A4800F015F80028E0
:1018A000F9D02146074800F01BF800BF0121054888
:1018B00000F00AF80028F9D0024800F00EF8C0B293
:1018C00010BD0000005001400246002013890B406B
:1018D0000BB1012000E00020704701468889704765
:1018E0008181704710B50022028802F441520B88B2
:1018F0004C8823438C882343CC8823430C8923437F
:101900004C8923438C892343CC8923431A43028087
:10191000838B4FF2FF74234083830B8A038210BDB5
:10192000704700000CB5002001900090414800680D
:1019300040F480303F49086000BF3E48006800F432
:10194000003000900198401C0190009818B901984F
:10195000B0F5A04FF1D13748006800F4003010B165
:101960000120009001E0002000900098012860D143
:1019700030484030006840F080502E4940310860C7
:101980002D48006840F440402B4908602948083041
:1019900000682849083108600846006840F40040A3
:1019A00008600846006840F4A05008602348091FFA
:1019B0000860081F006840F08070091F086000BFC1
:1019C0001C48006800F000700028F9D01A48006830
:1019D00040F480301849086000BF1748406800F4A0
:1019E00080300028F9D01448006840F400301249D3
:1019F000086000BF1048406800F400300028F9D0AB
:101A000040F205700E4908600A480830006820F06E
:101A100003000849083108600846006840F00200E9
:101A2000086000BF03480830006800F00C00082878
:101A3000F8D10CBD0038024000700040195A400730
:101A4000003C02407047000010B51548006840F4A3
:101A50007000134908601348006840F00100114904
:101A6000086000200F49083108600E4800680E49E0
:101A700008400C4908600D48091D0860081F0068EF
:101A800020F48020091F0860002006490C310860FE
:101A9000FFF748FF4FF0006001498039086010BD32
:101AA00088ED00E000380240FFFFF6FE1030002411
:101AB00010B52021084800F04DF801280BD1064848
:101AC00000F0FCF80446E0B200F084FA2146024837
:101AD00000F0F9F800BF10BD0010014010B5012161
:101AE0000846FFF72FFE01211020FFF73BFE4FF4C1
:101AF00000711048FFF78BFD4FF480610D48FFF730
:101B000086FD072209210B48FFF75AFD07220A210B
:101B10000848FFF755FD00F0B9F8FFF7E7FD01228F
:101B200040F22551044800F022F80121024800F05B
:101B300005F810BD000002400010014021B182896B
:101B400042F40052828104E082894DF6FF731A400C
:101B50008281704702460020B1F5007F00D100BFAE
:101B600013880B400BB1012000E000207047F0B556
:101B70000346002400260025002040F66A17B942DB
:101B800000D100BF1846C1F3421401F01F0601271F
:101B900007FA06F5012C01D10C3004E0022C01D12A
:101BA000103000E014301AB107682F43076002E0DC
:101BB0000768AF430760F0BD2DE9FF4705460E46B5
:101BC0000024A14600BFA046B08900B100BF2C8A06
:101BD00024F44054F08804432C82AC8941F20C6018
:101BE0008443B08831890843718908430443AC8138
:101BF000AC8A24F44074B0890443AC826846FFF791
:101C0000C1FD2048854202D01F48854202D1DDF83F
:101C10000C9001E0DDF80890A88900F4004040B184
:101C200009EBC90000EB091031684900B0FBF1F77E
:101C300007E009EBC90000EB091031688900B0FB2F
:101C4000F1F76420B7FBF0F004012009642101FBE7
:101C50001078A88900F4004040B1322000EBC800A1
:101C6000B0FBF1F000F00700044308E0322000EB85
:101C700008106421B0FBF1F000F00F0004432C8148
:101C8000BDE8FF8700100140001401401FB54FF46C
:101C9000E13000900020ADF804000C20ADF80A00FF
:101CA0000020ADF80800ADF80600ADF80C0069465C
:101CB0000148FFF781FF1FBD0010014001468888E1
:101CC000C0F308007047C1F308028280704700BF6C
:101CD000FEE700000FB4054B10B503A9044A0298B3
:101CE00000F01EF810BC5DF814FB0000DD3C00089D
:101CF0004C00002002E008C8121F08C1002AFAD1D7
:101D000070477047002001E001C1121F002AFBD17B
:101D1000704730380A2801D20120704700207047F0
:101D20002DE9FF4F8BB09A460F460546002606E088
:101D300025280BD052460D9990476D1C761C2878AB
:101D40000028F5D10FB03046BDE8F08F0024A04642
:101D50000122604900E0044315F8013F203B02FAEC
:101D600003F00842F7D128782E2817D115F8010F73
:101D700044F004042A280ED06FF02F022878A0F136
:101D8000300109290AD808EB880102EB410100EB78
:101D900001086D1CF2E757F8048B6D1C2878692840
:101DA0003ED006DC0028CDD063280BD0642804D1B7
:101DB00036E0732810D075284BD052460D999047C5
:101DC000761C85E017F8040B8DF8000000208DF8D4
:101DD0000100E946012003E057F8049B4FF0FF3073
:101DE00061074FF0000401D40AE0641C44450DDA99
:101DF0008442FADB19F804100029F6D106E0641CCD
:101E00008442FCDB19F804100029F8D1264404E0D0
:101E100019F8010B52460D999047641EF8D257E00D
:101E200001CF4FF00A0B002802DA40422D2102E0D8
:101E3000210504D52B218DF82410012103E0E107B1
:101E400005D02021F7E70DF1200908910CE00021D1
:101E5000F9E701CF4FF00A0BF9E75946FEF72AFAE6
:101E600001F1300209F8012D0028F6D1ADEB09008F
:101E700000F1200B600701D44FF00108D84502DDC6
:101E8000A8EB0B0000E000208046002406E009A833
:101E90005246005D0D999047641C761C0898844258
:101EA000F5DB04E0302052460D999047761CB8F1DE
:101EB0000001A8F10108F5DC05E019F8010B524614
:101EC0000D999047761CBBF10001ABF1010BF4DCDE
:101ED0006D1C34E7092801002DE9F04104468846CD
:101EE0000020E070401E60634146204602F054FB33
:101EF00010B10420BDE8F08104F2362002F04EF863
:101F0000074694F83850EB2D03D0E92D01D0E82D89
:101F100043D14AF65520874208D1082223A104F173
:101F20008A00FEF79DF908B90020E3E704F14300B9
:101F300002F034F806464520055D701E304060BB57
:101F4000B6F5007F29DBB6F5805F26DC2DB3681E71
:101F5000284010BB04F1460002F020F8E8B1482008
:101F6000005D401E012818D804F1490002F016F85F
:101F700098B104F14B0002F011F8802806DA04F160
:101F8000580001F0FFFFB0F5803F06D304F14E008A
:101F900002F004F808B10020ACE74AF65520874269
:101FA00001D10220A6E70320A4E7000046415433F4
:101FB00032202020000000000246891ED069801EC9
:101FC000884201D8002070475389106B03FB010041
:101FD000F9E7000010B504460D2C10D100210C4883
:101FE0000C4A1278815400F063F830224FF480716B
:101FF0000748FEF70BF900200649087007E005487E
:1020000001780078401C034A10700148445410BD08
:10201000B0400020300000202DE9F04780460C46FB
:1020200004F11A0001F0BAFF10B10020BDE8F087FA
:10203000207800F03F00401E00EB800101EBC0055E
:102040004FF00109002621E01849895D081901F0C7
:10205000A5FF0746B9F1000F11D0FF2D0BD8384668
:1020600001F02EFD824629466D1C38F8110001F062
:1020700027FD824501D00020D8E7B94605E04FF69C
:10208000FF70874201D00020D0E7761C0D2EDBD3F5
:10209000207800F0400038B1B9F1000F04D038F8D2
:1020A000150008B10020C1E70120BFE7404A000841
:1020B0001FB53C4801683C48FEF7C4F818B9012038
:1020C0003A49087066E0374803AB6A4641683648CB
:1020D000FEF7D4F8022839D135A16846FEF7B2F8E8
:1020E00068B9039828B94FF480613248FFF78BFA3A
:1020F00050E04FF480612F48FFF787FA4AE02EA1A5
:102100006846FEF79FF868B9039828B94FF4006154
:102110002848FFF778FA3DE04FF400612548FFF7C3
:1021200074FA37E025A16846FEF78CF8002831D113
:10213000039828B94FF480511E48FFF764FA29E04C
:102140004FF480511B48FFF760FA23E01CA11648AA
:10215000FEF778F818B90020144908701AE01AA19F
:102160001148FEF76FF890B94FF480611148FFF7FE
:102170004CFA4FF400610F48FFF747FA4FF48051D3
:102180000C48FFF742FA00200849087002E010A04E
:10219000FFF7A0FD30224FF480710348FEF736F8B8
:1021A0001FBD000034000020B0400020310000209E
:1021B00072000000001C0240670000006200000086
:1021C00073746F7000000000636C65617200000042
:1021D0000A4E6F207375636820636F6D6D616E6466
:1021E0002C20706C6561736520636865636B20618A
:1021F0006761696E210A00002DE9F0478246884632
:10220000DAF80040B8F1000F06D1676917B1E0694C
:10221000B84215D8012713E04146504601F0DAFDD7
:102220000546022D02D20120BDE8F087681C08B9DE
:102230002846F9E7E069A84201D92846F4E747466D
:10224000A06908B90020EFE70026474518D17E1C99
:10225000E069B04200D802263146504601F0BAFD8E
:102260000546012D01D0681C08B92846DCE73DB1C0
:102270006569022D03D3E069A84200D92F460026E4
:10228000E6B93E4600BF761CE069B04204D802269B
:10229000BE4201D90020C7E73146504601F09AFD01
:1022A000054605B909E0012D01D0681C08B928468A
:1022B000BAE7BE42E7D10020B6E700BF4FF0FF32D9
:1022C0003146204602F082F98146B9F1000F08D16B
:1022D000B8F1000F05D032464146204602F076F9AB
:1022E0008146B9F1000F0DD16661D4E90610801E58
:1022F000814202D8A069401EA061207940F001000F
:10230000207107E0B9F1010F02D14FF0FF3000E07A
:1023100001200646304687E72DE9F34F83B081461A
:10232000049800680090D9F80000D0F810A00025AB
:1023300000BF684602F03FFB83460BF1010018B96D
:10234000062005B0BDE8F08FBBF5803F05D34FEA0E
:102350001B4228466D1C2AF810201FFA8BF4202CF3
:1023600003DB2F2C01D05C2C00D111E0802C06DA8D
:1023700021467DA0FDF75CFF08B10620E1E7FF2DB7
:1023800001D30620DDE728466D1C2AF81040D0E76F
:1023900000BF202C01DA042611E002E00098401C66
:1023A0000090009800782F28F8D0009800785C28DA
:1023B000F4D0002600980078202800D20426009946
:1023C0000498016008E0681E3AF81040202C02D002
:1023D0002E2C00D002E06D1E002DF4D100BF002095
:1023E0002AF815000DB90620ABE7002700E07F1C96
:1023F0003AF817002028FAD01FB93AF817002E280B
:1024000001D146F0030600E06D1E25B1681E3AF8C2
:1024100010002E28F8D120220B2109F12000FDF711
:10242000F5FE4FF00008CDF808800820019000BFAD
:1024300038467F1C3AF8104004B96AE0202C03D0DB
:102440002E2C04D1AF4202D046F00306F0E7DDE9BE
:102450000110884201D2AF4216D101980B2802D157
:1024600046F0030655E0AF4201D046F00306AF4206
:1024700000D94EE02F46082002900B2001904FEA31
:1024800088604FEA1068D3E7802C0EDB46F0020626
:1024900040F2B511204601F0F3FA044604F0800042
:1024A00018B104F07F0033490C5CFF2C11DD01985A
:1024B000401E0299884204D846F003060198029013
:1024C000B6E722120298411C029109F120010A5438
:1024D00018E024B1214628A0FDF7AAFE18B15F2418
:1024E00046F003060EE0412C03DB5A2C01DC48F0D9
:1024F0000208612C06DB7A2C04DC48F00108A4F108
:10250000200084B20298411C029109F120010C5470
:102510008EE700BF99F82000E52802D1052089F850
:1025200020000198082803D14FEA88604FEA10681C
:1025300008F00C000C2803D008F00300032801D198
:1025400046F0020606F0020048B908F0010008B1A2
:1025500046F0100608F0040008B146F008062B20EB
:1025600000F809600020ECE62A3A3C3E7C223F7FDE
:10257000000000004D4A00082B2C3B3D5B5D000035
:102580002DE9FF4F85B09A4603AA0121059800F076
:1025900008FB18B1012009B0BDE8F08FDDF80C9000
:1025A0004FF03F08082701E07806070E37B1B9FB66
:1025B000F7F0B0FBF8F0B0F5806FF5D807B9FF275A
:1025C0004FF480515046FDF728FE0AF5DF764FF0B4
:1025D000000B444669E0069850F82B50642D07D84C
:1025E00001D1484603E06420B9FBF0F0684305469A
:1025F0006019484501D8601901D3A9EB040505B954
:1026000059E0214606F1080002F047F9294606F193
:102610000C0002F042F907983071B4FBF8F0B0FBFF
:10262000F7F00490B4FBF8F0B0FBF7F107FB1100F2
:10263000C0B20290B4FBF8F008FB1040401CC0B2DE
:10264000019002987070C021049801EA90000199ED
:102650000843B0700498F0706019401EB0FBF8F0A9
:10266000B0FBF7F004906019401EB0FBF8F0B0FB2F
:10267000F7F107FB1100C0B202906019401EB0FBD9
:10268000F8F108FB1100401CC0B201900298707173
:10269000C021049801EA900001990843B0710498A0
:1026A000F07110360BF1010B2C44BBF1040F02D278
:1026B0000CB14C458FD300BF4AF655210AF5FF7087
:1026C00002F0F7F8012300225146059800F0ACFA19
:1026D00008B101205FE700205DE7014609B1002055
:1026E00070470020FCE7014609B100207047002038
:1026F000FCE72DE9F04104460E46D4F800800021A5
:10270000204600F0E3F90546EDB9002700BF40463A
:10271000A16901F041FF054605B113E0E0690078C9
:10272000E52802D0E069007820B9781C0746B0425D
:1027300001D107E000270121204600F0B7F8054647
:10274000002DE4D000BF042D00D107252846BDE8A8
:10275000F0812DE9F04704468946204602F006F94B
:1027600010B10120BDE8F08749462046FFF724FC60
:10277000064666634FF4805104F13800FDF74DFDC5
:1027800004F138080127002500E03D446089A84293
:1027900007D9721960783B46414600F045FA002897
:1027A000F3D06089A84201D00120DBE70020D9E7FF
:1027B0002DE9F0470446D4F800A00021204600F09F
:1027C00085F9064616B13046BDE8F0874FF0FF08A0
:1027D000C1464FF0FF30E06200BF5046A16901F0F2
:1027E000DBFE064606B15EE0E06905780DB9042619
:1027F00059E0E069C07A00F03F07A771E52D04D0E9
:1028000007F0080038B10F2F05D04FF0FF084FF048
:10281000FF30E06240E00F2F22D12B20005D00F05E
:10282000400098BB05F0400038B1E06990F80D9089
:1028300005F0BF05A8462069E06245450CD1E06976
:10284000407B484508D1E169DAF81000FFF7E4FB66
:1028500010B1A8F1010000E0FF2000F0FF081BE02C
:10286000B8F1000F05D1E06902F029F8484500D120
:1028700019E02B20005D00F0010040B90B2204F1AB
:102880002001E069FDF7ECFC08B90CE004E04FF032
:10289000FF084FF0FF30E0620021204600F006F80C
:1028A0000646002E99D000BF30468DE72DE9F04155
:1028B000044688462668206900F12007B7F5001F06
:1028C00001D30020A061A06910B90420BDE8F08107
:1028D000B089B7FBF0F100FB1170002847D1A06967
:1028E000401CA061606938B93089B0EB571F3ED8F1
:1028F0000020A0610420E9E7B089B7FBF0F07189FE
:10290000491E084098BB2046616901F063FA0546FC
:10291000012D01D80220D9E7681C08B90120D5E7AC
:10292000F069A8421DD8B8F1000F03D10020A061C2
:102930000420CBE720466169FFF75EFC05460DB930
:102940000720C3E7012D01D10220BFE7681C08B9A9
:102950000120BBE729463046FFF7FBFE08B1012006
:10296000B4E7656129463046FFF726FBA061276181
:10297000B089B7FBF0F100FB117106F13800084493
:10298000E0610020A2E72DE9FE4F044626682B20D7
:10299000005D00F0A00010B10620BDE8FE8F4FF0F2
:1029A000000901E009F10109306930F81900002837
:1029B000F8D1D4E90912206A8DE807009DF80B00D0
:1029C00000F0010028B340212B2001554FF00108F1
:1029D0000EE04346694604F12000326901F090F9A7
:1029E0002046FFF7E5FE054605B104E008F10108C1
:1029F000B8F1640FEDD300BFB8F1640F01D1072027
:102A0000CBE7042D01D02846C7E79DF80B102B20FB
:102A100001559DF80B0000F0020030B109F10C00E7
:102A20000D21B0FBF1F0401C00E0012007463946C3
:102A30002046FFF75EFE05464DBB781E071E26D0DA
:102A40002069A0EB4711204600F040F80546F5B993
:102A500004F1200001F033FF824600BF3046A16937
:102A600001F09AFD054605B110E0FAB2E16953465E
:102A7000306901F073FE0120F07000212046FFF75D
:102A800015FF054615B9781E071EE7D100BFDDB951
:102A90003046A16901F080FD0546ADB92021E0690D
:102AA000FDF7BBFBE069216A0160616A4160218D2D
:102AB000018194F82A1081722B20005D00F018002B
:102AC000E16908730120F070284666E72DE9F041BE
:102AD00004460E462568B6F5001F02D206F01F0018
:102AE00010B10220BDE8F0812661A7681FB92878DF
:102AF000032800DBEF6A47B92889B0EB561F01D8DD
:102B00000220EFE7E86AA0611DE06889A98900FB5F
:102B100001F811E03946204601F05CF90746781CBF
:102B200008B90120DEE7022F02D3E869B84201D8D4
:102B30000220D7E7A6EB08064645EBD239462846E1
:102B4000FFF73AFAA0616761A06908B90220C9E7F6
:102B5000A889B6FBF0F0A1690844A061A889B6FB7A
:102B6000F0F100FB116105F138000844E06100203C
:102B7000B8E770B50446012684B9FEF7F1FB4FF4BF
:102B8000FA7500BF281EA5F101018DB2FAD1FEF73A
:102B900009FC002000F036F8064600BF00BF3046B2
:102BA00070BD10B503460420A3B9012904D0022941
:102BB00006D003290BD107E04FF48054146006E0DF
:102BC0004FF48054148002E00124146000BF00BF61
:102BD000002000BF00BF10BD2DE9F04105460E46A4
:102BE00014461F464DB904F580543A03210330467C
:102BF000FEF7AEFA4FF0000800BF00BF4046BDE848
:102C0000F081000070B5044601253CB9FEF7AEFB2B
:102C10000449884201D125F0010500BF00BF2846C4
:102C200070BD00001940EF002DE9F04706460F4641
:102C3000144698464FF0040976B904F580542503EC
:102C40002846FEF72BFB4FEA083229463846FEF7A6
:102C5000A9FA4FF0000900BF00BF4846BDE8F08761
:102C600038B50546284600F09BFD04463CB9694648
:102C7000284601F0C6FE04460CB900202860204614
:102C800038BD00002DE9FF4F99B00E4619A801F09C
:102C90003FF903900398002803DA0B201DB0BDE82C
:102CA000F08FF749039851F8200028B10021F44A29
:102CB000039852F8200001700398C0B216900020CB
:102CC000159006B9EF4E1698FFF753FF0290029841
:102CD00000F0010008B10320E0E7029800F00400D2
:102CE00008B10A20DAE770681290129838B912AA6F
:102CF00003211698FFF755FF08B101201290129892
:102D000040B11298B0F5004F04D81298401E1299A5
:102D1000084008B10120129014AA02211698FFF76A
:102D200040FF08B10120B9E7BDF85000B0F5805F61
:102D30000BDCBDF85000B0F5007F06DBBDF850009D
:102D4000401EBDF85010084008B10120A6E73078B9
:102D500000F00F0018907078012804DB70780228CA
:102D600001DC707800E001200590B16889B1B1689C
:102D7000B1F5004F0DD8BDF85000C11700EBD1617F
:102D80004911B268B2FBF1F301FB132109B9B16833
:102D900001E04FF400710491F068B0F1807F05D834
:102DA000F068411E084008B9F06800E00020069075
:102DB000BDF850100698B0FBF1F00690BDF8501029
:102DC0001C98B0FBF1F01390139808B9112065E737
:102DD0001B9C0CB9112061E74FF0000ACDF83CA014
:102DE00000BF0FAA01211698FFF7DBFE08B10120F2
:102DF00054E7189800F0080040B90F983F2805D90B
:102E00004FF03F0A0F98A0EB0A000F900F98802810
:102E100001D20E2042E700BF00BF0698802801D9EA
:102E200080200690189800F0020028B1189800F051
:102E3000010008B9032707E0189800F0010008B95D
:102E400013202BE7022700BF00BF01F05DF80F99A8
:102E50000844109000BF069D032F2DD195B90F98FF
:102E60004FEA50494FF0000B012502E00BF1010B36
:102E70006D00854830F81B0020B1834830F81B00F6
:102E80004845F3D90F98B0FBF5F8082000EB88000F
:102E9000BDF850100844401EB0FBF1F0089020200F
:102EA0000990002007904FF6F570804502D97748C9
:102EB000804539D90E20F1E695B90F984FEA1039BF
:102EC0004FF0000B012502E00BF1010B6D00704883
:102ED00030F81B0020B16E4830F81B004845F3D98C
:102EE0000F98B0FBF5F840F6F570804503D9042043
:102EF00000EB480906E0012708EB4800401C0321CD
:102F000001EB5009BDF850004844401EBDF8501078
:102F1000B0FBF1F008900120099004984001BDF841
:102F20005010B0FBF1F00790099850440E90059AAC
:102F300008990E9801FB0201079808440D90129918
:102F40000D980844401E491E20EA01010D98A1EB8E
:102F50000009032F06D10998484409900E98484467
:102F60000E9013E00598B9FBF0F100FB119038B119
:102F7000A9F101090998401C09900E98401C0E9077
:102F80000598B9FBF0F10898084408900D9800EBFB
:102F90000510A0EB0A000F99884201D90E207DE6AA
:102FA0000F9909980A1A0599089800FB11210798AA
:102FB000081AB0FBF5F8032F0BD14FF6F5708045DA
:102FC00007D8069818B96808069000B135E00E20B9
:102FD00064E6022F28D14FF6F570804517D9069880
:102FE00030B94020B0EB450F02D36800069024E0D2
:102FF000189800F0020008B103271EE0069820B9D7
:1030000068000690802800D817E00E2046E640F6BB
:10301000F570804508D8069820B968000690802889
:1030200000D80AE00E2039E6012F05D140F6F570F0
:10303000804501D90E2031E600E00CE700BFBDF865
:1030400050102046FDF7E9F812A0016821604168A0
:10305000616001892181807AA072BDF8501004F16D
:103060000B0001F026FC6573099881B204F10E0093
:1030700001F01FFC05982074032F11D1002010E0EF
:1030800044000020EC4A0008DC4A0008F5FFFF0F6E
:10309000CE4A0008EBFE904D53444F53352E30007E
:1030A000049881B204F1110001F003FC0F98B0F50F
:1030B000803F06D20F9881B204F1130001F0F9FBB2
:1030C00004E004F120000F9901F0E7FBF82060759F
:1030D0003F2104F1180001F0ECFBFF2104F11A007C
:1030E00001F0E7FB514604F11C0001F0D6FB032F71
:1030F00025D104F14300109901F0CFFB04F1240025
:10310000089901F0CAFB022104F12C0001F0C5FB73
:10311000012104F1300001F0CCFB062104F1320062
:1031200001F0C7FB802084F84000292084F8420089
:10313000132283A104F14700FDF756F816E004F1CD
:103140002700109901F0A9FB089881B204F116003C
:1031500001F0AFFB802084F82400292084F82600A9
:1031600013227CA104F12B00FDF73EF84AF655210D
:1031700004F5FF7001F09DFB01235246214616988D
:10318000FFF752FD08B1012088E5032F33D1012359
:103190000AF1060221461698FFF746FDBDF85010C9
:1031A0002046FDF73AF87049204601F076FB6F495A
:1031B00004F5F27001F071FBA8F1010104F5F4705F
:1031C00001F06BFB022104F5F67001F066FB4AF694
:1031D000552104F5FF7001F06CFB01230AF1070291
:1031E00021461698FFF720FD01230AF1010221462E
:1031F0001698FFF719FDBDF85020139800FB02F157
:103200002046FDF70AF80E980C904FF0000B40E0B6
:10321000032F0FD16FF00701204601F03EFB391F4D
:10322000201D01F03AFB6FF0704104F1080001F03D
:1032300034FB09E0012F01D14D4801E06FF0070098
:103240000146204601F029FB0898119000BF139910
:103250001198884201D9139800E0119881464B4695
:1032600021460C9A1698FFF7DFFC08B1012015E5FE
:10327000BDF850102046FCF7D0FF0C9848440C9045
:103280001198A0EB0900119011980028DFD10BF1E3
:10329000010B05988345BBD3032F01D1284600E0DD
:1032A0000798119000BF13991198884201D913987B
:1032B00000E0119881464B4621460C9A1698FFF77C
:1032C000B3FC08B10120E9E40C9848440C90119833
:1032D000A0EB0900119011980028E4D100BF032F42
:1032E00002D10C2017900CE00F98B0F5803F02D36C
:1032F0000620179005E0022F01D1042000E00120F4
:10330000179000BF189800F0080070B90F980A9045
:1033100000200B9023460AA9DDE91602FFF730F9D9
:103320000190019808B10198B8E40022114616985E
:10333000FFF737FC08B10120B0E40020AEE4000044
:103340004E4F204E414D45202020204641543332DF
:10335000202020004E4F204E414D45202020204669
:10336000415420202020200052526141727241615C
:10337000F8FFFF00F7B582B016460398019001A848
:1033800000F0C6FD0546002D02DA0B2005B0F0BDA9
:103390000C4850F825400CB100202070029810B164
:1033A0000020029908700749029841F825000EB9DB
:1033B0000020EBE7002202A903A800F073FF0746F4
:1033C0003846E3E7440000202DE9F74FADF50E7DC8
:1033D0000446164624B909200DF5117DBDE8F08F8D
:1033E00006F03F06324681A98FA800F05BFF054634
:1033F000002D73D1819882908199C1F810D082A854
:103400008F9900F017FC05462DB99DF8330200F0A6
:10341000800000B1062506F01C00002856D045B1FA
:10342000042D03D182A8FFF7AEFA054646F0080640
:103430000AE09DF80E0200F0110008B1072503E034
:1034400006F0040000B10825002D51D106F0080057
:1034500000284DD000F058FD8090899901F10E00B0
:10346000809901F01AFA899901F11600809901F00A
:1034700014FA8999819800F072FD8146202089997B
:10348000C87200228999819801F0F5F9899901F1B2
:103490001C00002101F001FA01208199C870B9F1E6
:1034A000000F25D08198D0F834A00022494682A888
:1034B00001F094F90546DDB95146819801F06CF8A8
:1034C0000546A9F101008199486111E085B99DF88F
:1034D0000E0200F0100010B1042509E063E006F0D0
:1034E000020028B19DF80E0200F0010000B107258E
:1034F0004DB906F0080008B146F040068198406BCF
:10350000206289986062002D5ED18999819800F0CF
:1035100026FDA060899901F11C0000F033FDE060F8
:10352000819820608198C088A080267400206074F3
:10353000E06160614FF4805104F12800FCF76DFEFA
:1035400006F0200078B3E06868B3E06860618198B5
:1035500040898199898900FB01FBA768D4F80C8018
:103560000CE03946204600F035FC0746012F00D814
:103570000225781C00B90125A8EB0B080DB9D84528
:10358000EFD8A7617DB981988089B8FBF0F100FB85
:10359000118040B139468198FEF70EFD8246BAF19E
:1035A000000F01D102250FE081988089B8FBF0F06F
:1035B0005044E061E26981994878012304F12801CF
:1035C000FFF70AFB00B101250DB10020206028465D
:1035D00002E72DE9FF4F85B0044615469A46DDF80F
:1035E00018B00020CAF8000003A9204601F009FA2B
:1035F0000490049810B9607C049018B1049809B044
:10360000BDE8F08F207C00F0010008B90720F6E744
:103610006169E068401A01900198854200D9019DD6
:10362000B9E0606903998989B0FBF1F201FB1200EE
:10363000002876D1606903998989B0FBF1F003997C
:103640004989491E00EA0109B9F1000F17D16069E3
:1036500010B9A068029004E02046A16900F0BAFB0E
:1036600002900298022802D202206074C7E70298F2
:10367000401C10B901206074C1E70298A061A169E3
:103680000398FEF799FC064616B902206074B6E767
:103690004E4403988089B5FBF0F8B8F1000F2DD0A7
:1036A00009EB080003994989884203D903984089A6
:1036B000A0EB090803994878434632465946FFF77C
:1036C0008BFA10B10120607499E7207C00F0800033
:1036D00078B1E069801B40450BD2E169891B039BEF
:1036E0009B8901FB03B003998A8904F12801FCF747
:1036F0007BFD0398808900FB08F742E0E069B04257
:1037000020D0207C00F0800080B1E26903994878E5
:10371000012304F12801FFF787FA18B10120607432
:103720006DE710E0207C00F07F002074039948785A
:103730000123324604F12801FFF74EFA10B10120AF
:1037400060745CE7E661606903998989B0FBF1F216
:1037500001FB1200039989890F1AAF4200D92F4645
:10376000606903998989B0FBF1F201FB120104F150
:10377000280008443A46014600905846FCF734FDBC
:1037800000BFED1BDAF800003844CAF80000BB4463
:10379000606938446061002D7FF443AF00202EE75C
:1037A000F8B504466946204601F02BF90646002E7E
:1037B00044D1207C00F0400000283FD0207C00F065
:1037C000800070B1E26900994878012304F1280172
:1037D000FFF72AFA08B10120F8BD207C00F07F0035
:1037E000207400F091FB0746216A009800F0D4FE97
:1037F00006461EBB656AE87A40F02000E87229465A
:10380000A268206801F037F805F11C00E16801F0BA
:1038100044F8394605F1160001F03FF8002105F1A2
:10382000120001F046F801200099C870009801F0DC
:1038300057F80646207C00F0BF0020743046CBE7E6
:103840002DE9FF4F85B0044615469B460698029029
:103850000020CBF8000003A9204601F0D2F8049024
:10386000049810B9607C049018B1049809B0BDE8C0
:10387000F08F207C00F0020008B90720F6E700BFB7
:10388000606928446169884202D26069C0F1FF35ED
:10389000D6E0606903998989B0FBF1F201FB12005F
:1038A00000287DD1606903998989B0FBF1F0039903
:1038B0004989491E00EA010ABAF1000F1ED1606968
:1038C00038B9A76857B900212046FEF795FC07468E
:1038D00004E02046A169FEF78FFC074607B9B2E075
:1038E000012F02D102206074C0E7781C10B90120BA
:1038F0006074BBE7A761A06800B9A760207C00F0F6
:10390000800078B1E26903994878012304F1280125
:10391000FFF78AF910B101206074A7E7207C00F05E
:103920007F002074A1690398FEF746FB064616B98E
:10393000022060749AE7564403988089B5FBF0F939
:10394000B9F1000F31D00AEB090003994989884287
:1039500003D903984089A0EB0A09039948784B469C
:1039600032460299FFF760F910B1012060747DE7DB
:10397000E069801B484511D2E069831B0398B0F8C9
:103980000CC0029803FB0C010398828904F1280003
:10399000FCF72AFC207C00F07F002074039800E0F4
:1039A00017E0808900FB09F835E0E069B0420FD0EC
:1039B000E168606988420BD2039948780123324656
:1039C00004F12801FFF708F910B1012060744DE7F8
:1039D000E661606903998989B0FBF1F201FB12008D
:1039E00003998989A1EB0008A84500D9A846606918
:1039F00003998989B0FBF1F201FB120104F128005F
:103A00000844424601900299FCF7EEFB207C40F00E
:103A10008000207400BFA5EB0805DBF800004044DF
:103A2000CBF8000002984044029060694044606115
:103A3000E1686069884201D9606900E0E068E0609F
:103A4000002D7FF426AF00BF207C40F040002074A2
:103A500000200BE710B502460020084B802A01DA4F
:103A6000104609E040F2B514A14205D1FF2A03DC5B
:103A7000A2F1800433F8140010BD0000FC4A0008D5
:103A800010B5024600200D4B802A01D290B213E0FF
:103A9000B2F5803F10D240F2B514A1420CD1002003
:103AA00001E0441CA0B2802803DA33F810409442AD
:103AB000F7D100F18004E0B210BD0000FC4A00081C
:103AC00070B5B0F5803F4DD281B2B1F5805F01DABB
:103AD000254E00E0254E324600BF32F8023B0BB1C6
:103AE000994200DA3CE032F8024B2512E4B21E198A
:103AF0008E4230DD092D2CD2DFE805F005090F13C9
:103B0000171B1F232700CE1A32F8161021E0CE1AF9
:103B100006F001068E1BB1B21BE0A1F11006B1B296
:103B200017E0A1F12006B1B213E0A1F13006B1B265
:103B30000FE0A1F11A06B1B20BE001F10806B1B233
:103B400007E0A1F15006B1B203E0A1F5E356B1B22E
:103B500000BF00BF04E0002DBFD102EB4402BCE770
:103B600000BF084670BD0000FC4B0008EE4D000889
:103B70002DE9FF4107460D4600213846FEF7ACF916
:103B8000064631461CA0FEF7A5F8022E06D0032EED
:103B900000D21DB9304604B0BDE8F0811BA0FEF78D
:103BA00099F800BF00240AE007F5FB7101EB04114E
:103BB00001F1080000F0E6F94DF82400641C042C23
:103BC000F2D30DB1681E00E00020044600BF5DF88E
:103BD000240028B15DF824103846FEF77DF900E096
:103BE000032006462DB9022E03D3601C0446042888
:103BF000EDD33046CFE700005B46415446535D208D
:103C00005B666D743A2025645D0A00002B2B2B2B1C
:103C10002B2B2B2B2B2B2B2B2B2B2B2B2B2B2B2BF4
:103C20002B2B2B2B2B2B2B2B2B2B2B2B2B2B2B2BE4
:103C30002B2B00002DE9F3410446276802E0019890
:103C4000401C0190019800782F28F8D00198007846
:103C50005C28F4D00020A06001980078202808D2C9
:103C600080212B20015500212046FEF72FFF05461D
:103C700031E000BF01A92046FEF74EFB054605B125
:103C800028E02046FEF794FD05462B20065D3DB159
:103C9000042D04D100BF06F0040000B9052519E089
:103CA00006F0040000B115E0A07900F0100008B99A
:103CB00005250FE0B9892069B0FBF1F201FB120183
:103CC00007F1380001EB00084146384600F047F99B
:103CD000A060CFE700BF2846BDE8FC8170B5044670
:103CE0000D46E1B20548FDF7EEFF00BF8021034815
:103CF000FDF730FF0028F9D0204670BD00100140CC
:103D00002DE9FF4F83B0074691461E46049801688F
:103D100039604168796001893981807AB872052EED
:103D200019D9B04612E039F802BB00240CE058461D
:103D300068F35F0080464FEA6B0B08F4803010B1E7
:103D4000234888EA0008641C102CF0D3B9F800005E
:103D50000028E8D14646072400BF06F00F0000F116
:103D6000300A3609BAF1390F03DD0AF1070000F015
:103D7000FF0A2046641E01A901F800A00CB1002E24
:103D8000EBD17E2001A90855002509E0785DFEF7FA
:103D9000A4FC20B1601EA84200D106E06D1C6D1C81
:103DA000A54202D2785D2028F0D100BF00BF082CC8
:103DB00004D22046641C01A9085C00E020202946AA
:103DC0006D1C7854082DF2D307B0BDE8F08F0000C9
:103DD000211001002DE9F05F81460D46D9F8004021
:103DE000022D02D3E069A84202D84FF0010887E013
:103DF0004FF0FF382078012804D002283AD0032859
:103E00007AD156E02E4606EB5606A089B6FBF0F0B6
:103E1000A16A00EB010A5146204600F0BDFB00B14B
:103E20006DE03046761CA189B0FBF1F201FB120176
:103E300004F13800475CA089B6FBF0F0A16A00EB02
:103E4000010A5146204600F0A7FB00B157E0A089C7
:103E5000B6FBF0F100FB116104F13800405C47EA69
:103E6000002705F0010008B1380901E0C7F30B0095
:103E7000804644E0B4F80CA00AEBDA704010B5FBC1
:103E8000F0F0A16A00EB010B5946204600F084FBDC
:103E900000B134E06800A189B0FBF1F201FB12012E
:103EA00004F1380001EB000A504600F077F8804634
:103EB00025E0B4F80CA04FEAEA700AEB907080108D
:103EC000B5FBF0F0A16A00EB010B5946204600F06B
:103ED00063FB00B113E0A800A189B0FBF1F201FB84
:103EE000120104F1380001EB000A504600F04AF8D4
:103EF00020F0704803E0FFE74FF0010800BF00BF6B
:103F00004046BDE8F09F0000004870470000214691
:103F100070B504464FF0FF3026683146324601B98D
:103F200070BD00BF12F8013B202B01D33A2BF9D111
:103F30003A2B11D101250E78302E08DB0E78392E60
:103F400005DC8E1C964202D10E78A6F13005012DBB
:103F500001DA28462260E3E7002000BFE0E770B501
:103F600005460C4604F11A0000F018F806462878B9
:103F7000032805D104F1140000F010F846EA0046C9
:103F8000304670BD0146C8788A7842EA00204A78F7
:103F900042EA00200A7842EA002070470146487849
:103FA0000A7842EA00207047FDF746FB4FF4805143
:103FB0005248FDF728FB4FF480615048FDF725FB80
:103FC0004FF400614D48FDF720FBFDF787FD4CA045
:103FD000FDF780FE012256A15648FFF7CBF956495E
:103FE00008700846017855A0FDF774FE5248007825
:103FF0000D2820D158A0FDF76DFE4FF480535D4A87
:1040000000214BA0FEF73EFE4B49087008460078A1
:1040100068B9002246A11046FFF7ACF9464908707E
:10402000012243A14348FFF7A5F94349087052A074
:10403000FDF750FE05E04048007810B955A0FDF7A7
:1040400049FE4FF400612D48FDF7DDFA4FF4806121
:104050002A48FDF7DAFA4FF480512848FDF7D5FADF
:1040600053A0FDF737FE0A225FA16248FFF7ACF9C3
:10407000314908700846017830A0FDF72BFE2E4824
:10408000007898B95CA0FDF725FE624B17226249C3
:104090005848FFF7D5FB284908700846007810B942
:1040A0005EA0FDF717FE5348FEF7DAFD62A0FDF7AC
:1040B00011FE11224CA14F48FFF786F91E490870E6
:1040C0000846007878B9534B4FF480526849494804
:1040D000FFF77FFA184908700846007818B9644954
:1040E00064A0FDF7F7FD4348FEF7BAFD002210A1DA
:1040F0001046FFF73FF900BFFEE70000001C02403A
:104100002A2A2A2A2A2A2A2A2A2A2A2A4641544696
:10411000532066696C652073797374656D207465CE
:1041200073742A2A2A2A2A2A2A2A2A2A2A2A0A00A6
:10413000303A0000502000202B0000205B46415404
:1041400046535D205B7265735F666C6173683A20ED
:1041500025645D0A000000005B46415446535D2023
:104160005B4E6F2066696C652073797374656D2191
:104170005D0A0000501000205B46415446535D200C
:104180005B666F726D617420737563636573732111
:104190005D0A00005B46415446535D205B616C72D2
:1041A0006561647920666F726D6174215D0A00003B
:1041B0002A2A2A2A2A2A2A2A2A2A2A2A46415446E6
:1041C000532066696C652073797374656D2077720E
:1041D0006974696E6720746573742A2A2A2A2A2AE8
:1041E0002A2A2A2A2A2A0A00303A46415446532EBD
:1041F00074787400883000205B46415446535D203B
:104200005B73746172742077726974696E672E2EA5
:104210002E5D0A002C000020140000205B46415453
:1042200046535D205B66696E6973682077726974B6
:10423000696E67215D0A00002A2A2A2A2A2A2A2A68
:104240002A2A2A2A46415446532066696C652073FF
:10425000797374656D2072656164696E6720746539
:1042600073742A2A2A2A2A2A2A2A2A2A2A2A0A0065
:10427000500000205B46415446535D205B726561EF
:10428000642066696C653A2046415446532E747822
:10429000745D5B636F6E74656E743A2025735D0A9E
:1042A000000000002DE9F74F84B00021059801605F
:1042B0000498FFF72DFE03900398002803DA0B20E3
:1042C00007B0BDE8F08FAF49039851F820400CB912
:1042D0000C20F5E705980460069800F0FE000690B3
:1042E000207878B16078FEF78DFC074607F0010072
:1042F00040B9069820B107F0040008B10A20DFE7B2
:104300000020DDE700202070039860706078FEF7E1
:1043100030FC074607F0010008B10320D0E70698FB
:1043200020B107F0040008B10A20C9E7607804F161
:104330000C020221FEF735FC08B10120C0E7A0897C
:10434000B0F5805F07DCA089B0F5007F03DBA089B2
:10435000411E084008B10120B2E700212046FFF7C6
:1043600007FC0546042D01D10120A9E7022D01D348
:104370000D20A5E7D4F8349004F14300FFF70EFEBA
:10438000A189884201D00D209AE704F14E00FFF781
:1043900005FE064626B904F15C00FFF7F3FD06466C
:1043A00026624820005DA070A078012804D0A07883
:1043B000022801D00D2083E7A07846434520005D08
:1043C0006081608918B16089411E084008B10D20E4
:1043D00076E704F14900FFF7E1FD2081A089C117CC
:1043E00000EBD1614911228992FBF1F301FB13210A
:1043F00009B10D2064E704F14B00FFF7CFFD8246C1
:10440000BAF1000F04D104F15800FFF7BBFD82465A
:1044100004F14600FFF7C2FD8346BBF1000F01D156
:104420000D204DE7A089C11700EBD1614911228908
:1044300092FBF1F10BEB06021144029102998A45BD
:1044400001D20D203CE70298AAEB00006189B0FB85
:10445000F1F8B8F1000F01D10D2031E700254A48ED
:10446000804500D803254FF6F570804500D8022519
:1044700040F6F570804500D801250DB90D201FE7E5
:1044800008F10200E061C4F8249009EB0B00A0627F
:10449000029848442063032D13D104F16200FFF712
:1044A0007DFD08B10D200BE7208908B10D2007E73D
:1044B00004F16400FFF766FDE062E06980000190AE
:1044C00014E0208908B90D20FAE6A06A3044E062C1
:1044D000022D02D1E069400007E0207F00F00100DA
:1044E000E16901EB410100EB51000190A089401E00
:1044F00001990844A189B0FBF1F0216A884201D9F1
:104500000D20DDE64FF0FF30A0616061802020715A
:10451000032D2DD104F16800FFF740FD012827D1BC
:1045200009F10101204600F037F808BB0020207196
:1045300004F23620FFF732FD4AF65521884217D1A2
:1045400004F13800FFF71EFD1049884210D104F530
:104550000770FFF717FD0E49884209D104F508706E
:10456000FFF710FDA06104F50970FFF70BFD606116
:10457000257008480088401C80B206490880E08009
:1045800000209DE644000020F5FFFF0F52526141DC
:10459000727241614800002070B504460D46002645
:1045A000606BA84210D0204600F0E0F906465EB9E4
:1045B000607801232A4604F13801FEF70DFB10B1A3
:1045C0004FF0FF3501266563304670BD2DE9F05F81
:1045D00004460D4616464FF00209022D72D3E069DB
:1045E000A8426FD92078012804D0022857D0032888
:1045F00011D179E02F4607EB5707A089B7FBF0F000
:10460000A16A00EB010A51462046FFF7C5FF81462B
:10461000B9F1000F00D09DE038467F1CA189B0FBA6
:10462000F1F201FB120104F1380001EB000805F082
:10463000010028B1F1B298F8000061F31F1000E00A
:10464000304688F800000120E070A089B7FBF0F048
:10465000A16A00EB010A51462046FFF79DFF814603
:10466000B9F1000F00D075E0A089B7FBF0F100FBB5
:10467000117104F1380001EB000805F0010010B1E0
:10468000C6F3071006E098F8000000F0F000C6F34B
:104690000321084388F800000120E0705AE0B4F8D4
:1046A0000CA00AEBDA704010B5FBF0F0A16A00EB49
:1046B000010B59462046FFF76FFF8146B9F1000F05
:1046C00001D047E047E06800A189B0FBF1F201FBAF
:1046D000120104F1380001EB000AB1B2504600F0BB
:1046E000E8F80120E07035E0B4F80CA04FEAEA7079
:1046F0000AEB90708010B5FBF0F0A16A00EB010BA3
:1047000059462046FFF748FF8146B9F1000F00D017
:1047100020E0A800A189B0FBF1F201FB120104F135
:10472000380001EB000A5046FFF72CFC66F31B0033
:104730000646A800A189B0FBF1F201FB120104F1C9
:10474000380001EB000A3146504600F0A6F801207F
:10475000E07000BF00BF4846BDE8F09F2DE9F0477C
:1047600007460C461546984684F80D800F20E072E7
:1047700000202073002104F11A0000F09AF8681E4E
:1047800000EB800101EBC00900200646824600BF15
:104790004FF6FF70864204D0484609F1010937F808
:1047A00010600D4911F80A100819314600F081F81F
:1047B0000EB94FF6FF760AF1010082460D28E7D3C5
:1047C0004FF6FF70864202D037F8190008B945F05D
:1047D00040052570BDE8F087404A00082DE9F04704
:1047E00081460E4617464FF00008D9F80040022EC9
:1047F00002D3E069B04202D80220BDE8F08767B179
:1048000000BF4FF0FF3239462046FFF7DFFE8046FB
:10481000B8F1000F01D04046EFE700BF31464846EF
:10482000FFF7D8FA054605B922E0012D01D1022093
:10483000E3E7681C08B90120DFE700223146204683
:10484000FFF7C4FE8046B8F1000F01D04046D4E720
:10485000D4E90610801E814206D2A069401CA061E6
:10486000207940F0010020712E46E069B042D5D891
:1048700000BF0020C1E770B506460C461546A9B238
:1048800004F11A0000F015F83078032804D1290C3F
:1048900004F1140000F00DF870BD00F8011B090AC6
:1048A00000F8011B090A00F8011B090A00F8011BA6
:1048B000704700F8011B091200F8011B704730B562
:1048C000014600200B2200BF431003EBC01411F877
:1048D000015B6319D8B2531E1A1EF5D130BD00001A
:1048E00070B50446204600F041F80546002D37D14A
:1048F000207803282DD1207901282AD1010304F141
:104900003800FBF78AFC4AF6552104F23620FFF7FF
:10491000D0FF144904F13800FFF7BFFF124904F536
:104920000770FFF7BAFF04F50870A169FFF7B5FF3C
:1049300004F509706169FFF7B0FF606A401C6063AD
:104940006078012304F13801626BFEF76DF90020F5
:104950002071607800221146FEF723F900B101258D
:10496000284670BD525261417272416170B5044671
:104970000025E078E8B16078012304F13801626B2A
:10498000FEF752F9A0B90020E070A16A606B401AEE
:10499000216A88420DD2A07802280AD1236A616B6D
:1049A000CA186078012304F13801FEF73DF900E0F0
:1049B0000125284670BD2DE9F0410646356815F8F9
:1049C000014B2046FDF789FE60B115F8017B3846A2
:1049D000FDF789FE18B94FF0FF30BDE8F08107EB15
:1049E000042084B24CB140F2B5112046FFF732F8F2
:1049F000044614B94FF0FF30EFE7A046356040465B
:104A0000EBE770B504460D4609268CB1206878B1F5
:104A10002068007860B1A0882168C988884207D1E1
:104A200021684878FEF7EEF800F0010000B9002692
:104A30000EB9206800E000202860304670BD0000FC
:104A400001030507090E10121416181C1E809A4542
:104A5000418E418F804545454949498E8F909292BC
:104A60004F994F555559999A9B9C9D9E9F41494FEF
:104A700055A5A5A6A7A8A9AAABACADAEAFB0B1B2DB
:104A8000B3B4B5B6B7B8B9BABBBCBDBEBFC0C1C27E
:104A9000C3C4C5C6C7C8C9CACBCCCDCECFD0D1D26E
:104AA000D3D4D5D6D7D8D9DADBDCDDDEDFE0E1E25E
:104AB000E3E4E5E6E7E8E9EAEBECEDEEEFF0F1F24E
:104AC000F3F4F5F6F7F8F9FAFBFCFDFEFF00010040
:104AD000040010004000000100020000010002007C
:104AE0000400080010002000000000000700000083
:104AF000000000000000000000000000C700FC00F3
:104B0000E900E200E400E000E500E700EA00EB0075
:104B1000E800EF00EE00EC00C400C500C900E600AC
:104B2000C600F400F600F200FB00F900FF00D6001A
:104B3000DC00A200A300A500A7209201E100ED0087
:104B4000F300FA00F100D100AA00BA00BF00102360
:104B5000AC00BD00BC00A100AB00BB0091259225BC
:104B60009325022524256125622556255525632593
:104B7000512557255D255C255B25102514253425F9
:104B80002C251C2500253C255E255F255A2554250E
:104B900069256625602550256C25672568256425CF
:104BA000652559255825522553256B256A25182535
:104BB0000C25882584258C2590258025B103DF00D0
:104BC0009303C003A303C303B500C403A603980360
:104BD000A903B4031E22C603B50329226122B10032
:104BE0006522642220232123F7004822B0001922E5
:104BF000B7001A227F20B200A025A00061001A038E
:104C0000E0001703F8000703FF000100780100012E
:104C1000300132010601390110014A012E017901EA
:104C2000060180014D00430281018201820184015D
:104C3000840186018701870189018A018B018B012B
:104C40008D018E018F0190019101910193019401D9
:104C5000F60196019701980198013D029B019C0184
:104C60009D0120029F01A001A001A201A201A401B7
:104C7000A401A601A701A701A901AA01AB01AC01EA
:104C8000AC01AE01AF01AF01B101B201B301B3019B
:104C9000B501B501B701B801B801BA01BB01BC014A
:104CA000BC01BE01F701C001C101C201C301C401C1
:104CB000C501C401C701C801C701CA01CB01CA01AE
:104CC000CD011001DD0101008E01DE011201F301B1
:104CD0000300F101F401F401F8012801220212019C
:104CE0003A020900652C3B023B023D02662C3F0262
:104CF00040024102410246020A0153024000810182
:104D00008601550289018A0158028F015A029001D9
:104D10005C025D025E025F02930161026202940125
:104D20006402650266026702970196016A02622CBC
:104D30006C026D026E029C01700271029D01730291
:104D400074029F0176027702780279027A027B026E
:104D50007C02642C7E027F02A60181028202A901EC
:104D60008402850286028702AE014402B101B201CB
:104D700045028D028E028F0290029102B7017B03E1
:104D80000300FD03FE03FF03AC0304008603880356
:104D900089038A03B1031103C2030200A303A3031F
:104DA000C4030803CC0303008C038E038F03D803D2
:104DB0001801F2030A00F903F303F403F503F60301
:104DC000F703F703F903FA03FA033004200350044E
:104DD0001007600422018A043601C1040E01CF04C9
:104DE0000100C004D00444016105260400007D1DBB
:104DF0000100632C001E9601A01E5A01001F080628
:104E0000101F0606201F0806301F0806401F060652
:104E1000511F0700591F521F5B1F541F5D1F561F54
:104E20005F1F601F0806701F0E00BA1FBB1FC81F40
:104E3000C91FCA1FCB1FDA1FDB1FF81FF91FEA1F8C
:104E4000EB1FFA1FFB1F801F0806901F0806A01FFC
:104E50000806B01F0400B81FB91FB21FBC1FCC1F2B
:104E60000100C31FD01F0206E01F0206E51F01005C
:104E7000EC1FF31F0100FC1F4E21010032217021A5
:104E80001002842101008321D0241A05302C2F0424
:104E9000602C0201672C0601752C0201802C640134
:104EA000002D260841FF1A030000DDDDDDDDDCBB3F
:104EB000BBDDDDDDDDDDDDDDDDDD98888888888832
:104EC0008888777777777788888885555556666696
:104ED0006666666666666668888883333332222231
:104EE0002222222222222228888D00006C65642042
:104EF0002573202564000000666C61736800000063
:104F000073746F7000000000636C656172000000D4
:104F1000304F00080000002050000000F41C000882
:104F2000804F00085000002060510000041D000860
:104F3000000000000102030401020304060708093F
:104F40000000000074686973206973206120746533
:104F5000737420737472696E672100000000000092
:104F600000000000F84E0008EC4E0008004F00085A
:104F7000084F0008000000000000000000000000D2
:04000005080001AD41
:00000001FF
