:020000040800F2
:10000000C8280020C50100081D040008AF0300082F
:1000100019040008390200082D0D00080000000036
:10002000000000000000000000000000990A000825
:100030003D020008000000001F040008BD0B00087E
:10004000DF010008DF010008DF010008DF01000810
:10005000DF010008DF010008DF010008DF01000800
:10006000DF010008DF010008DF010008DF010008F0
:10007000DF010008DF010008DF010008DF010008E0
:10008000DF010008DF010008DF010008DF010008D0
:10009000DF010008DF010008DF010008DF010008C0
:1000A000DF010008DF010008DF010008DF010008B0
:1000B000DF010008DF010008DF010008DF010008A0
:1000C000DF010008DF010008DF010008DF01000890
:1000D000DF010008DF010008DF010008DF01000880
:1000E000DF010008DF010008DF010008DF01000870
:1000F000DF010008DF010008DF010008DF01000860
:10010000DF010008DF010008DF010008DF0100084F
:10011000DF010008DF010008DF010008DF0100083F
:10012000DF010008DF010008DF010008DF0100082F
:10013000DF010008DF010008DF010008DF0100081F
:10014000DF010008DF010008DF010008DF0100080F
:10015000DF010008DF010008DF010008DF010008FF
:10016000DF010008DF010008DF010008DF010008EF
:10017000DF010008DF010008DF010008DF010008DF
:10018000DF010008DF010008DF010008DF010008CF
:10019000DF010008DF010008DF010008DF010008BF
:1001A000DF010008DF010008DF010008DFF810D0E0
:1001B00000F030F800480047BD1B0008AFF3008096
:1001C000C82800200648804706480047FEE7FEE7AB
:1001D000FEE7FEE7FEE7FEE7FEE7FEE7FEE7FEE7F7
:1001E000C10B0008AD01000830B50B4601460020E8
:1001F0002022012409E021FA02F59D4205D303FAE9
:1002000002F5491B04FA02F52844151EA2F1010269
:10021000F1DC30BD064C074D06E0E06840F001031C
:1002200094E8070098471034AC42F6D3FFF7C2FFBA
:10023000241E0008441E000800BFFEE770470000AF
:1002400000B587B00121084600F0EAF8012110202E
:1002500000F0F6F807220A211D4800F085F8072271
:1002600009211B4800F080F800208DF81A000120B9
:100270008DF81B0002208DF8180000020590022066
:100280008DF8190005A9124800F026F802208DF813
:1002900018004002059005A90D4800F01DF84FF424
:1002A000E13001900020ADF80800ADF80A00ADF88B
:1002B0000C00ADF810000C20ADF80E0001A90548A7
:1002C00000F0C6FC0121034800F0A8FC07B000BD07
:1002D0000000024000100140F0B50A460021002352
:1002E000002400BF3DE0012505FA01F3156805EA89
:1002F00003049C4234D105684F000326BE40B54339
:10030000056015794E00B5400668354305601579DE
:10031000012D02D01579022D16D185684F000326D4
:10032000BE40B543856055794E00B540866835437B
:100330008560456801268E40B543456045689679DD
:100340008E40B6B235434560C5684F000326BE40B7
:10035000B543C560D5794E00B540C6683543C56024
:10036000491C1029BFD3F0BDF0B5002300244D0770
:10037000ED0E02FA05F3CE1000F1200555F82650D7
:100380004E07F70E0F26BE40B543CF1000F12006F2
:1003900046F82750CE1000F1200555F8265045EAC2
:1003A0000304CE1000F1200545F82640F0BD00BF43
:1003B000FEE700001CB50121802000F031F84FF469
:1003C0008060009001208DF8040000208DF8060068
:1003D00001208DF8070000208DF8050069460D48C2
:1003E000FFF77AFF4FF40060009069460948FFF775
:1003F00073FF4FF48050009069460648FFF76CFF8A
:100400004FF48060034918310880400008804000A4
:1004100008801CBD001C024000BFFEE7704770470B
:1004200029B1064A12680243044B1A6004E0034AE9
:1004300012688243014B1A60704700003038024056
:1004400029B1064A12680243044B1A6004E0034AC9
:1004500012688243014B1A60704700004438024022
:10046000F0B5002100220024022500260223324F8D
:100470003F6807F00C0121B1042905D0082937D1C4
:1004800005E02E4F076036E02D4F076033E02A4F1E
:100490003F1F3F68C7F38056274F3F1F3F6807F055
:1004A0003F036EB1264FB7FBF3F7DFF88CC0ACF11A
:1004B000040CDCF800C0CCF3881C07FB0CF40CE047
:1004C0001E4FB7FBF3F7DFF870C0ACF1040CDCF89B
:1004D00000C0CCF3881C07FB0CF4174F3F1F3F688C
:1004E000C7F301477F1C7D00B4FBF5F7076002E00E
:1004F000124F076000BF00BF0F4F3F6807F0F001C9
:100500000909104F7A5C0768D74047600A4F3F6877
:1005100007F4E051890A0B4F7A5C4768D74087603F
:10052000054F3F6807F46041490B064F7A5C476806
:10053000D740C760F0BD0000083802400024F40036
:1005400040787D010000002021B1028842F0400285
:10055000028004E002884FF6BF731A4002807047A1
:1005600070B505460C461646402011490880032008
:1005700000F0C4F9200E00F0C1F9C4F3074000F008
:10058000BDF9C4F3072000F0B9F9E0B200F0B6F904
:1005900004E0FF2000F0B2F928706D1C301EA6F1B7
:1005A0000106F6D140200249891E088070BD000076
:1005B0001A1402402DE9F05F07460D4616464FF02B
:1005C0000008C146C2460024A34605F0FF0ACAF14E
:1005D0000000C4B2C6F3072806F0FF09BAF1000F05
:1005E00020D1B8F1000F05D132462946384600F037
:1005F000EDF859E009E04FF480722946384600F0E2
:10060000E5F805F5807507F58077B8F10000A8F1E9
:10061000010101F0FF08EED14A462946384600F0B4
:10062000D5F841E0B8F1000F18D1A14510DDA9EBD4
:10063000040000F0FF0B22462946384600F0C6F8B9
:10064000254427445A462946384600F0BFF82BE097
:1006500032462946384600F0B9F825E0361BC6F385
:10066000072806F0FF0922462946384600F0AEF872
:100670002544274409E04FF480722946384600F0AB
:10068000A5F805F5807507F58077B8F10000A8F1A9
:10069000010101F0FF08EED1B9F1000F04D04A4684
:1006A0002946384600F092F8BDE8F09F00B587B0C3
:1006B00001212020FFF7B4FE01210805FFF7C0FE4D
:1006C000052207212F48FFF74FFE052208212D485C
:1006D000FFF74AFE052209212A48FFF745FE802040
:1006E000009002208DF805008DF8040000208DF8A0
:1006F00006008DF8070069462248FFF7EDFD4FF42C
:100700008070009069461F48FFF7E6FD4FF40070C7
:10071000009069461B48FFF7DFFD40200090012054
:100720008DF8040069461748FFF7D6FD40201549AB
:10073000183108800020ADF808004FF48270ADF841
:100740000A000020ADF80C000220ADF80E000120D8
:10075000ADF810004002ADF812000020ADF8140012
:10076000ADF816000720ADF8180002A9064800F001
:1007700055F901210448FFF7E7FE00F007F807B03C
:1007800000BD0000001402400050014010B54020A0
:100790000D490880152000F0B1F8FF2000F0AEF8F8
:1007A000044640200849891E088004F0010048B929
:1007B0004020891C0880B72000F0A0F840200249A2
:1007C000891E088010BD00001A14024070B505464D
:1007D0000C46164600F0F8F8402015490880022023
:1007E00000F08CF8200E00F089F8C4F3074000F008
:1007F00085F8C4F3072000F081F8E0B200F07EF83D
:10080000B6F5807F04D94FF480760AA000F090FA04
:1008100003E0287800F072F86D1C301EA6F1010686
:10082000F7D140200249891E088000F0A3F870BD6E
:100830001A1402403C3C2D464C4153482D4552521F
:100840004F522D3E3E205350495F464C4153485F26
:1008500050616765577269746520746F6F206C61B1
:10086000726765210A0000002DE9F041002400258F
:100870000026002740200E4908809F2000F03EF807
:10088000FF2000F03BF80546FF2000F037F8064651
:10089000FF2000F033F8074640200549891E0880F4
:1008A000280440EA062040EA07042046BDE8F0811B
:1008B0001A14024010B5044600F086F800F05AF809
:1008C00040200D490880202000F018F8200E00F08C
:1008D00015F8C4F3074000F011F8C4F3072000F046
:1008E0000DF8E0B200F00AF840200349891E0880A4
:1008F00000F040F810BD00001A14024010B5044684
:100900004FF48050194908600AE018490868411EF0
:10091000164A116020B9002000F09EF8C0B210BD48
:100920000221134800F06CF80028EED02146104850
:1009300000F072F84FF480500C4908600AE00B494F
:100940000868411E094A116020B9012000F084F8AE
:10095000C0B2E4E70121064800F052F80028EED0CA
:10096000034800F056F8C0B2D9E700005C00002050
:100970000050014010B50024402011490880052096
:10098000FFF7BCFF4FF480500E49086000BFFF2006
:10099000FFF7B4FF04460B490868411E094A11607D
:1009A00018B9042000F058F810BD04F00100002828
:1009B000EDD140200249891E088000BFF4E7000005
:1009C0001A1402405C00002010B540200449088041
:1009D0000620FFF793FF40200149891E088010BDC3
:1009E0001A14024010B5402004490880AB20FFF7DC
:1009F00085FF40200149891E088010BD1A1402405D
:100A00000246002013890B400BB1012000E00020BA
:100A100070470146888970478181704710B5002270
:100A2000028802F441520B884C8823438C8823436C
:100A3000CC8823430C8923434C8923438C8923434B
:100A4000CC8923431A430280838B4FF2FF742340E7
:100A500083830B8A038210BD10B50446214602A091
:100A600000F066F9002010BD3C3C2D464C41534837
:100A70002D4552524F522D3E3E2053504920B5C86D
:100A8000B4FDB3ACCAB1216572726F72436F646515
:100A9000203D2025640A0000704700000CB50020AE
:100AA000019000904148006840F480303F49086060
:100AB00000BF3E48006800F4003000900198401CE0
:100AC0000190009818B90198B0F5A04FF1D13748BE
:100AD000006800F4003010B10120009001E0002017
:100AE00000900098012860D130484030006840F004
:100AF00080502E49403108602D48006840F4404045
:100B00002B490860294808300068284908310860E6
:100B10000846006840F4004008600846006840F459
:100B2000A05008602348091F0860081F006840F0B3
:100B30008070091F086000BF1C48006800F000704A
:100B40000028F9D01A48006840F48030184908603D
:100B500000BF1748406800F480300028F9D01448DE
:100B6000006840F400301249086000BF1048406837
:100B700000F400300028F9D040F205700E490860FA
:100B80000A480830006820F003000849083108606E
:100B90000846006840F00200086000BF03480830C3
:100BA000006800F00C000828F8D10CBD00380240A5
:100BB00000700040195A4007003C02407047000096
:100BC00010B51248006840F001001049086000208C
:100BD0000E49083108600D4800680D4908400B496E
:100BE00008600C48091D0860081F006820F4802078
:100BF000091F0860002005490C310860FFF74EFF0F
:100C00004FF000600449086010BD00000038024049
:100C1000FFFFF6FE1030002408ED00E021B18289CC
:100C200042F40052828104E082894DF6FF731A403B
:100C30008281704702460020B1F5007F00D100BFDD
:100C400013880B400BB1012000E00020704700002A
:100C50002DE9FF4705460E460024A14600BFA046E9
:100C6000B08900B100BF2C8A24F44054F0880443BA
:100C70002C82AC8941F20C608443B08831890843EE
:100C8000718908430443AC81AC8A24F44074B08970
:100C90000443AC826846FFF7E3FB2048854202D05C
:100CA0001F48854202D1DDF80C9001E0DDF8089084
:100CB000A88900F4004040B109EBC90000EB09101D
:100CC00031684900B0FBF1F707E009EBC90000EB20
:100CD000091031688900B0FBF1F76420B7FBF0F030
:100CE00004012009642101FB1078A88900F4004068
:100CF00040B1322000EBC800B0FBF1F000F007007B
:100D0000044308E0322000EB08106421B0FBF1F04E
:100D100000F00F0004432C81BDE8FF870010014064
:100D200000140140C1F308028280704700BFFEE753
:100D30000FB4054B10B503A9044A029800F018F847
:100D400010BC5DF814FB0000451B00086C0000207F
:100D500002E008C8121F08C1002AFAD17047704784
:100D6000002001E001C1121F002AFBD170470000E2
:100D70002DE9FF4F89B09B460446002506E0252853
:100D80000BD05A460B999047641C6D1C20780028A4
:100D9000F5D10DB02846BDE8F08F0027B8460122F6
:100DA000474900E0074314F8013F203B02FA03F0F3
:100DB0000842F7D120782E2819D114F8010F47F0F6
:100DC00004072A280ED06FF02F022078A0F13001FE
:100DD00009290CD808EB880102EB410100EB01085E
:100DE000641CF2E70A98641C50F8048B0A9020787F
:100DF0000028CED0642808D0692806D075281ED0D7
:100E00005A460B9990476D1C58E00A994FF00A0911
:100E100001C90A91002802DA40422D2102E0390579
:100E200004D52B218DF82010012103E0F90704D00F
:100E30002021F7E78A4608AE0DE00021FAE70A997B
:100E40004FF00A0901C90A91F7E74946FFF7CCF9C3
:100E5000303106F8011D0028F7D1ADEB060000F196
:100E60002009780701D44FF00108C84502DDA8EB3E
:100E7000090000E000208046002706E008A85A4646
:100E8000C05D0B9990476D1C7F1C5745F6DB04E055
:100E900030205A460B9990476D1CB8F10001A8F11B
:100EA0000108F5DC05E016F8010B5A460B9990474E
:100EB0006D1CB9F10001A9F10109F4DC641C65E7BE
:100EC0000928010070B504460D4600202071401E1F
:100ED000E0622946204600F044FF08B1032070BDBF
:100EE00094F82E1294F82F0241EA00204AF6552178
:100EF000884201D00220F2E794F86900010694F8D4
:100F0000680041EA004194F8670041EA002094F843
:100F10006610084320F07F400D49884201D100202F
:100F2000DDE794F88500010694F8840041EA004169
:100F300094F8830041EA002094F88210084320F0DE
:100F40007F400349884201D10020C8E70120C6E75D
:100F50004641540070B50446012614B1012C11D14C
:100F600000E011E0FFF7A2FB4FF4FA7500BF681E26
:100F700080B2051EFBD1FFF735FD012000F046F8D9
:100F8000064601E0012600BF00BF304670BD10B527
:100F90000346042013B1012B16D100E016E001290D
:100FA00004D0022906D003290BD107E04FF4805466
:100FB000146006E04FF48054148002E001241460B1
:100FC00000BF00BF002001E0042000BF00BF10BD33
:100FD0002DE9F04105460E4614461F464FF0040821
:100FE00015B1012D0BD100E00CE004F580543A035B
:100FF00021033046FFF7B4FA4FF0000802E04FF04B
:10100000040800BF00BF4046BDE8F08170B504464B
:10101000012514B1012C0BD100E00BE0FFF724FCFB
:101020000649884202D125F0010500E0012501E0D2
:10103000012500BF00BF284670BD00001940EF0029
:101040002DE9F0470746884614461D464FF004092F
:1010500015B90420BDE8F08717B1012F0FD100E0CA
:1010600010E004F5805426033046FFF723FC2A03E2
:1010700031464046FFF79EFA4FF0000902E04FF07C
:10108000040900BF00BF4846E4E700002DE9F74F20
:1010900090B091461198012803DD132013B0BDE8EC
:1010A000F08F10A800F064FD0F900F98002801DA6F
:1010B0000B20F3E7FA490F9851F820500DB90C2096
:1010C000ECE7002028700F98C0B20C9000200B9025
:1010D0000C98FFF73FFF0190019800F0010008B164
:1010E0000320DBE7019800F0040008B10A20D5E7EF
:1010F00005F10A0202210C98FFF749FF38B9688907
:10110000B0F5805F03DC6889B0F5007F01DA01206B
:10111000C4E700BF04AA01210C98FFF738FF10B9FB
:101120000498802801D20120B8E7119808B1002066
:1011300000E03F2082460498A0EB0A000490A9F149
:10114000010000EA090008B14FF00009B9F1000FF1
:101150001AD16889C11700EBD15149124FF4FA62D4
:1011600092FBF1F1049AB2FBF1F10A914FF0000BFE
:1011700001E00BF1010BCB4830F81B100A988142BB
:10118000F7D8C94830F81B90B9F5007F02D36889B9
:10119000B9FBF0F9B9F1000F01D14FF00109B9F134
:1011A000800F01D94FF080090498B0FBF9F80126AF
:1011B00040F6F670804500D302264FF6F670804563
:1011C00000D30326032E0CD1082000EB8800698988
:1011D0000844401EB0FBF1F720200390002002904D
:1011E00019E0012E05D108EB4800401C4008C01C46
:1011F00002E04FEA4800001D074668893844401E57
:101200006989B0FBF1F70120039068894FF48041B0
:10121000B1FBF0F0029003985044079007983844CF
:101220000690029906980844059005984844A0EB5A
:101230000A000499884201D90E202FE709AA032148
:101240000C98FFF7A4FE28B9099818B10998B0F5D1
:10125000004F01D901200990099905980844401EC2
:10126000491E8843099009990598081A0990032E88
:1012700008D10999039808440390099907980844EC
:10128000079001E009980744DDE90301081AC11B32
:101290000298081AB0FBF9F8022E03D140F6F67056
:1012A000804505D3032E05D14FF6F670804501D257
:1012B0000E20F3E6032E02D10C200D9010E0012E3B
:1012C00006D10498B0F5803F02D201200D9007E0CE
:1012D0000498B0F5803F01D2042000E006200D9074
:1012E00000BF119810B1F0200E9043E06A890021F0
:1012F00005F1300000F02BFD05F5F774012060705A
:10130000A0700020E0700D982071FE20607104989C
:1013100050443F21B0FBF1F0FF21B0FBF1F0099008
:101320003F21099841EA9000A0710998E0713F209F
:10133000207200216172A172E172049820730498F6
:10134000010A61730498010CA1730498010EE17302
:10135000552185F82E12AA2185F82F12012300228B
:1013600005F130010C98FFF76BFE08B1012095E6FE
:10137000F8200E9005F130046A890021204600F023
:10138000E6FC0B2249A1204600F0D4FCB5F80AB0D7
:1013900084F80BB04FEA1B21217384F80D90039859
:1013A000A0730398010AE17301202074032E01D178
:1013B000002001E04FF40070834684F811B04FEA3A
:1013C0001B21A1740498B0F5803F05D20498E07405
:1013D0000498010A217510E0049884F8200004980C
:1013E000C0F30721212001550498C0F307412220B2
:1013F00001550498010E232001550E9860753F2079
:10140000207600216176FF20A076E17684F81CA08A
:101410004FEA1A2161774FEA1A41A1774FEA1A6120
:10142000E17700F0A1FB0990032E4BD1099884F8D5
:1014300043000998C0F30721442001550998C0F3DF
:101440000741452001550998010E4620015584F8B1
:101450002470C7F3072125200155C7F30741262033
:101460000155390E27200155022084F82C00002157
:101470002D2001552E2001552F200155012084F8E3
:10148000300031200155062084F832003320015508
:10149000802084F84000292084F8420013220BE0C9
:1014A00060000020F61D00080C1E0008EBFE904DA9
:1014B00053444F53352E30008AA104F1470000F009
:1014C00039FC1FE0099884F827000998C0F3072128
:1014D000282001550998C0F3074129200155099892
:1014E000010E2A200155A775390AE175802084F87C
:1014F0002400292084F8260013227FA104F12B0068
:1015000000F018FC552084F8FE01AA2140F2FF10DB
:1015100001550123524621460C98FFF791FD08B171
:101520000120BBE5032E06D101230AF10602214664
:101530000C98FFF785FD079808904FF0000B5FE0CF
:101540006A890021204600F002FC0E980990032EC3
:1015500014D0012E01D16D4801E06FF0FF00099910
:1015600008430990099820700998000A607009984A
:10157000000CA0700998000EE07019E0099860F066
:10158000FF000990099820700998000A6070099876
:10159000000CA0700998000EE070FF202071FF2160
:1015A0006171A171E17120726172A1720F21E1720A
:1015B0000898411C02460123089121460C98FFF728
:1015C0003FFD08B1012069E56A890021204600F04D
:1015D000BEFB012009900EE00898411C0246012341
:1015E000089121460C98FFF72BFD08B1012055E525
:1015F0000998401C09900998B842EDD30BF1010BF2
:10160000BBF1000F9CD0032E01D1484600E00298A8
:10161000834600BF0898411C0246012308912146D9
:101620000C98FFF70DFD08B1012037E5ABF1010083
:10163000B0F1000BEED1032E49D152202070607022
:101640006120A0704120E070722084F8E4017221D2
:1016500040F2E51001554121401C01556121401C1B
:101660000155A8F1010084F8E801C0F3072140F218
:10167000E9100155A8F10100C0F307414FF4F570DE
:101680000155A8F10100010E40F2EB1001550220B6
:1016900084F8EC01002140F2ED100155401C015589
:1016A000401C0155552084F8FE01AA2140F2FF108C
:1016B000015501230AF1010221460C98FFF7C0FCF5
:1016C00001230AF1070221460C98FFF7B9FC00221A
:1016D00011460C98FFF75BFC08B10120DEE4002006
:1016E000DCE400004E4F204E414D45202020204696
:1016F00041543332202020004E4F204E414D452092
:1017000020202046415420202020200000FFFF0000
:10171000F7B582B016460398019001A800F028FAA8
:101720000546002D02DA0B2005B0F0BD0E4850F83A
:1017300025400CB100202070029810B100200299C1
:1017400008700949029841F82500029808B1012E55
:1017500001D00020E8E7002203A902A800F006F863
:1017600007463846E0E70000600000202DE9F74F0B
:101770008AB000210A9801600B9800F0F9F90990ED
:101780000998002803DA0B200DB0BDE8F08FE94975
:10179000099851F820400CB90C20F5E70A9804602C
:1017A000207878B16078FFF731FC814609F00100BC
:1017B00040B90C9820B109F0040008B10A20E3E711
:1017C0000020E1E700202070099860706078FFF742
:1017D000C1FB814609F0010008B10320D4E70C9851
:1017E00020B109F0040008B10A20CDE7607804F1C7
:1017F0000A020221FFF7CBFB38B96089B0F5007F00
:1018000003DB6089B0F5805F01DD0120BCE70027C4
:1018100039462046FFF756FB0546012D01D09DBBFA
:1018200032E000261AE004F5F77000EB061898F88D
:10183000040070B198F80B00010698F80A0041EA1C
:10184000004198F8090041EA002098F80810084380
:1018500000E0002002A941F82600761C042EE2D305
:10186000002606B1761E00BF02A850F8267027B1E8
:1018700039462046FFF726FB00E0022005461DB151
:10188000701C06460428EFD3032D01D101207BE70D
:101890000DB10D2078E73B20015D94F83C0041EA52
:1018A00000206189884201D00D206DE74620015D4E
:1018B00094F8470041EA002ABAF1000F0ED194F8DB
:1018C0005700010694F8560041EA004194F855008B
:1018D00041EA002094F8541040EA010AC4F818A024
:1018E0004020005DE070E078012804D0E078022814
:1018F00001D00D2048E7E0780AFB00FA3D20005DAA
:10190000A070A07818B1A078411E084008B10D2041
:101910003AE74120015D94F8420041EA002020812D
:101920006089C11700EBD1614911228992FBF1F363
:1019300001FB132109B10D2026E74320015D94F836
:10194000440041EA00200890089870B994F85300C8
:10195000010694F8520041EA004194F8510041EA2E
:10196000002094F85010084308903E20015D94F840
:101970003F0041EA00200190019808B90D2003E7DB
:101980006089C11700EBD1614911228992FBF1F204
:101990000199514411440791DDE90710884201D2B1
:1019A0000D20F1E6DDE90710401AA178B0FBF1FB4C
:1019B000BBF1000F01D10D20E6E6012540F6F670DF
:1019C000834500D302254FF6F670834500D30325E7
:1019D0000BF102006061E7610198384420620798CA
:1019E0003844A062032D16D1208908B10D20CBE622
:1019F00094F85F00010694F85E0041EA004194F813
:101A00005D0041EA002094F85C1008436062606960
:101A10008000069014E0208908B90D20B4E6206A01
:101A200050446062022D02D16069400007E0207DD1
:101A300000F00100616901EB410100EB51000690EB
:101A40006089401E069908446189B0FBF1F0A169E4
:101A5000884201D90D2097E64FF0FF302061E06009
:101A600080206071032D5AD194F8601094F86100C1
:101A700041EA0020012852D1791C204600F071F97A
:101A8000E8BB0020607194F82E1294F82F0241EA0E
:101A900000204AF65521884241D13320005D0106DD
:101AA0003220005D41EA00413120005D41EA002022
:101AB00094F8301008432049884230D194F8170236
:101AC000010694F8160241EA004194F8150241EA31
:101AD000002094F814120843184988421FD194F842
:101AE0001B02010694F81A0241EA004194F8190217
:101AF00041EA002094F818120843206100E00EE04B
:101B000094F81F02010694F81E0241EA004194F87D
:101B10001D0241EA002094F81C120843E060257081
:101B200007480088401C80B205490880E0800020FA
:101B30002AE6000060000020525261417272416149
:101B40006800002070B504460D46E1B20548FFF775
:101B5000E9F800BF80210348FFF76CF80028F9D0AE
:101B6000204670BD0010014000487047000021462B
:101B700070B502464FF0FF301568E5B1116800E01E
:101B8000491C0D78202D02D30D783A2DF8D10D780F
:101B90003A2D0FD1146814F8015BA5F130030A2B1C
:101BA00007D28C4205D1022B03D218464D1C294680
:101BB000156070BD002000BFFBE70000FEF7FAFBD8
:101BC0004FF480602B490880400008804000891C49
:101BD0000880FEF735FB28A0FFF7AAF801222EA106
:101BE0002E48FFF795FD2E490870084600780D280D
:101BF0002DD12CA0FFF79CF80022114626A0FFF75C
:101C000045FA274908700846007888B92CA0FFF7E4
:101C10008FF8012220A10020FFF77AFD20490870EB
:101C200001221DA11D48FFF773FD1D4908701EE02C
:101C30004FF480600F49891C08804000891E08808D
:101C40004000088023A0FFF773F800BFFEE71448A8
:101C5000007848B11248017824A0FFF769F829A05C
:101C6000FFF766F800BFFEE72DA0FFF761F800BFA1
:101C7000FEE70000181C02402A2A2A2A2A2A20539A
:101C8000504920464C4153482054455354202A2A59
:101C90002A2A2A2A0D0A0000313A0000700000208A
:101CA00010000020A1B7464C415348204E4F20461B
:101CB000494C452053595354454D2E2E2E0D0A00A4
:101CC000A1B7464F524D41542053554343455353BA
:101CD0000D0A0000A1B6A1B6464F524D4154204610
:101CE00041494CA1B7A1B70D0A000000A3A1A3A1CF
:101CF0004D4F554E54204641494C282564290D0A24
:101D000000000000A3A1A3A153504920464C415319
:101D10004820494E4954204641494C0D0A000000D4
:101D2000A1B74D4F554E5420535543434553530D82
:101D30000A00000070B503460C4603E014F8015B8E
:101D400003F8015B151EA2F10102F7D170BD30B599
:101D5000034601E003F8011B141EA2F10102F9D1B0
:101D600030BD70B504460D460026E06AA84210D08A
:101D7000204600F010F806465EB9607801232A4636
:101D800004F13001FFF724F910B14FF0FF350126BF
:101D9000E562304670BD2DE9F04104460027207908
:101DA000F8B1E56A607801232A4604F13001FFF7B3
:101DB00047F908B1012714E000202071206A281A91
:101DC000A16988420DD2E67809E0A06905446078EF
:101DD00001232A4604F13001FFF732F9761E022E64
:101DE000F3D23846BDE8F08101030507090E101251
:101DF0001416181C1E0000040002000180004000A0
:101E000020001000080004000200000000800040D4
:101E1000002000100008004000200010000800040E
:101E200000020000441E00080000002070000000B6
:101E3000500D0008B41E0008700000205828000053
:101E4000600D000800000000010203040102030409
:101E5000060708090000000000000000BBB6D3AD73
:101E6000CAB9D3C3D2B0BBF053544D333220463439
:101E70003239BFAAB7A2B0E520BDF1CCECCAC7B8D1
:101E8000F6BAC3C8D5D7D3A3ACD0C2BDA8CEC4BC04
:101E9000FECFB5CDB3B2E2CAD4CEC4BCFE0D0A00AB
:101EA00000A0000000000000000000000000000092
:041EB000000000002E
:04000005080001AD41
:00000001FF
